{
  "address": "0x5Db6608eC9BA05E4855e7EC85b9b5Dc92b73C410",
  "abi": [
    {
      "inputs": [
        {
          "internalType": "string",
          "name": "_key",
          "type": "string"
        }
      ],
      "name": "getIdFromStringKey",
      "outputs": [
        {
          "internalType": "bytes32",
          "name": "id",
          "type": "bytes32"
        }
      ],
      "stateMutability": "pure",
      "type": "function"
    }
  ],
  "transactionHash": "0x030aa78c940ecdee8763e112830a61ed08d53a3b1bcc4497ea924d7ac6620406",
  "args": [],
  "numDeployments": 1,
  "solcInputHash": "bab281e5640fb4f8a58586b3f548739e",
  "bytecode": "0x6101c661003a600b82828239805160001a60731461002d57634e487b7160e01b600052600060045260246000fd5b30600052607381538281f3fe73000000000000000000000000000000000000000030146080604052600436106100355760003560e01c8063f99a8ffb1461003a575b600080fd5b61004d610048366004610108565b61005f565b60405190815260200160405180910390f35b60006020825111156100d1576040517f08c379a000000000000000000000000000000000000000000000000000000000815260206004820152600b60248201527f696e76616c6964206b6579000000000000000000000000000000000000000000604482015260640160405180910390fd5b506020015190565b7f4e487b7100000000000000000000000000000000000000000000000000000000600052604160045260246000fd5b60006020828403121561011a57600080fd5b813567ffffffffffffffff8082111561013257600080fd5b818401915084601f83011261014657600080fd5b813581811115610158576101586100d9565b604051601f8201601f19908116603f01168101908382118183101715610180576101806100d9565b8160405282815287602084870101111561019957600080fd5b82602086016020830137600092810160200192909252509594505050505056fea164736f6c6343000813000a",
  "devdoc": {
    "author": "NFTfi",
    "details": "Common library for contract key utils",
    "kind": "dev",
    "methods": {
      "getIdFromStringKey(string)": {
        "params": {
          "_key": "the string key"
        },
        "returns": {
          "id": "bytes32 representation"
        }
      }
    },
    "title": "ContractKeyUtils",
    "version": 1
  },
  "userdoc": {
    "kind": "user",
    "methods": {
      "getIdFromStringKey(string)": {
        "notice": "Returns the bytes32 representation of a string"
      }
    },
    "version": 1
  },
  "storageLayout": {
    "storage": [],
    "types": null
  }
}