{
  "address": "0x69890a5B92C8a21EF3539622Cd2881Ea65b8b8fB",
  "abi": [
    {
      "inputs": [
        {
          "internalType": "address",
          "name": "to",
          "type": "address"
        },
        {
          "internalType": "address",
          "name": "nftContract",
          "type": "address"
        },
        {
          "internalType": "uint256",
          "name": "tokenId",
          "type": "uint256"
        }
      ],
      "name": "approveNFT",
      "outputs": [
        {
          "internalType": "bool",
          "name": "",
          "type": "bool"
        }
      ],
      "stateMutability": "nonpayable",
      "type": "function"
    },
    {
      "inputs": [
        {
          "internalType": "address",
          "name": "_owner",
          "type": "address"
        },
        {
          "internalType": "address",
          "name": "_nftContract",
          "type": "address"
        },
        {
          "internalType": "uint256",
          "name": "_tokenId",
          "type": "uint256"
        }
      ],
      "name": "balanceOf",
      "outputs": [
        {
          "internalType": "uint256",
          "name": "",
          "type": "uint256"
        }
      ],
      "stateMutability": "view",
      "type": "function"
    },
    {
      "inputs": [
        {
          "internalType": "address",
          "name": "_owner",
          "type": "address"
        },
        {
          "internalType": "address",
          "name": "_nftContract",
          "type": "address"
        },
        {
          "internalType": "uint256",
          "name": "_tokenId",
          "type": "uint256"
        }
      ],
      "name": "isOwner",
      "outputs": [
        {
          "internalType": "bool",
          "name": "",
          "type": "bool"
        }
      ],
      "stateMutability": "view",
      "type": "function"
    },
    {
      "inputs": [
        {
          "internalType": "address",
          "name": "_sender",
          "type": "address"
        },
        {
          "internalType": "address",
          "name": "_recipient",
          "type": "address"
        },
        {
          "internalType": "address",
          "name": "_nftContract",
          "type": "address"
        },
        {
          "internalType": "uint256",
          "name": "_nftId",
          "type": "uint256"
        }
      ],
      "name": "transferNFT",
      "outputs": [
        {
          "internalType": "bool",
          "name": "",
          "type": "bool"
        }
      ],
      "stateMutability": "nonpayable",
      "type": "function"
    }
  ],
  "transactionHash": "0xf6eb200cc69697f3985a7bc81455b5131bc24533a208563ffefd7d5d81f2696b",
  "args": [],
  "numDeployments": 1,
  "solcInputHash": "bab281e5640fb4f8a58586b3f548739e",
  "bytecode": "0x608060405234801561001057600080fd5b50610360806100206000396000f3fe608060405234801561001057600080fd5b506004361061004c5760003560e01c80637336aaf014610051578063b030667114610079578063e93119d91461008c578063f370e8c5146100ad575b600080fd5b61006461005f3660046102a4565b6100c0565b60405190151581526020015b60405180910390f35b6100646100873660046102e5565b61014b565b61009f61009a3660046102a4565b6101dd565b604051908152602001610070565b6100646100bb3660046102a4565b6101ff565b6040517f095ea7b30000000000000000000000000000000000000000000000000000000081526001600160a01b038481166004830152602482018390526000919084169063095ea7b390604401600060405180830381600087803b15801561012757600080fd5b505af115801561013b573d6000803e3d6000fd5b50505050600190505b9392505050565b6040517f23b872dd0000000000000000000000000000000000000000000000000000000081526001600160a01b038581166004830152848116602483015260448201839052600091908416906323b872dd90606401600060405180830381600087803b1580156101ba57600080fd5b505af11580156101ce573d6000803e3d6000fd5b50600198975050505050505050565b60006101ea8484846101ff565b156101f757506001610144565b506000610144565b6000836001600160a01b0316836001600160a01b0316636352211e846040518263ffffffff1660e01b815260040161023991815260200190565b602060405180830381865afa158015610256573d6000803e3d6000fd5b505050506040513d601f19601f8201168201806040525081019061027a9190610336565b6001600160a01b031614949350505050565b6001600160a01b03811681146102a157600080fd5b50565b6000806000606084860312156102b957600080fd5b83356102c48161028c565b925060208401356102d48161028c565b929592945050506040919091013590565b600080600080608085870312156102fb57600080fd5b84356103068161028c565b935060208501356103168161028c565b925060408501356103268161028c565b9396929550929360600135925050565b60006020828403121561034857600080fd5b81516101448161028c56fea164736f6c6343000813000a",
  "devdoc": {
    "author": "NFTfi",
    "details": "Provides logic to transfer ERC721, uses regular transferFrom instead of safe",
    "kind": "dev",
    "methods": {
      "transferNFT(address,address,address,uint256)": {
        "details": "Transfers ERC721 `_nftId` handled by the contract `_nftContract` from `_sender` to `_recipient`",
        "params": {
          "_nftContract": "- ERC721 contract",
          "_nftId": "- ERC721 id",
          "_recipient": "- The new owner of the ERC721",
          "_sender": "- The current owner of the ERC721"
        },
        "returns": {
          "_0": "true if successfully transferred, false otherwise"
        }
      }
    },
    "title": "ERC721LegacyWrapper",
    "version": 1
  },
  "userdoc": {
    "kind": "user",
    "methods": {},
    "version": 1
  },
  "storageLayout": {
    "storage": [],
    "types": null
  }
}