{
  "address": "0xdA1FfB0Bf2cE637FF12CA31C841Ced04b6483CfD",
  "abi": [
    {
      "inputs": [
        {
          "internalType": "address",
          "name": "_admin",
          "type": "address"
        },
        {
          "internalType": "address",
          "name": "_hub",
          "type": "address"
        }
      ],
      "stateMutability": "nonpayable",
      "type": "constructor"
    },
    {
      "inputs": [],
      "name": "CollateralDelegated",
      "type": "error"
    },
    {
      "inputs": [],
      "name": "CollateralNotLockedByLoan",
      "type": "error"
    },
    {
      "inputs": [],
      "name": "NoSuchERC1155sOwned",
      "type": "error"
    },
    {
      "inputs": [],
      "name": "NoSuchERC20Owned",
      "type": "error"
    },
    {
      "inputs": [],
      "name": "NoSuchERC721Owned",
      "type": "error"
    },
    {
      "inputs": [],
      "name": "NoSuchTokenOwned",
      "type": "error"
    },
    {
      "inputs": [],
      "name": "NotAPlugin",
      "type": "error"
    },
    {
      "inputs": [],
      "name": "OnlyLoanContract",
      "type": "error"
    },
    {
      "inputs": [],
      "name": "TokenIsCollateral",
      "type": "error"
    },
    {
      "anonymous": false,
      "inputs": [
        {
          "indexed": true,
          "internalType": "address",
          "name": "nftCollateralContract",
          "type": "address"
        },
        {
          "indexed": true,
          "internalType": "uint256",
          "name": "nftCollateralId",
          "type": "uint256"
        },
        {
          "indexed": false,
          "internalType": "address",
          "name": "oldLoanContract",
          "type": "address"
        },
        {
          "indexed": false,
          "internalType": "address",
          "name": "newloanContract",
          "type": "address"
        }
      ],
      "name": "LoanHandedOver",
      "type": "event"
    },
    {
      "anonymous": false,
      "inputs": [
        {
          "indexed": true,
          "internalType": "address",
          "name": "nftCollateralContract",
          "type": "address"
        },
        {
          "indexed": true,
          "internalType": "uint256",
          "name": "nftCollateralId",
          "type": "uint256"
        },
        {
          "indexed": true,
          "internalType": "address",
          "name": "borrower",
          "type": "address"
        },
        {
          "indexed": false,
          "internalType": "address",
          "name": "loanContract",
          "type": "address"
        }
      ],
      "name": "Locked",
      "type": "event"
    },
    {
      "anonymous": false,
      "inputs": [
        {
          "indexed": true,
          "internalType": "address",
          "name": "previousOwner",
          "type": "address"
        },
        {
          "indexed": true,
          "internalType": "address",
          "name": "newOwner",
          "type": "address"
        }
      ],
      "name": "OwnershipTransferred",
      "type": "event"
    },
    {
      "anonymous": false,
      "inputs": [
        {
          "indexed": true,
          "internalType": "address",
          "name": "nftCollateralContract",
          "type": "address"
        },
        {
          "indexed": true,
          "internalType": "uint256",
          "name": "nftCollateralId",
          "type": "uint256"
        },
        {
          "indexed": true,
          "internalType": "address",
          "name": "recipient",
          "type": "address"
        },
        {
          "indexed": false,
          "internalType": "address",
          "name": "loanContract",
          "type": "address"
        }
      ],
      "name": "Unlocked",
      "type": "event"
    },
    {
      "inputs": [],
      "name": "acceptTransferOwnership",
      "outputs": [],
      "stateMutability": "nonpayable",
      "type": "function"
    },
    {
      "inputs": [
        {
          "internalType": "address",
          "name": "_plugin",
          "type": "address"
        }
      ],
      "name": "addPlugin",
      "outputs": [],
      "stateMutability": "nonpayable",
      "type": "function"
    },
    {
      "inputs": [],
      "name": "cancelTransferOwnership",
      "outputs": [],
      "stateMutability": "nonpayable",
      "type": "function"
    },
    {
      "inputs": [
        {
          "internalType": "address",
          "name": "_tokenAddress",
          "type": "address"
        },
        {
          "internalType": "uint256",
          "name": "amount",
          "type": "uint256"
        },
        {
          "internalType": "address",
          "name": "_receiver",
          "type": "address"
        }
      ],
      "name": "drainERC20Airdrop",
      "outputs": [],
      "stateMutability": "nonpayable",
      "type": "function"
    },
    {
      "inputs": [
        {
          "internalType": "string",
          "name": "_nftType",
          "type": "string"
        },
        {
          "internalType": "address",
          "name": "_tokenAddress",
          "type": "address"
        },
        {
          "internalType": "uint256",
          "name": "_tokenId",
          "type": "uint256"
        },
        {
          "internalType": "address",
          "name": "_receiver",
          "type": "address"
        }
      ],
      "name": "drainNFT",
      "outputs": [],
      "stateMutability": "nonpayable",
      "type": "function"
    },
    {
      "inputs": [
        {
          "internalType": "address",
          "name": "_newLoanContract",
          "type": "address"
        },
        {
          "internalType": "address",
          "name": "_nftCollateralContract",
          "type": "address"
        },
        {
          "internalType": "uint256",
          "name": "_nftCollateralId",
          "type": "uint256"
        }
      ],
      "name": "handOverLoan",
      "outputs": [],
      "stateMutability": "nonpayable",
      "type": "function"
    },
    {
      "inputs": [],
      "name": "hub",
      "outputs": [
        {
          "internalType": "contract INftfiHub",
          "name": "",
          "type": "address"
        }
      ],
      "stateMutability": "view",
      "type": "function"
    },
    {
      "inputs": [
        {
          "internalType": "address",
          "name": "_nftCollateralContract",
          "type": "address"
        },
        {
          "internalType": "uint256",
          "name": "_nftCollateralId",
          "type": "uint256"
        },
        {
          "internalType": "address",
          "name": "_loan",
          "type": "address"
        }
      ],
      "name": "isInEscrowWithLoan",
      "outputs": [
        {
          "internalType": "bool",
          "name": "",
          "type": "bool"
        }
      ],
      "stateMutability": "view",
      "type": "function"
    },
    {
      "inputs": [
        {
          "internalType": "address",
          "name": "_nftCollateralWrapper",
          "type": "address"
        },
        {
          "internalType": "address",
          "name": "_nftCollateralContract",
          "type": "address"
        },
        {
          "internalType": "uint256",
          "name": "_nftCollateralId",
          "type": "uint256"
        },
        {
          "internalType": "address",
          "name": "_borrower",
          "type": "address"
        }
      ],
      "name": "lockCollateral",
      "outputs": [],
      "stateMutability": "nonpayable",
      "type": "function"
    },
    {
      "inputs": [
        {
          "internalType": "address",
          "name": "",
          "type": "address"
        },
        {
          "internalType": "address",
          "name": "",
          "type": "address"
        },
        {
          "internalType": "uint256[]",
          "name": "",
          "type": "uint256[]"
        },
        {
          "internalType": "uint256[]",
          "name": "",
          "type": "uint256[]"
        },
        {
          "internalType": "bytes",
          "name": "",
          "type": "bytes"
        }
      ],
      "name": "onERC1155BatchReceived",
      "outputs": [
        {
          "internalType": "bytes4",
          "name": "",
          "type": "bytes4"
        }
      ],
      "stateMutability": "nonpayable",
      "type": "function"
    },
    {
      "inputs": [
        {
          "internalType": "address",
          "name": "",
          "type": "address"
        },
        {
          "internalType": "address",
          "name": "",
          "type": "address"
        },
        {
          "internalType": "uint256",
          "name": "",
          "type": "uint256"
        },
        {
          "internalType": "uint256",
          "name": "",
          "type": "uint256"
        },
        {
          "internalType": "bytes",
          "name": "",
          "type": "bytes"
        }
      ],
      "name": "onERC1155Received",
      "outputs": [
        {
          "internalType": "bytes4",
          "name": "",
          "type": "bytes4"
        }
      ],
      "stateMutability": "nonpayable",
      "type": "function"
    },
    {
      "inputs": [
        {
          "internalType": "address",
          "name": "",
          "type": "address"
        },
        {
          "internalType": "address",
          "name": "",
          "type": "address"
        },
        {
          "internalType": "uint256",
          "name": "",
          "type": "uint256"
        },
        {
          "internalType": "bytes",
          "name": "",
          "type": "bytes"
        }
      ],
      "name": "onERC721Received",
      "outputs": [
        {
          "internalType": "bytes4",
          "name": "",
          "type": "bytes4"
        }
      ],
      "stateMutability": "nonpayable",
      "type": "function"
    },
    {
      "inputs": [],
      "name": "owner",
      "outputs": [
        {
          "internalType": "address",
          "name": "",
          "type": "address"
        }
      ],
      "stateMutability": "view",
      "type": "function"
    },
    {
      "inputs": [
        {
          "internalType": "address",
          "name": "_target",
          "type": "address"
        },
        {
          "internalType": "bytes",
          "name": "_data",
          "type": "bytes"
        }
      ],
      "name": "pluginCall",
      "outputs": [
        {
          "internalType": "bool",
          "name": "",
          "type": "bool"
        },
        {
          "internalType": "bytes",
          "name": "",
          "type": "bytes"
        }
      ],
      "stateMutability": "nonpayable",
      "type": "function"
    },
    {
      "inputs": [],
      "name": "rejectTransferOwnership",
      "outputs": [],
      "stateMutability": "nonpayable",
      "type": "function"
    },
    {
      "inputs": [
        {
          "internalType": "address",
          "name": "_plugin",
          "type": "address"
        }
      ],
      "name": "removePlugin",
      "outputs": [],
      "stateMutability": "nonpayable",
      "type": "function"
    },
    {
      "inputs": [
        {
          "internalType": "address",
          "name": "_newOwnerCandidate",
          "type": "address"
        }
      ],
      "name": "requestTransferOwnership",
      "outputs": [],
      "stateMutability": "nonpayable",
      "type": "function"
    },
    {
      "inputs": [
        {
          "internalType": "bytes4",
          "name": "_interfaceId",
          "type": "bytes4"
        }
      ],
      "name": "supportsInterface",
      "outputs": [
        {
          "internalType": "bool",
          "name": "",
          "type": "bool"
        }
      ],
      "stateMutability": "view",
      "type": "function"
    },
    {
      "inputs": [
        {
          "internalType": "address",
          "name": "_nftCollateralWrapper",
          "type": "address"
        },
        {
          "internalType": "address",
          "name": "_nftCollateralContract",
          "type": "address"
        },
        {
          "internalType": "uint256",
          "name": "_nftCollateralId",
          "type": "uint256"
        },
        {
          "internalType": "address",
          "name": "_recipient",
          "type": "address"
        }
      ],
      "name": "unlockCollateral",
      "outputs": [],
      "stateMutability": "nonpayable",
      "type": "function"
    },
    {
      "inputs": [
        {
          "internalType": "address",
          "name": "_tokenAddress",
          "type": "address"
        },
        {
          "internalType": "uint256",
          "name": "_tokenId",
          "type": "uint256"
        },
        {
          "internalType": "address",
          "name": "_receiver",
          "type": "address"
        }
      ],
      "name": "withdrawNFT",
      "outputs": [],
      "stateMutability": "nonpayable",
      "type": "function"
    }
  ],
  "transactionHash": "0x886ba4b72aa3012f5b378e714ebca6b2f6667287d7c9974dbf5aac70c3c8a1c6",
  "args": [
    "0xbeEBCD47B8315B9fFC949318269A329AEb7D97b4",
    "0xFb14c557aF7E732C720b8f46bCeE323d167314A4"
  ],
  "numDeployments": 1,
  "solcInputHash": "bab281e5640fb4f8a58586b3f548739e",
  "bytecode": "0x60a06040523480156200001157600080fd5b5060405162001f1038038062001f108339810160408190526200003491620000c1565b81620000408162000054565b506001600160a01b031660805250620000f9565b600080546001600160a01b038381166001600160a01b0319831681178455604051919092169283917f8be0079c531659141344cd1fd0a4f28419497f9722a3daafe3b4186f6b6457e09190a35050565b80516001600160a01b0381168114620000bc57600080fd5b919050565b60008060408385031215620000d557600080fd5b620000e083620000a4565b9150620000f060208401620000a4565b90509250929050565b608051611de66200012a6000396000818161020401528181610453015281816107000152610c700152611de66000f3fe608060405234801561001057600080fd5b506004361061016b5760003560e01c80637b49f5bf116100cd578063a4d95b6411610081578063d8867fc811610066578063d8867fc8146102fa578063f23a6e611461030d578063fa3eec241461034657600080fd5b8063a4d95b64146102d4578063bc197c81146102e757600080fd5b80638da5cb5b116100b25780638da5cb5b146102a857806392fede00146102b95780639d6fa618146102c157600080fd5b80637b49f5bf146102745780637deba1cf1461028757600080fd5b8063365a86fc116101245780635f992fdd116101095780635f992fdd146102515780636c817965146102595780637b3711071461026c57600080fd5b8063365a86fc146101ff57806336e254971461023e57600080fd5b80630a76e196116101555780630a76e196146101ad578063150b7a02146101c05780632c1d4ec2146101ec57600080fd5b8062f2a6ab1461017057806301ffc9a714610185575b600080fd5b61018361017e3660046117ff565b610389565b005b610198610193366004611841565b6105a1565b60405190151581526020015b60405180910390f35b6101836101bb3660046118fe565b610625565b6101d36101ce36600461199e565b6107f0565b6040516001600160e01b031990911681526020016101a4565b6101836101fa3660046117ff565b610801565b6102267f000000000000000000000000000000000000000000000000000000000000000081565b6040516001600160a01b0390911681526020016101a4565b61018361024c366004611a0a565b61097a565b610183610a2c565b610183610267366004611a3b565b610aa5565b610183610bc9565b610183610282366004611a0a565b610c38565b61029a610295366004611a7c565b610dfe565b6040516101a4929190611b1c565b6000546001600160a01b0316610226565b610183610eb1565b6101836102cf366004611b37565b610f0b565b6101836102e2366004611b37565b611010565b6101d36102f5366004611bdb565b61108b565b610183610308366004611b37565b6110d6565b6101d361031b366004611c9a565b7ff23a6e61000000000000000000000000000000000000000000000000000000009695505050505050565b6101986103543660046117ff565b6001600160a01b0392831660009081526002602090815260408083209483529381528382209290941681529252902054151590565b6000546001600160a01b031633146103e85760405162461bcd60e51b815260206004820181905260248201527f4f776e61626c653a2063616c6c6572206973206e6f7420746865206f776e657260448201526064015b60405180910390fd5b6001600160a01b03831660009081526003602090815260408083208584529091529020541561042a57604051636a32439f60e01b815260040160405180910390fd5b604051631c2d8fb360e31b81526d5045524d49545445445f4e46545360901b60048201526000907f00000000000000000000000000000000000000000000000000000000000000006001600160a01b03169063e16c7d9890602401602060405180830381865afa1580156104a2573d6000803e3d6000fd5b505050506040513d601f19601f820116820180604052508101906104c69190611d16565b6040517fb8c8aff80000000000000000000000000000000000000000000000000000000081526001600160a01b038681166004830152919091169063b8c8aff890602401602060405180830381865afa158015610527573d6000803e3d6000fd5b505050506040513d601f19601f8201168201806040525081019061054b9190611d16565b9050610558818585611154565b61058e576040517ff8e7510e00000000000000000000000000000000000000000000000000000000815260040160405180910390fd5b61059b818585308661121b565b50505050565b60006001600160e01b031982167f4e2312e00000000000000000000000000000000000000000000000000000000014806105eb57506001600160e01b03198216630a85bd0160e11b145b8061061f57506001600160e01b031982167f01ffc9a700000000000000000000000000000000000000000000000000000000145b92915050565b6000546001600160a01b0316331461067f5760405162461bcd60e51b815260206004820181905260248201527f4f776e61626c653a2063616c6c6572206973206e6f7420746865206f776e657260448201526064016103df565b6001600160a01b0383166000908152600360209081526040808320858452909152902054156106c157604051636a32439f60e01b815260040160405180910390fd5b60006106cc856112c7565b604051631c2d8fb360e31b81526d5045524d49545445445f4e46545360901b60048201529091506000906001600160a01b037f0000000000000000000000000000000000000000000000000000000000000000169063e16c7d9890602401602060405180830381865afa158015610747573d6000803e3d6000fd5b505050506040513d601f19601f8201168201806040525081019061076b9190611d16565b6001600160a01b0316631a3dd0a5836040518263ffffffff1660e01b815260040161079891815260200190565b602060405180830381865afa1580156107b5573d6000803e3d6000fd5b505050506040513d601f19601f820116820180604052508101906107d99190611d16565b90506107e8818686308761121b565b505050505050565b630a85bd0160e11b5b949350505050565b6000546001600160a01b0316331461085b5760405162461bcd60e51b815260206004820181905260248201527f4f776e61626c653a2063616c6c6572206973206e6f7420746865206f776e657260448201526064016103df565b6001600160a01b03831660009081526003602090815260408083208584529091529020541561089d57604051636a32439f60e01b815260040160405180910390fd5b6040517f70a0823100000000000000000000000000000000000000000000000000000000815230600482015283906000906001600160a01b038316906370a0823190602401602060405180830381865afa1580156108ff573d6000803e3d6000fd5b505050506040513d601f19601f820116820180604052508101906109239190611d33565b90508060000361095f576040517f6d672af900000000000000000000000000000000000000000000000000000000815260040160405180910390fd5b6109736001600160a01b0383168486611323565b5050505050565b6001600160a01b038316600090815260026020908152604080832085845282528083203384529091528120548491849190036109c957604051636374b7a760e11b815260040160405180910390fd5b6109d38585611393565b6109e0868686308761121b565b6040513381526001600160a01b038085169186918816907f9abe13faa6aaae81ab2cd561cc29d1d0fafec53dca1f0d553a759be6f8fb0d749060200160405180910390a4505050505050565b6001546001600160a01b03163314610a865760405162461bcd60e51b815260206004820152601c60248201527f4f776e61626c653a206e6f74206f776e65722063616e6469646174650000000060448201526064016103df565b6001805473ffffffffffffffffffffffffffffffffffffffff19169055565b6001600160a01b03821660009081526002602090815260408083208484528252808320338452909152812054839183919003610af457604051636374b7a760e11b815260040160405180910390fd5b6001600160a01b038416600090815260026020908152604080832086845282528083203384529091528120805460019290610b30908490611d62565b90915550506001600160a01b03808516600090815260026020908152604080832087845282528083209389168352929052908120805460019290610b75908490611d75565b9091555050604080513381526001600160a01b0387811660208301528592908716917f74328a3c2ab7afcb5773532d342940a2df414b9866cac572f01ec5e65ea6bd29910160405180910390a35050505050565b6001546001600160a01b03163314610c235760405162461bcd60e51b815260206004820152601c60248201527f4f776e61626c653a206e6f74206f776e65722063616e6469646174650000000060448201526064016103df565b600154610a86906001600160a01b0316611411565b604051631c2d8fb360e31b81527f4c4f414e5f434f4f5244494e41544f520000000000000000000000000000000060048201526000907f00000000000000000000000000000000000000000000000000000000000000006001600160a01b03169063e16c7d9890602401602060405180830381865afa158015610cbf573d6000803e3d6000fd5b505050506040513d601f19601f82011682018060405250810190610ce39190611d16565b6040517f78a7fa670000000000000000000000000000000000000000000000000000000081523360048201526001600160a01b0391909116906378a7fa6790602401602060405180830381865afa158015610d42573d6000803e3d6000fd5b505050506040513d601f19601f82011682018060405250810190610d669190611d33565b03610d9d576040517f5fb3e02f00000000000000000000000000000000000000000000000000000000815260040160405180910390fd5b610da7838361146e565b610db4848484843061121b565b6040513381526001600160a01b038083169184918616907fb5f411fa3c897c9b0b6cd61852278a67e73d885610724a5610a8580d3e94cfdb9060200160405180910390a450505050565b3360009081526004602052604081205460609060ff16610e4a576040517ff4d1650600000000000000000000000000000000000000000000000000000000815260040160405180910390fd5b836001600160a01b031683604051610e629190611d88565b6000604051808303816000865af19150503d8060008114610e9f576040519150601f19603f3d011682016040523d82523d6000602084013e610ea4565b606091505b50915091505b9250929050565b6000546001600160a01b03163314610a865760405162461bcd60e51b815260206004820181905260248201527f4f776e61626c653a2063616c6c6572206973206e6f7420746865206f776e657260448201526064016103df565b6000546001600160a01b03163314610f655760405162461bcd60e51b815260206004820181905260248201527f4f776e61626c653a2063616c6c6572206973206e6f7420746865206f776e657260448201526064016103df565b6001600160a01b038116610fe15760405162461bcd60e51b815260206004820152602660248201527f4f776e61626c653a206e6577206f776e657220697320746865207a65726f206160448201527f646472657373000000000000000000000000000000000000000000000000000060648201526084016103df565b6001805473ffffffffffffffffffffffffffffffffffffffff19166001600160a01b0392909216919091179055565b6000546001600160a01b0316331461106a5760405162461bcd60e51b815260206004820181905260248201527f4f776e61626c653a2063616c6c6572206973206e6f7420746865206f776e657260448201526064016103df565b6001600160a01b03166000908152600460205260409020805460ff19169055565b60405162461bcd60e51b815260206004820152601b60248201527f45524331313535206261746368206e6f7420737570706f72746564000000000060448201526000906064016103df565b6000546001600160a01b031633146111305760405162461bcd60e51b815260206004820181905260248201527f4f776e61626c653a2063616c6c6572206973206e6f7420746865206f776e657260448201526064016103df565b6001600160a01b03166000908152600460205260409020805460ff19166001179055565b604080513060248201526001600160a01b038416604482015260648082018490528251808303909101815260849091018252602080820180516001600160e01b03167ff370e8c5000000000000000000000000000000000000000000000000000000001790528251808401909352601683527f4f776e65727368697020636865636b206661696c6564000000000000000000009083015260009182916111fc918791906114e3565b9050808060200190518101906112129190611da4565b95945050505050565b604080516001600160a01b03848116602483015283811660448301528616606482015260848082018690528251808303909101815260a49091018252602080820180516001600160e01b03167fb03066710000000000000000000000000000000000000000000000000000000017905282518084019093528083527f4e4654206e6f74207375636365737366756c6c79207472616e73666572726564908301526107e8918791906114e3565b600060208251111561131b5760405162461bcd60e51b815260206004820152600b60248201527f696e76616c6964206b657900000000000000000000000000000000000000000060448201526064016103df565b506020015190565b604080516001600160a01b038416602482015260448082018490528251808303909101815260649091019091526020810180516001600160e01b03167fa9059cbb0000000000000000000000000000000000000000000000000000000017905261138e90849061155b565b505050565b6001600160a01b0382166000908152600260209081526040808320848452825280832033845290915281208054600192906113cf908490611d62565b90915550506001600160a01b03821660009081526003602090815260408083208484529091528120805460019290611408908490611d62565b90915550505050565b600080546001600160a01b0383811673ffffffffffffffffffffffffffffffffffffffff19831681178455604051919092169283917f8be0079c531659141344cd1fd0a4f28419497f9722a3daafe3b4186f6b6457e09190a35050565b6001600160a01b0382166000908152600260209081526040808320848452825280832033845290915281208054600192906114aa908490611d75565b90915550506001600160a01b03821660009081526003602090815260408083208484529091528120805460019290611408908490611d75565b6060600080856001600160a01b0316856040516115009190611d88565b600060405180830381855af49150503d806000811461153b576040519150601f19603f3d011682016040523d82523d6000602084013e611540565b606091505b509150915061155186838387611643565b9695505050505050565b60006115b0826040518060400160405280602081526020017f5361666545524332303a206c6f772d6c6576656c2063616c6c206661696c6564815250856001600160a01b03166116bc9092919063ffffffff16565b90508051600014806115d15750808060200190518101906115d19190611da4565b61138e5760405162461bcd60e51b815260206004820152602a60248201527f5361666545524332303a204552433230206f7065726174696f6e20646964206e60448201527f6f7420737563636565640000000000000000000000000000000000000000000060648201526084016103df565b606083156116b25782516000036116ab576001600160a01b0385163b6116ab5760405162461bcd60e51b815260206004820152601d60248201527f416464726573733a2063616c6c20746f206e6f6e2d636f6e747261637400000060448201526064016103df565b50816107f9565b6107f983836116cb565b60606107f984846000856116f5565b8151156116db5781518083602001fd5b8060405162461bcd60e51b81526004016103df9190611dc6565b60608247101561176d5760405162461bcd60e51b815260206004820152602660248201527f416464726573733a20696e73756666696369656e742062616c616e636520666f60448201527f722063616c6c000000000000000000000000000000000000000000000000000060648201526084016103df565b600080866001600160a01b031685876040516117899190611d88565b60006040518083038185875af1925050503d80600081146117c6576040519150601f19603f3d011682016040523d82523d6000602084013e6117cb565b606091505b50915091506117dc87838387611643565b979650505050505050565b6001600160a01b03811681146117fc57600080fd5b50565b60008060006060848603121561181457600080fd5b833561181f816117e7565b9250602084013591506040840135611836816117e7565b809150509250925092565b60006020828403121561185357600080fd5b81356001600160e01b03198116811461186b57600080fd5b9392505050565b634e487b7160e01b600052604160045260246000fd5b600067ffffffffffffffff808411156118a3576118a3611872565b604051601f8501601f19908116603f011681019082821181831017156118cb576118cb611872565b816040528093508581528686860111156118e457600080fd5b858560208301376000602087830101525050509392505050565b6000806000806080858703121561191457600080fd5b843567ffffffffffffffff81111561192b57600080fd5b8501601f8101871361193c57600080fd5b61194b87823560208401611888565b945050602085013561195c816117e7565b9250604085013591506060850135611973816117e7565b939692955090935050565b600082601f83011261198f57600080fd5b61186b83833560208501611888565b600080600080608085870312156119b457600080fd5b84356119bf816117e7565b935060208501356119cf816117e7565b925060408501359150606085013567ffffffffffffffff8111156119f257600080fd5b6119fe8782880161197e565b91505092959194509250565b60008060008060808587031215611a2057600080fd5b8435611a2b816117e7565b9350602085013561195c816117e7565b600080600060608486031215611a5057600080fd5b8335611a5b816117e7565b92506020840135611a6b816117e7565b929592945050506040919091013590565b60008060408385031215611a8f57600080fd5b8235611a9a816117e7565b9150602083013567ffffffffffffffff811115611ab657600080fd5b611ac28582860161197e565b9150509250929050565b60005b83811015611ae7578181015183820152602001611acf565b50506000910152565b60008151808452611b08816020860160208601611acc565b601f01601f19169290920160200192915050565b82151581526040602082015260006107f96040830184611af0565b600060208284031215611b4957600080fd5b813561186b816117e7565b60008083601f840112611b6657600080fd5b50813567ffffffffffffffff811115611b7e57600080fd5b6020830191508360208260051b8501011115610eaa57600080fd5b60008083601f840112611bab57600080fd5b50813567ffffffffffffffff811115611bc357600080fd5b602083019150836020828501011115610eaa57600080fd5b60008060008060008060008060a0898b031215611bf757600080fd5b8835611c02816117e7565b97506020890135611c12816117e7565b9650604089013567ffffffffffffffff80821115611c2f57600080fd5b611c3b8c838d01611b54565b909850965060608b0135915080821115611c5457600080fd5b611c608c838d01611b54565b909650945060808b0135915080821115611c7957600080fd5b50611c868b828c01611b99565b999c989b5096995094979396929594505050565b60008060008060008060a08789031215611cb357600080fd5b8635611cbe816117e7565b95506020870135611cce816117e7565b94506040870135935060608701359250608087013567ffffffffffffffff811115611cf857600080fd5b611d0489828a01611b99565b979a9699509497509295939492505050565b600060208284031215611d2857600080fd5b815161186b816117e7565b600060208284031215611d4557600080fd5b5051919050565b634e487b7160e01b600052601160045260246000fd5b8181038181111561061f5761061f611d4c565b8082018082111561061f5761061f611d4c565b60008251611d9a818460208701611acc565b9190910192915050565b600060208284031215611db657600080fd5b8151801515811461186b57600080fd5b60208152600061186b6020830184611af056fea164736f6c6343000813000a",
  "libraries": {
    "ContractKeys": "0x9F3795222F77599520c2cA67529Dd9810eC6c1F3"
  },
  "devdoc": {
    "author": "NFTfi",
    "kind": "dev",
    "methods": {
      "addPlugin(address)": {
        "params": {
          "_plugin": "address of the plugin"
        }
      },
      "constructor": {
        "params": {
          "_admin": "- Initial admin of this contract."
        }
      },
      "drainERC20Airdrop(address,uint256,address)": {
        "params": {
          "_receiver": "- receiver of the token",
          "_tokenAddress": "- address of the token contract for the token to be sent out"
        }
      },
      "drainNFT(string,address,uint256,address)": {
        "params": {
          "_nftType": "- nft type key which is sourced from nftfi hub",
          "_receiver": "- receiver of the token",
          "_tokenAddress": "- address of the token contract for the token to be sent out",
          "_tokenId": "- id token to be sent out"
        }
      },
      "isInEscrowWithLoan(address,uint256,address)": {
        "params": {
          "_loan": "- Address of the loan contract.",
          "_nftCollateralContract": "- Address of the NFT collateral contract.",
          "_nftCollateralId": "- ID of the NFT collateral."
        },
        "returns": {
          "_0": "bool - True if the NFT is in escrow with the loan, false otherwise."
        }
      },
      "lockCollateral(address,address,uint256,address)": {
        "params": {
          "_borrower": "- Address of the borrower.",
          "_nftCollateralContract": "- Address of the NFT collateral contract.",
          "_nftCollateralId": "- ID of the NFT collateral.",
          "_nftCollateralWrapper": "- Address of the NFT wrapper contract."
        }
      },
      "onERC1155BatchReceived(address,address,uint256[],uint256[],bytes)": {
        "details": "Handles the receipt of a multiple ERC1155 token types. This function is called at the end of a `safeBatchTransferFrom` after the balances have been updated.",
        "returns": {
          "_0": "`bytes4(keccak256(\"onERC1155BatchReceived(address,address,uint256[],uint256[],bytes)\"))` if allowed"
        }
      },
      "onERC1155Received(address,address,uint256,uint256,bytes)": {
        "details": "Handles the receipt of a single ERC1155 token type. This function is called at the end of a `safeTransferFrom` after the balance has been updated.",
        "returns": {
          "_0": "`bytes4(keccak256(\"onERC1155Received(address,address,uint256,uint256,bytes)\"))` if allowed"
        }
      },
      "onERC721Received(address,address,uint256,bytes)": {
        "details": "See {IERC721Receiver-onERC721Received}. Always returns `IERC721Receiver.onERC721Received.selector`."
      },
      "owner()": {
        "details": "Returns the address of the current owner."
      },
      "removePlugin(address)": {
        "params": {
          "_plugin": "address of the plugin"
        }
      },
      "requestTransferOwnership(address)": {
        "details": "Requests transferring ownership of the contract to a new account (`_newOwnerCandidate`). Can only be called by the current owner."
      },
      "supportsInterface(bytes4)": {
        "details": "Checks whether this contract implements the interface defined by `interfaceId`.",
        "params": {
          "_interfaceId": "Id of the interface"
        },
        "returns": {
          "_0": "true if this contract implements the interface"
        }
      },
      "unlockCollateral(address,address,uint256,address)": {
        "params": {
          "_nftCollateralContract": "- Address of the NFT collateral contract.",
          "_nftCollateralId": "- ID of the NFT collateral.",
          "_nftCollateralWrapper": "- Address of the NFT wrapper contract.",
          "_recipient": "- Address of the recipient."
        }
      },
      "withdrawNFT(address,uint256,address)": {
        "params": {
          "_receiver": "- receiver of the token",
          "_tokenAddress": "- address of the token contract for the token to be sent out",
          "_tokenId": "- id token to be sent out"
        }
      }
    },
    "stateVariables": {
      "_escrowTokens": {
        "details": "keeps track of tokens being held as loan collateral, so we dont allow these to be transferred with the aridrop draining functions nft contract address => nft id => amount (in case of 1155)"
      }
    },
    "title": "Escrow",
    "version": 1
  },
  "userdoc": {
    "kind": "user",
    "methods": {
      "addPlugin(address)": {
        "notice": "Admin function for adding a plugin that can make an arbitrary function call WARNING! serious security implications! plugins can move the collateral"
      },
      "constructor": {
        "notice": "Sets the admin of the contract."
      },
      "drainERC20Airdrop(address,uint256,address)": {
        "notice": "used by the owner account to be able to drain sturck ERC20 tokens for revenue share for the locked  collateral NFT-s"
      },
      "drainNFT(string,address,uint256,address)": {
        "notice": "used by the owner account to be able to drain stuck or airdropped NFTs a check prevents draining collateral"
      },
      "isInEscrowWithLoan(address,uint256,address)": {
        "notice": "Checks if a collateral NFT is in escrow with a specific loan."
      },
      "lockCollateral(address,address,uint256,address)": {
        "notice": "Locks collateral NFT for a loan."
      },
      "removePlugin(address)": {
        "notice": "Admin function for removing a plugin that can make an arbitrary function call"
      },
      "unlockCollateral(address,address,uint256,address)": {
        "notice": "Unlocks collateral NFT for a loan."
      },
      "withdrawNFT(address,uint256,address)": {
        "notice": "used by the owner account to be able to drain any tokens used as collateral that is not locked in a loan"
      }
    },
    "notice": "Protocol wide escrow contract for NFT collateral used when a user doen't have a personal escrow deployed*",
    "version": 1
  },
  "storageLayout": {
    "storage": [
      {
        "astId": 25956,
        "contract": "contracts/escrow/Escrow.sol:Escrow",
        "label": "_owner",
        "offset": 0,
        "slot": "0",
        "type": "t_address"
      },
      {
        "astId": 25958,
        "contract": "contracts/escrow/Escrow.sol:Escrow",
        "label": "_ownerCandidate",
        "offset": 0,
        "slot": "1",
        "type": "t_address"
      },
      {
        "astId": 9632,
        "contract": "contracts/escrow/Escrow.sol:Escrow",
        "label": "_tokensLockedByLoan",
        "offset": 0,
        "slot": "2",
        "type": "t_mapping(t_address,t_mapping(t_uint256,t_mapping(t_address,t_uint256)))"
      },
      {
        "astId": 9639,
        "contract": "contracts/escrow/Escrow.sol:Escrow",
        "label": "_escrowTokens",
        "offset": 0,
        "slot": "3",
        "type": "t_mapping(t_address,t_mapping(t_uint256,t_uint256))"
      },
      {
        "astId": 9643,
        "contract": "contracts/escrow/Escrow.sol:Escrow",
        "label": "plugins",
        "offset": 0,
        "slot": "4",
        "type": "t_mapping(t_address,t_bool)"
      }
    ],
    "types": {
      "t_address": {
        "encoding": "inplace",
        "label": "address",
        "numberOfBytes": "20"
      },
      "t_bool": {
        "encoding": "inplace",
        "label": "bool",
        "numberOfBytes": "1"
      },
      "t_mapping(t_address,t_bool)": {
        "encoding": "mapping",
        "key": "t_address",
        "label": "mapping(address => bool)",
        "numberOfBytes": "32",
        "value": "t_bool"
      },
      "t_mapping(t_address,t_mapping(t_uint256,t_mapping(t_address,t_uint256)))": {
        "encoding": "mapping",
        "key": "t_address",
        "label": "mapping(address => mapping(uint256 => mapping(address => uint256)))",
        "numberOfBytes": "32",
        "value": "t_mapping(t_uint256,t_mapping(t_address,t_uint256))"
      },
      "t_mapping(t_address,t_mapping(t_uint256,t_uint256))": {
        "encoding": "mapping",
        "key": "t_address",
        "label": "mapping(address => mapping(uint256 => uint256))",
        "numberOfBytes": "32",
        "value": "t_mapping(t_uint256,t_uint256)"
      },
      "t_mapping(t_address,t_uint256)": {
        "encoding": "mapping",
        "key": "t_address",
        "label": "mapping(address => uint256)",
        "numberOfBytes": "32",
        "value": "t_uint256"
      },
      "t_mapping(t_uint256,t_mapping(t_address,t_uint256))": {
        "encoding": "mapping",
        "key": "t_uint256",
        "label": "mapping(uint256 => mapping(address => uint256))",
        "numberOfBytes": "32",
        "value": "t_mapping(t_address,t_uint256)"
      },
      "t_mapping(t_uint256,t_uint256)": {
        "encoding": "mapping",
        "key": "t_uint256",
        "label": "mapping(uint256 => uint256)",
        "numberOfBytes": "32",
        "value": "t_uint256"
      },
      "t_uint256": {
        "encoding": "inplace",
        "label": "uint256",
        "numberOfBytes": "32"
      }
    }
  }
}