{
  "address": "0x389f8380dA80a48046e47A71F6518f0466898365",
  "abi": [
    {
      "inputs": [
        {
          "components": [
            {
              "internalType": "uint256",
              "name": "loanPrincipalAmount",
              "type": "uint256"
            },
            {
              "internalType": "uint256",
              "name": "maximumRepaymentAmount",
              "type": "uint256"
            },
            {
              "internalType": "uint256",
              "name": "nftCollateralId",
              "type": "uint256"
            },
            {
              "internalType": "address",
              "name": "nftCollateralContract",
              "type": "address"
            },
            {
              "internalType": "uint32",
              "name": "loanDuration",
              "type": "uint32"
            },
            {
              "internalType": "address",
              "name": "loanERC20Denomination",
              "type": "address"
            },
            {
              "internalType": "bool",
              "name": "isProRata",
              "type": "bool"
            },
            {
              "internalType": "uint256",
              "name": "originationFee",
              "type": "uint256"
            }
          ],
          "internalType": "struct LoanData.Offer",
          "name": "_offer",
          "type": "tuple"
        },
        {
          "components": [
            {
              "internalType": "uint256",
              "name": "minId",
              "type": "uint256"
            },
            {
              "internalType": "uint256",
              "name": "maxId",
              "type": "uint256"
            }
          ],
          "internalType": "struct LoanData.CollectionIdRange",
          "name": "_idRange",
          "type": "tuple"
        },
        {
          "components": [
            {
              "internalType": "uint256",
              "name": "nonce",
              "type": "uint256"
            },
            {
              "internalType": "uint256",
              "name": "expiry",
              "type": "uint256"
            },
            {
              "internalType": "address",
              "name": "signer",
              "type": "address"
            },
            {
              "internalType": "bytes",
              "name": "signature",
              "type": "bytes"
            }
          ],
          "internalType": "struct LoanData.Signature",
          "name": "_signature",
          "type": "tuple"
        },
        {
          "internalType": "bytes32",
          "name": "_offerType",
          "type": "bytes32"
        }
      ],
      "name": "isValidLenderSignatureWithIdRange",
      "outputs": [
        {
          "internalType": "bool",
          "name": "",
          "type": "bool"
        }
      ],
      "stateMutability": "view",
      "type": "function"
    }
  ],
  "transactionHash": "0x2ea80dcf8cfc5ef7699be3e42f53ac6e3ae2e6807c586ef3b5af895ac65d6281",
  "args": [],
  "numDeployments": 1,
  "solcInputHash": "cdbc1a46e3194a9fe8906be4ba3ca6d0",
  "bytecode": "0x608060405234801561001057600080fd5b50610926806100206000396000f3fe608060405234801561001057600080fd5b506004361061002b5760003560e01c8063b787760914610030575b600080fd5b61004361003e366004610733565b610057565b604051901515815260200160405180910390f35b600061006585858585610070565b90505b949350505050565b600082602001514211156100e4576040517f08c379a000000000000000000000000000000000000000000000000000000000815260206004820152601c60248201527f4c656e646572205369676e617475726520686173206578706972656400000000604482015260640160405180910390fd5b60408301516001600160a01b03166100fe57506000610068565b6000610109866101bf565b8551602080880151604051610128939201918252602082015260400190565b6040516020818303038152906040526101408661027c565b8546604051602001610156959493929190610846565b6040516020818303038152906040528051906020012090506101b784604001516101ad837f19457468657265756d205369676e6564204d6573736167653a0a3332000000006000908152601c91909152603c902090565b86606001516102c4565b915050610068565b60a08101518151602080840151606080860151604080880151608089015160c08a015160e0808c015194519a871b6bffffffffffffffffffffffff19908116998c019990995260348b019990995260548a019690965292841b9095166074880152608887019490945290931b7fffffffff000000000000000000000000000000000000000000000000000000001660a8850152151560f81b60ac84015260ad8301529060cd015b6040516020818303038152906040529050919050565b60608160400151826000015183602001516040516020016102669392919060609390931b6bffffffffffffffffffffffff191683526014830191909152603482015260540190565b60008060006102d38585610325565b909250905060008160048111156102ec576102ec610894565b14801561030a5750856001600160a01b0316826001600160a01b0316145b8061031b575061031b86868661036a565b9695505050505050565b600080825160410361035b5760208301516040840151606085015160001a61034f8782858561049c565b94509450505050610363565b506000905060025b9250929050565b6000806000856001600160a01b0316631626ba7e60e01b86866040516024016103949291906108aa565b60408051601f198184030181529181526020820180517bffffffffffffffffffffffffffffffffffffffffffffffffffffffff167fffffffff000000000000000000000000000000000000000000000000000000009094169390931790925290516103ff91906108e4565b600060405180830381855afa9150503d806000811461043a576040519150601f19603f3d011682016040523d82523d6000602084013e61043f565b606091505b509150915081801561045357506020815110155b801561031b575080517f1626ba7e00000000000000000000000000000000000000000000000000000000906104919083016020908101908401610900565b149695505050505050565b6000807f7fffffffffffffffffffffffffffffff5d576e7357a4501ddfe92f46681b20a08311156104d35750600090506003610557565b6040805160008082526020820180845289905260ff881692820192909252606081018690526080810185905260019060a0016020604051602081039080840390855afa158015610527573d6000803e3d6000fd5b5050604051601f1901519150506001600160a01b03811661055057600060019250925050610557565b9150600090505b94509492505050565b634e487b7160e01b600052604160045260246000fd5b6040516080810167ffffffffffffffff8111828210171561059957610599610560565b60405290565b604051610100810167ffffffffffffffff8111828210171561059957610599610560565b604051601f8201601f1916810167ffffffffffffffff811182821017156105ec576105ec610560565b604052919050565b80356001600160a01b038116811461060b57600080fd5b919050565b8035801515811461060b57600080fd5b60006040828403121561063257600080fd5b6040516040810181811067ffffffffffffffff8211171561065557610655610560565b604052823581526020928301359281019290925250919050565b60006080828403121561068157600080fd5b610689610576565b905081358152602080830135818301526106a5604084016105f4565b6040830152606083013567ffffffffffffffff808211156106c557600080fd5b818501915085601f8301126106d957600080fd5b8135818111156106eb576106eb610560565b6106fd601f8201601f191685016105c3565b9150808252868482850101111561071357600080fd5b808484018584013760008482840101525080606085015250505092915050565b60008060008084860361018081121561074b57600080fd5b6101008082121561075b57600080fd5b61076361059f565b9150863582526020870135602083015260408701356040830152610789606088016105f4565b6060830152608087013563ffffffff811681146107a557600080fd5b60808301526107b660a088016105f4565b60a08301526107c760c08801610610565b60c083015260e087013560e08301528195506107e588828901610620565b9450505061014085013567ffffffffffffffff81111561080457600080fd5b6108108782880161066f565b94979396509394610160013593505050565b60005b8381101561083d578181015183820152602001610825565b50506000910152565b60008651610858818460208b01610822565b86519083019061086c818360208b01610822565b865191019061087f818360208a01610822565b01938452505060208201526040019392505050565b634e487b7160e01b600052602160045260246000fd5b82815260406020820152600082518060408401526108cf816060850160208701610822565b601f01601f1916919091016060019392505050565b600082516108f6818460208701610822565b9190910192915050565b60006020828403121561091257600080fd5b505191905056fea164736f6c6343000813000a",
  "devdoc": {
    "author": "NFTfi",
    "kind": "dev",
    "methods": {
      "isValidLenderSignatureWithIdRange((uint256,uint256,uint256,address,uint32,address,bool,uint256),(uint256,uint256),(uint256,uint256,address,bytes),bytes32)": {
        "details": "This function overload the previous function to allow the caller to specify the address of the contract"
      }
    },
    "title": "NFTfiCollectionOfferSigningUtilsContract",
    "version": 1
  },
  "userdoc": {
    "kind": "user",
    "methods": {},
    "notice": "Helper contract for NFTfi. This contract manages verifying signatures from off-chain NFTfi orders. Based on the version of this same contract used on NFTfi V1",
    "version": 1
  },
  "storageLayout": {
    "storage": [],
    "types": null
  }
}