{
  "address": "0x6Addd7dEA9AB5A268425bA643283b338D2F80E7B",
  "abi": [
    {
      "inputs": [],
      "name": "transferBorrowerRoleFailed",
      "type": "error"
    },
    {
      "inputs": [],
      "name": "BASIS_POINTS_DENOMINATOR",
      "outputs": [
        {
          "internalType": "uint256",
          "name": "",
          "type": "uint256"
        }
      ],
      "stateMutability": "view",
      "type": "function"
    },
    {
      "inputs": [],
      "name": "INTEREST_RATE_DENOMINATOR",
      "outputs": [
        {
          "internalType": "uint256",
          "name": "",
          "type": "uint256"
        }
      ],
      "stateMutability": "view",
      "type": "function"
    },
    {
      "inputs": [
        {
          "internalType": "address",
          "name": "_loanContract",
          "type": "address"
        },
        {
          "internalType": "uint256",
          "name": "_loanIdentifier",
          "type": "uint256"
        }
      ],
      "name": "getBorrowerAddress",
      "outputs": [
        {
          "internalType": "address",
          "name": "",
          "type": "address"
        }
      ],
      "stateMutability": "view",
      "type": "function"
    },
    {
      "inputs": [
        {
          "internalType": "address",
          "name": "_loanContract",
          "type": "address"
        },
        {
          "internalType": "uint256",
          "name": "_loanIdentifier",
          "type": "uint256"
        }
      ],
      "name": "getCollateral",
      "outputs": [
        {
          "internalType": "address",
          "name": "",
          "type": "address"
        },
        {
          "internalType": "uint256",
          "name": "",
          "type": "uint256"
        }
      ],
      "stateMutability": "view",
      "type": "function"
    },
    {
      "inputs": [
        {
          "internalType": "uint256",
          "name": "principal",
          "type": "uint256"
        },
        {
          "internalType": "uint256",
          "name": "proratedInterestRate",
          "type": "uint256"
        }
      ],
      "name": "getInterestAmount",
      "outputs": [
        {
          "internalType": "uint256",
          "name": "",
          "type": "uint256"
        }
      ],
      "stateMutability": "pure",
      "type": "function"
    },
    {
      "inputs": [
        {
          "internalType": "address",
          "name": "_loanContract",
          "type": "address"
        },
        {
          "internalType": "uint256",
          "name": "_loanIdentifier",
          "type": "uint256"
        }
      ],
      "name": "getPayoffDetails",
      "outputs": [
        {
          "internalType": "address",
          "name": "",
          "type": "address"
        },
        {
          "internalType": "uint256",
          "name": "",
          "type": "uint256"
        }
      ],
      "stateMutability": "view",
      "type": "function"
    },
    {
      "inputs": [
        {
          "internalType": "address",
          "name": "_loanContract",
          "type": "address"
        },
        {
          "internalType": "uint256",
          "name": "_loanIdentifier",
          "type": "uint256"
        },
        {
          "internalType": "address",
          "name": "_payBackToken",
          "type": "address"
        },
        {
          "internalType": "uint256",
          "name": "_payBackAmount",
          "type": "uint256"
        }
      ],
      "name": "payOffRefinancable",
      "outputs": [
        {
          "internalType": "bool",
          "name": "",
          "type": "bool"
        }
      ],
      "stateMutability": "nonpayable",
      "type": "function"
    },
    {
      "inputs": [],
      "name": "repaymentController",
      "outputs": [
        {
          "internalType": "address",
          "name": "",
          "type": "address"
        }
      ],
      "stateMutability": "view",
      "type": "function"
    },
    {
      "inputs": [
        {
          "internalType": "address",
          "name": "_loanContract",
          "type": "address"
        },
        {
          "internalType": "uint256",
          "name": "_loanIdentifier",
          "type": "uint256"
        }
      ],
      "name": "transferBorrowerRole",
      "outputs": [
        {
          "internalType": "bool",
          "name": "",
          "type": "bool"
        }
      ],
      "stateMutability": "nonpayable",
      "type": "function"
    }
  ],
  "transactionHash": "0x56e857aec8a84cd49cd125a93635717ad24f45867479fa569a887f4b887d3760",
  "args": [],
  "numDeployments": 1,
  "solcInputHash": "7e8ec3a88d600f75f08e1b047d7f61d1",
  "bytecode": "0x608060405234801561001057600080fd5b50610a9b806100206000396000f3fe608060405234801561001057600080fd5b50600436106100a35760003560e01c80638d7f278411610076578063cc3266e81161005b578063cc3266e814610174578063cfa498a314610183578063e29b9d0a1461018c57600080fd5b80638d7f27841461013e578063a4d160e31461016157600080fd5b806310b29fee146100a857806358024fce146100df5780637da9f018146100f257806384d2b81c1461011d575b600080fd5b6100bb6100b6366004610741565b6101a7565b604080516001600160a01b0390931683526020830191909152015b60405180910390f35b6100bb6100ed366004610741565b61026a565b610105610100366004610741565b6102fb565b6040516001600160a01b0390911681526020016100d6565b61013061012b36600461076d565b6103d6565b6040519081526020016100d6565b61015161014c36600461078f565b610400565b60405190151581526020016100d6565b61015161016f366004610741565b61051a565b610130670de0b6b3a764000081565b61013061271081565b6101057374241e1a9c021643289476426b9b70229ab40d5381565b6000806000846001600160a01b031663504006ca856040518263ffffffff1660e01b81526004016101da91815260200190565b6101a060405180830381865afa1580156101f8573d6000803e3d6000fd5b505050506040513d601f19601f8201168201806040525081019061021c91906108fb565b9050600061023a8260400151602001518360400151600001516103d6565b905060008260400151602001518261025291906109fc565b60409093015160a00151945091925050509250929050565b6000806000846001600160a01b031663504006ca856040518263ffffffff1660e01b815260040161029d91815260200190565b6101a060405180830381865afa1580156102bb573d6000803e3d6000fd5b505050506040513d601f19601f820116820180604052508101906102df91906108fb565b6040908101519081015160809091015190969095509350505050565b6000826001600160a01b031663bf848f816040518163ffffffff1660e01b8152600401602060405180830381865afa15801561033b573d6000803e3d6000fd5b505050506040513d601f19601f8201168201806040525081019061035f9190610a0f565b6001600160a01b0316636352211e836040518263ffffffff1660e01b815260040161038c91815260200190565b602060405180830381865afa1580156103a9573d6000803e3d6000fd5b505050506040513d601f19601f820116820180604052508101906103cd9190610a0f565b90505b92915050565b60006103ec612710670de0b6b3a7640000610a33565b6103f68385610a33565b6103cd9190610a4a565b6040517f095ea7b30000000000000000000000000000000000000000000000000000000081526001600160a01b038581166004830152602482018390526000919084169063095ea7b3906044016020604051808303816000875af115801561046c573d6000803e3d6000fd5b505050506040513d601f19601f820116820180604052508101906104909190610a6c565b506040517f371fd8e6000000000000000000000000000000000000000000000000000000008152600481018590527374241e1a9c021643289476426b9b70229ab40d539063371fd8e690602401600060405180830381600087803b1580156104f757600080fd5b505af115801561050b573d6000803e3d6000fd5b50600198975050505050505050565b600080836001600160a01b031663bf848f816040518163ffffffff1660e01b8152600401602060405180830381865afa15801561055b573d6000803e3d6000fd5b505050506040513d601f19601f8201168201806040525081019061057f9190610a0f565b6040516331a9108f60e11b8152600481018590529091506000906001600160a01b03831690636352211e90602401602060405180830381865afa1580156105ca573d6000803e3d6000fd5b505050506040513d601f19601f820116820180604052508101906105ee9190610a0f565b6040517f23b872dd0000000000000000000000000000000000000000000000000000000081526001600160a01b03808316600483015230602483015260448201879052919250908316906323b872dd90606401600060405180830381600087803b15801561065b57600080fd5b505af115801561066f573d6000803e3d6000fd5b50506040516331a9108f60e11b8152600481018790523092506001600160a01b0385169150636352211e90602401602060405180830381865afa1580156106ba573d6000803e3d6000fd5b505050506040513d601f19601f820116820180604052508101906106de9190610a0f565b6001600160a01b03161461071e576040517f7e676e6e00000000000000000000000000000000000000000000000000000000815260040160405180910390fd5b506001949350505050565b6001600160a01b038116811461073e57600080fd5b50565b6000806040838503121561075457600080fd5b823561075f81610729565b946020939093013593505050565b6000806040838503121561078057600080fd5b50508035926020909101359150565b600080600080608085870312156107a557600080fd5b84356107b081610729565b93506020850135925060408501356107c781610729565b9396929550929360600135925050565b6040516080810167ffffffffffffffff8111828210171561080857634e487b7160e01b600052604160045260246000fd5b60405290565b604051610100810167ffffffffffffffff8111828210171561080857634e487b7160e01b600052604160045260246000fd5b805161084b81610729565b919050565b80516bffffffffffffffffffffffff8116811461084b57600080fd5b805161ffff8116811461084b57600080fd5b60006060828403121561089057600080fd5b6040516060810181811067ffffffffffffffff821117156108c157634e487b7160e01b600052604160045260246000fd5b6040529050806108d08361086c565b81526108de6020840161086c565b60208201526108ef6040840161086c565b60408201525092915050565b60008183036101a081121561090f57600080fd5b6109176107d7565b83516004811061092657600080fd5b8152602084015161093681610729565b6020820152610100603f19830181131561094f57600080fd5b61095761080e565b92506040850151835260608501516020840152608085015161097881610729565b604084015261098960a08601610850565b606084015260c085015160808401526109a460e08601610840565b60a08401526109b4818601610850565b60c08401525061012084015160e08301528160408201526109d985610140860161087e565b6060820152949350505050565b634e487b7160e01b600052601160045260246000fd5b808201808211156103d0576103d06109e6565b600060208284031215610a2157600080fd5b8151610a2c81610729565b9392505050565b80820281158282048414176103d0576103d06109e6565b600082610a6757634e487b7160e01b600052601260045260246000fd5b500490565b600060208284031215610a7e57600080fd5b81518015158114610a2c57600080fdfea164736f6c6343000813000a",
  "devdoc": {
    "author": "NFTfi",
    "details": "This contract is an implementation of the IRefinancingAdapter for the Arcade platform. It handles operations related to refinancing Arcade loans such as transferring the borrower role, paying off loans, and retrieving loan and collateral details.",
    "kind": "dev",
    "methods": {
      "getBorrowerAddress(address,uint256)": {
        "details": "Gets the address of the borrower for a specific Arcade loan.",
        "params": {
          "_loanContract": "The address of the contract containing the Arcade loan.",
          "_loanIdentifier": "The unique identifier for the Arcade loan."
        },
        "returns": {
          "_0": "The address of the borrower."
        }
      },
      "getCollateral(address,uint256)": {
        "details": "Gets the collateral information for a specific Arcade loan.",
        "params": {
          "_loanContract": "The address of the contract containing the Arcade loan.",
          "_loanIdentifier": "The unique identifier for the Arcade loan."
        },
        "returns": {
          "_0": "nftCollateralContract nftCollateralId The address of the collateral token contract and the ID of the collateral."
        }
      },
      "getInterestAmount(uint256,uint256)": {
        "details": "Interest and principal must be entered with 18 units of      precision from the basis point unit (e.g. 1e18 == 0.01%)",
        "params": {
          "principal": "Principal amount in the loan terms.",
          "proratedInterestRate": "Interest rate in the loan terms, prorated over loan duration."
        },
        "returns": {
          "_0": "interest                             The amount of interest due."
        }
      },
      "getPayoffDetails(address,uint256)": {
        "details": "Gets the collateral information for a specific Arcade loan.",
        "params": {
          "_loanContract": "The address of the contract containing the Arcade loan.",
          "_loanIdentifier": "The unique identifier for the Arcade loan."
        },
        "returns": {
          "_0": "loanERC20Denomination maximumRepaymentAmount  The address of the payoff token and the required payoff amount."
        }
      },
      "payOffRefinancable(address,uint256,address,uint256)": {
        "details": "Pays off an Arcade loan with a specified amount of a specified token.",
        "params": {
          "_loanContract": "The address of the contract containing the Arcade loan.",
          "_loanIdentifier": "The unique identifier for the Arcade loan.",
          "_payBackAmount": "The amount of tokens used to pay back the Arcade loan.",
          "_payBackToken": "The token used to pay back the Arcade loan."
        },
        "returns": {
          "_0": "A boolean value indicating whether the operation was successful."
        }
      },
      "transferBorrowerRole(address,uint256)": {
        "details": "Transfers the borrower role to this contract for a specific Arcade loan.",
        "params": {
          "_loanContract": "The address of the contract containing the Arcade loan.",
          "_loanIdentifier": "The unique identifier for the Arcade loan."
        },
        "returns": {
          "_0": "A boolean value indicating whether the operation was successful."
        }
      }
    },
    "title": "ArcadeRefinancingAdapter",
    "version": 1
  },
  "userdoc": {
    "kind": "user",
    "methods": {
      "getInterestAmount(uint256,uint256)": {
        "notice": "Calculate the interest due over a full term."
      }
    },
    "version": 1
  },
  "storageLayout": {
    "storage": [],
    "types": null
  }
}