{
  "address": "0xD2092FABa1019ceB00cDAA209dca1d1cc231f3be",
  "abi": [
    {
      "inputs": [],
      "name": "DELEGATE_PLUGIN",
      "outputs": [
        {
          "internalType": "bytes32",
          "name": "",
          "type": "bytes32"
        }
      ],
      "stateMutability": "view",
      "type": "function"
    },
    {
      "inputs": [],
      "name": "ERC20_TRANSFER_MANAGER",
      "outputs": [
        {
          "internalType": "bytes32",
          "name": "",
          "type": "bytes32"
        }
      ],
      "stateMutability": "view",
      "type": "function"
    },
    {
      "inputs": [],
      "name": "ESCROW",
      "outputs": [
        {
          "internalType": "bytes32",
          "name": "",
          "type": "bytes32"
        }
      ],
      "stateMutability": "view",
      "type": "function"
    },
    {
      "inputs": [],
      "name": "LOAN_COORDINATOR",
      "outputs": [
        {
          "internalType": "bytes32",
          "name": "",
          "type": "bytes32"
        }
      ],
      "stateMutability": "view",
      "type": "function"
    },
    {
      "inputs": [],
      "name": "NFT_TYPE_REGISTRY",
      "outputs": [
        {
          "internalType": "bytes32",
          "name": "",
          "type": "bytes32"
        }
      ],
      "stateMutability": "view",
      "type": "function"
    },
    {
      "inputs": [],
      "name": "PERMITTED_ERC20S",
      "outputs": [
        {
          "internalType": "bytes32",
          "name": "",
          "type": "bytes32"
        }
      ],
      "stateMutability": "view",
      "type": "function"
    },
    {
      "inputs": [],
      "name": "PERMITTED_NFTS",
      "outputs": [
        {
          "internalType": "bytes32",
          "name": "",
          "type": "bytes32"
        }
      ],
      "stateMutability": "view",
      "type": "function"
    },
    {
      "inputs": [],
      "name": "PERMITTED_SNFT_RECEIVER",
      "outputs": [
        {
          "internalType": "bytes32",
          "name": "",
          "type": "bytes32"
        }
      ],
      "stateMutability": "view",
      "type": "function"
    },
    {
      "inputs": [],
      "name": "PERSONAL_ESCROW_FACTORY",
      "outputs": [
        {
          "internalType": "bytes32",
          "name": "",
          "type": "bytes32"
        }
      ],
      "stateMutability": "view",
      "type": "function"
    }
  ],
  "transactionHash": "0x4b72b66a357a6d90ea81e620ecb6c9c77bc749cc749c8b50586af692005e28a4",
  "args": [],
  "numDeployments": 1,
  "solcInputHash": "bab281e5640fb4f8a58586b3f548739e",
  "bytecode": "0x61023061003a600b82828239805160001a60731461002d57634e487b7160e01b600052600060045260246000fd5b30600052607381538281f3fe73000000000000000000000000000000000000000030146080604052600436106100ad5760003560e01c806377cfa99111610080578063b2028e9f11610065578063b2028e9f146101ae578063bc941248146101d5578063e681c4aa146101fc57600080fd5b806377cfa9911461016057806380175f181461018757600080fd5b80630588ac8c146100b257806326a9d63a146100eb5780632fd0cd8c1461011257806341be0f9714610139575b600080fd5b6100d97f44454c45474154455f504c5547494e000000000000000000000000000000000081565b60405190815260200160405180910390f35b6100d97f5045524d49545445445f4552433230530000000000000000000000000000000081565b6100d97f5045524d49545445445f534e46545f524543454956455200000000000000000081565b6100d97f4e46545f545950455f524547495354525900000000000000000000000000000081565b6100d97f4c4f414e5f434f4f5244494e41544f520000000000000000000000000000000081565b6100d97f45524332305f5452414e534645525f4d414e414745520000000000000000000081565b6100d97f504552534f4e414c5f455343524f575f464143544f525900000000000000000081565b6100d97f5045524d49545445445f4e46545300000000000000000000000000000000000081565b6100d97f455343524f5700000000000000000000000000000000000000000000000000008156fea164736f6c6343000813000a",
  "devdoc": {
    "author": "NFTfi",
    "details": "Common library for contract keys",
    "kind": "dev",
    "methods": {},
    "title": "ContractKeys",
    "version": 1
  },
  "userdoc": {
    "kind": "user",
    "methods": {},
    "version": 1
  },
  "storageLayout": {
    "storage": [],
    "types": null
  }
}