{
  "address": "0xA7C134E0Ba7295ebbd396a7C6b03a0abFd3bf417",
  "abi": [
    {
      "inputs": [
        {
          "internalType": "address",
          "name": "_admin",
          "type": "address"
        },
        {
          "internalType": "string[]",
          "name": "_contractKeys",
          "type": "string[]"
        },
        {
          "internalType": "address[]",
          "name": "_contractAddresses",
          "type": "address[]"
        }
      ],
      "stateMutability": "nonpayable",
      "type": "constructor"
    },
    {
      "anonymous": false,
      "inputs": [
        {
          "indexed": true,
          "internalType": "bytes32",
          "name": "contractKey",
          "type": "bytes32"
        },
        {
          "indexed": true,
          "internalType": "address",
          "name": "contractAddress",
          "type": "address"
        }
      ],
      "name": "ContractUpdated",
      "type": "event"
    },
    {
      "anonymous": false,
      "inputs": [
        {
          "indexed": true,
          "internalType": "address",
          "name": "previousOwner",
          "type": "address"
        },
        {
          "indexed": true,
          "internalType": "address",
          "name": "newOwner",
          "type": "address"
        }
      ],
      "name": "OwnershipTransferred",
      "type": "event"
    },
    {
      "inputs": [],
      "name": "acceptTransferOwnership",
      "outputs": [],
      "stateMutability": "nonpayable",
      "type": "function"
    },
    {
      "inputs": [],
      "name": "cancelTransferOwnership",
      "outputs": [],
      "stateMutability": "nonpayable",
      "type": "function"
    },
    {
      "inputs": [
        {
          "internalType": "bytes32",
          "name": "_contractKey",
          "type": "bytes32"
        }
      ],
      "name": "getContract",
      "outputs": [
        {
          "internalType": "address",
          "name": "",
          "type": "address"
        }
      ],
      "stateMutability": "view",
      "type": "function"
    },
    {
      "inputs": [],
      "name": "owner",
      "outputs": [
        {
          "internalType": "address",
          "name": "",
          "type": "address"
        }
      ],
      "stateMutability": "view",
      "type": "function"
    },
    {
      "inputs": [],
      "name": "rejectTransferOwnership",
      "outputs": [],
      "stateMutability": "nonpayable",
      "type": "function"
    },
    {
      "inputs": [
        {
          "internalType": "address",
          "name": "_newOwnerCandidate",
          "type": "address"
        }
      ],
      "name": "requestTransferOwnership",
      "outputs": [],
      "stateMutability": "nonpayable",
      "type": "function"
    },
    {
      "inputs": [
        {
          "internalType": "string",
          "name": "_contractKey",
          "type": "string"
        },
        {
          "internalType": "address",
          "name": "_contractAddress",
          "type": "address"
        }
      ],
      "name": "setContract",
      "outputs": [],
      "stateMutability": "nonpayable",
      "type": "function"
    },
    {
      "inputs": [
        {
          "internalType": "string[]",
          "name": "_contractKeys",
          "type": "string[]"
        },
        {
          "internalType": "address[]",
          "name": "_contractAddresses",
          "type": "address[]"
        }
      ],
      "name": "setContracts",
      "outputs": [],
      "stateMutability": "nonpayable",
      "type": "function"
    }
  ],
  "transactionHash": "0x34fdd87de48a0ebe4f9faae792781b61a4a283c4ba39cdfa46d7e2acca9287fc",
  "args": [
    "0x04b6B89768eB5224C3A488EFD49953d09693578e",
    [],
    []
  ],
  "numDeployments": 1,
  "solcInputHash": "bab281e5640fb4f8a58586b3f548739e",
  "bytecode": "0x60806040523480156200001157600080fd5b5060405162000fbe38038062000fbe833981016040819052620000349162000392565b8262000040816200005b565b506001600255620000528282620000ab565b50505062000571565b600080546001600160a01b038381166001600160a01b0319831681178455604051919092169283917f8be0079c531659141344cd1fd0a4f28419497f9722a3daafe3b4186f6b6457e09190a35050565b80518251146200011a5760405162461bcd60e51b815260206004820152603060248201527f736574436f6e7472616374732066756e6374696f6e20696e666f726d6174696f60448201526f0dc40c2e4d2e8f240dad2e6dac2e8c6d60831b606482015260840160405180910390fd5b60005b8251811015620001845762000171838281518110620001405762000140620004e4565b60200260200101518383815181106200015d576200015d620004e4565b60200260200101516200018960201b60201c565b6200017c81620004fa565b90506200011d565b505050565b60405163f99a8ffb60e01b81526000907343cD0b93B7cDF165643D362aC74CED9Ec303Ea339063f99a8ffb90620001c590869060040162000522565b602060405180830381865af4158015620001e3573d6000803e3d6000fd5b505050506040513d601f19601f8201168201806040525081019062000209919062000557565b60008181526003602052604080822080546001600160a01b0319166001600160a01b03871690811790915590519293509183917fd45de243cd15102b320d0d75eb12a34864595b07f8853b6b7d487946b292463091a3505050565b80516001600160a01b03811681146200027c57600080fd5b919050565b634e487b7160e01b600052604160045260246000fd5b604051601f8201601f191681016001600160401b0381118282101715620002c257620002c262000281565b604052919050565b60006001600160401b03821115620002e657620002e662000281565b5060051b60200190565b60005b838110156200030d578181015183820152602001620002f3565b50506000910152565b600082601f8301126200032857600080fd5b81516020620003416200033b83620002ca565b62000297565b82815260059290921b840181019181810190868411156200036157600080fd5b8286015b848110156200038757620003798162000264565b835291830191830162000365565b509695505050505050565b600080600060608486031215620003a857600080fd5b620003b38462000264565b602085810151919450906001600160401b0380821115620003d357600080fd5b818701915087601f830112620003e857600080fd5b8151620003f96200033b82620002ca565b81815260059190911b8301840190848101908a8311156200041957600080fd5b8585015b83811015620004af57805185811115620004375760008081fd5b8601603f81018d136200044a5760008081fd5b8781015160408782111562000463576200046362000281565b62000477601f8301601f19168b0162000297565b8281528f828486010111156200048d5760008081fd5b6200049e838c8301848701620002f0565b86525050509186019186016200041d565b5060408a01519097509450505080831115620004ca57600080fd5b5050620004da8682870162000316565b9150509250925092565b634e487b7160e01b600052603260045260246000fd5b6000600182016200051b57634e487b7160e01b600052601160045260246000fd5b5060010190565b602081526000825180602084015262000543816040850160208701620002f0565b601f01601f19169190910160400192915050565b6000602082840312156200056a57600080fd5b5051919050565b610a3d80620005816000396000f3fe608060405234801561001057600080fd5b50600436106100885760003560e01c80638da5cb5b1161005b5780638da5cb5b146100c557806392fede00146100ee5780639d6fa618146100f6578063e16c7d981461010957600080fd5b80633f0ed0df1461008d5780635f992fdd146100a25780637b371107146100aa5780637ca9e0c4146100b2575b600080fd5b6100a061009b3660046106ca565b610132565b005b6100a06101d7565b6100a0610250565b6100a06100c0366004610828565b6102bf565b6000546001600160a01b03165b6040516001600160a01b03909116815260200160405180910390f35b6100a0610327565b6100a0610104366004610951565b610381565b6100d2610117366004610973565b6000908152600360205260409020546001600160a01b031690565b6000546001600160a01b031633146101915760405162461bcd60e51b815260206004820181905260248201527f4f776e61626c653a2063616c6c6572206973206e6f7420746865206f776e657260448201526064015b60405180910390fd5b6101d283838080601f016020809104026020016040519081016040528093929190818152602001838380828437600092019190915250859250610486915050565b505050565b6001546001600160a01b031633146102315760405162461bcd60e51b815260206004820152601c60248201527f4f776e61626c653a206e6f74206f776e65722063616e646964617465000000006044820152606401610188565b6001805473ffffffffffffffffffffffffffffffffffffffff19169055565b6001546001600160a01b031633146102aa5760405162461bcd60e51b815260206004820152601c60248201527f4f776e61626c653a206e6f74206f776e65722063616e646964617465000000006044820152606401610188565b600154610231906001600160a01b0316610582565b6000546001600160a01b031633146103195760405162461bcd60e51b815260206004820181905260248201527f4f776e61626c653a2063616c6c6572206973206e6f7420746865206f776e65726044820152606401610188565b61032382826105df565b5050565b6000546001600160a01b031633146102315760405162461bcd60e51b815260206004820181905260248201527f4f776e61626c653a2063616c6c6572206973206e6f7420746865206f776e65726044820152606401610188565b6000546001600160a01b031633146103db5760405162461bcd60e51b815260206004820181905260248201527f4f776e61626c653a2063616c6c6572206973206e6f7420746865206f776e65726044820152606401610188565b6001600160a01b0381166104575760405162461bcd60e51b815260206004820152602660248201527f4f776e61626c653a206e6577206f776e657220697320746865207a65726f206160448201527f64647265737300000000000000000000000000000000000000000000000000006064820152608401610188565b6001805473ffffffffffffffffffffffffffffffffffffffff19166001600160a01b0392909216919091179055565b6040517ff99a8ffb0000000000000000000000000000000000000000000000000000000081526000907343cD0b93B7cDF165643D362aC74CED9Ec303Ea339063f99a8ffb906104d990869060040161098c565b602060405180830381865af41580156104f6573d6000803e3d6000fd5b505050506040513d601f19601f8201168201806040525081019061051a91906109da565b600081815260036020526040808220805473ffffffffffffffffffffffffffffffffffffffff19166001600160a01b03871690811790915590519293509183917fd45de243cd15102b320d0d75eb12a34864595b07f8853b6b7d487946b292463091a3505050565b600080546001600160a01b0383811673ffffffffffffffffffffffffffffffffffffffff19831681178455604051919092169283917f8be0079c531659141344cd1fd0a4f28419497f9722a3daafe3b4186f6b6457e09190a35050565b80518251146106565760405162461bcd60e51b815260206004820152603060248201527f736574436f6e7472616374732066756e6374696f6e20696e666f726d6174696f60448201527f6e206172697479206d69736d61746368000000000000000000000000000000006064820152608401610188565b60005b82518110156101d25761069e838281518110610677576106776109f3565b6020026020010151838381518110610691576106916109f3565b6020026020010151610486565b6106a781610a09565b9050610659565b80356001600160a01b03811681146106c557600080fd5b919050565b6000806000604084860312156106df57600080fd5b833567ffffffffffffffff808211156106f757600080fd5b818601915086601f83011261070b57600080fd5b81358181111561071a57600080fd5b87602082850101111561072c57600080fd5b60209283019550935061074291860190506106ae565b90509250925092565b634e487b7160e01b600052604160045260246000fd5b604051601f8201601f1916810167ffffffffffffffff8111828210171561078a5761078a61074b565b604052919050565b600067ffffffffffffffff8211156107ac576107ac61074b565b5060051b60200190565b600082601f8301126107c757600080fd5b813560206107dc6107d783610792565b610761565b82815260059290921b840181019181810190868411156107fb57600080fd5b8286015b8481101561081d57610810816106ae565b83529183019183016107ff565b509695505050505050565b600080604080848603121561083c57600080fd5b833567ffffffffffffffff8082111561085457600080fd5b8186019150601f878184011261086957600080fd5b823560206108796107d783610792565b82815260059290921b8501810191818101908b84111561089857600080fd5b8287015b84811015610921578035878111156108b45760008081fd5b8801603f81018e136108c65760008081fd5b84810135888111156108da576108da61074b565b6108eb818901601f19168701610761565b8181528f8c8385010111156109005760008081fd5b818c840188830137600091810187019190915284525091830191830161089c565b50985050880135945050508083111561093957600080fd5b5050610947858286016107b6565b9150509250929050565b60006020828403121561096357600080fd5b61096c826106ae565b9392505050565b60006020828403121561098557600080fd5b5035919050565b600060208083528351808285015260005b818110156109b95785810183015185820160400152820161099d565b506000604082860101526040601f19601f8301168501019250505092915050565b6000602082840312156109ec57600080fd5b5051919050565b634e487b7160e01b600052603260045260246000fd5b600060018201610a2957634e487b7160e01b600052601160045260246000fd5b506001019056fea164736f6c6343000813000a",
  "deployedBytecode": "0x608060405234801561001057600080fd5b50600436106100885760003560e01c80638da5cb5b1161005b5780638da5cb5b146100c557806392fede00146100ee5780639d6fa618146100f6578063e16c7d981461010957600080fd5b80633f0ed0df1461008d5780635f992fdd146100a25780637b371107146100aa5780637ca9e0c4146100b2575b600080fd5b6100a061009b3660046106ca565b610132565b005b6100a06101d7565b6100a0610250565b6100a06100c0366004610828565b6102bf565b6000546001600160a01b03165b6040516001600160a01b03909116815260200160405180910390f35b6100a0610327565b6100a0610104366004610951565b610381565b6100d2610117366004610973565b6000908152600360205260409020546001600160a01b031690565b6000546001600160a01b031633146101915760405162461bcd60e51b815260206004820181905260248201527f4f776e61626c653a2063616c6c6572206973206e6f7420746865206f776e657260448201526064015b60405180910390fd5b6101d283838080601f016020809104026020016040519081016040528093929190818152602001838380828437600092019190915250859250610486915050565b505050565b6001546001600160a01b031633146102315760405162461bcd60e51b815260206004820152601c60248201527f4f776e61626c653a206e6f74206f776e65722063616e646964617465000000006044820152606401610188565b6001805473ffffffffffffffffffffffffffffffffffffffff19169055565b6001546001600160a01b031633146102aa5760405162461bcd60e51b815260206004820152601c60248201527f4f776e61626c653a206e6f74206f776e65722063616e646964617465000000006044820152606401610188565b600154610231906001600160a01b0316610582565b6000546001600160a01b031633146103195760405162461bcd60e51b815260206004820181905260248201527f4f776e61626c653a2063616c6c6572206973206e6f7420746865206f776e65726044820152606401610188565b61032382826105df565b5050565b6000546001600160a01b031633146102315760405162461bcd60e51b815260206004820181905260248201527f4f776e61626c653a2063616c6c6572206973206e6f7420746865206f776e65726044820152606401610188565b6000546001600160a01b031633146103db5760405162461bcd60e51b815260206004820181905260248201527f4f776e61626c653a2063616c6c6572206973206e6f7420746865206f776e65726044820152606401610188565b6001600160a01b0381166104575760405162461bcd60e51b815260206004820152602660248201527f4f776e61626c653a206e6577206f776e657220697320746865207a65726f206160448201527f64647265737300000000000000000000000000000000000000000000000000006064820152608401610188565b6001805473ffffffffffffffffffffffffffffffffffffffff19166001600160a01b0392909216919091179055565b6040517ff99a8ffb00000000000000000000000000000000000000000000000000000000815260009073__$b0ae3f603fa3e13f3b829da0b88d39db57$__9063f99a8ffb906104d990869060040161098c565b602060405180830381865af41580156104f6573d6000803e3d6000fd5b505050506040513d601f19601f8201168201806040525081019061051a91906109da565b600081815260036020526040808220805473ffffffffffffffffffffffffffffffffffffffff19166001600160a01b03871690811790915590519293509183917fd45de243cd15102b320d0d75eb12a34864595b07f8853b6b7d487946b292463091a3505050565b600080546001600160a01b0383811673ffffffffffffffffffffffffffffffffffffffff19831681178455604051919092169283917f8be0079c531659141344cd1fd0a4f28419497f9722a3daafe3b4186f6b6457e09190a35050565b80518251146106565760405162461bcd60e51b815260206004820152603060248201527f736574436f6e7472616374732066756e6374696f6e20696e666f726d6174696f60448201527f6e206172697479206d69736d61746368000000000000000000000000000000006064820152608401610188565b60005b82518110156101d25761069e838281518110610677576106776109f3565b6020026020010151838381518110610691576106916109f3565b6020026020010151610486565b6106a781610a09565b9050610659565b80356001600160a01b03811681146106c557600080fd5b919050565b6000806000604084860312156106df57600080fd5b833567ffffffffffffffff808211156106f757600080fd5b818601915086601f83011261070b57600080fd5b81358181111561071a57600080fd5b87602082850101111561072c57600080fd5b60209283019550935061074291860190506106ae565b90509250925092565b634e487b7160e01b600052604160045260246000fd5b604051601f8201601f1916810167ffffffffffffffff8111828210171561078a5761078a61074b565b604052919050565b600067ffffffffffffffff8211156107ac576107ac61074b565b5060051b60200190565b600082601f8301126107c757600080fd5b813560206107dc6107d783610792565b610761565b82815260059290921b840181019181810190868411156107fb57600080fd5b8286015b8481101561081d57610810816106ae565b83529183019183016107ff565b509695505050505050565b600080604080848603121561083c57600080fd5b833567ffffffffffffffff8082111561085457600080fd5b8186019150601f878184011261086957600080fd5b823560206108796107d783610792565b82815260059290921b8501810191818101908b84111561089857600080fd5b8287015b84811015610921578035878111156108b45760008081fd5b8801603f81018e136108c65760008081fd5b84810135888111156108da576108da61074b565b6108eb818901601f19168701610761565b8181528f8c8385010111156109005760008081fd5b818c840188830137600091810187019190915284525091830191830161089c565b50985050880135945050508083111561093957600080fd5b5050610947858286016107b6565b9150509250929050565b60006020828403121561096357600080fd5b61096c826106ae565b9392505050565b60006020828403121561098557600080fd5b5035919050565b600060208083528351808285015260005b818110156109b95785810183015185820160400152820161099d565b506000604082860101526040601f19601f8301168501019250505092915050565b6000602082840312156109ec57600080fd5b5051919050565b634e487b7160e01b600052603260045260246000fd5b600060018201610a2957634e487b7160e01b600052601160045260246000fd5b506001019056fea164736f6c6343000813000a",
  "libraries": {
    "ContractKeyUtils": "0x43cD0b93B7cDF165643D362aC74CED9Ec303Ea33"
  },
  "devdoc": {
    "author": "NFTfi",
    "details": "Registry for the contracts supported by NFTfi protocol.",
    "events": {
      "ContractUpdated(bytes32,address)": {
        "params": {
          "contractAddress": "- Address of the contract.",
          "contractKey": "- Contract key e.g. bytes32('PERMITTED_NFTS')."
        }
      }
    },
    "kind": "dev",
    "methods": {
      "constructor": {
        "details": "Initializes `contracts` with a batch of permitted contracts",
        "params": {
          "_admin": "- Initial admin of this contract.",
          "_contractAddresses": "- Initial associated contract addresses.",
          "_contractKeys": "- Initial contract keys."
        }
      },
      "getContract(bytes32)": {
        "params": {
          "_contractKey": "- The index to the contract address."
        }
      },
      "owner()": {
        "details": "Returns the address of the current owner."
      },
      "requestTransferOwnership(address)": {
        "details": "Requests transferring ownership of the contract to a new account (`_newOwnerCandidate`). Can only be called by the current owner."
      },
      "setContract(string,address)": {
        "params": {
          "_contractAddress": "- The associated contract address.",
          "_contractKey": "- New or existing contract key."
        }
      },
      "setContracts(string[],address[])": {
        "params": {
          "_contractAddresses": "- The associated contract addresses.",
          "_contractKeys": "- New or existing contract keys."
        }
      }
    },
    "title": "NftfiHub",
    "version": 1
  },
  "userdoc": {
    "events": {
      "ContractUpdated(bytes32,address)": {
        "notice": "This event is fired whenever the admin registers a contract."
      }
    },
    "kind": "user",
    "methods": {
      "getContract(bytes32)": {
        "notice": "This function can be called by anyone to lookup the contract address associated with the key."
      },
      "setContract(string,address)": {
        "notice": "Set or update the contract address for the given key."
      },
      "setContracts(string[],address[])": {
        "notice": "Set or update the contract addresses for the given keys."
      }
    },
    "version": 1
  },
  "storageLayout": {
    "storage": [
      {
        "astId": 25956,
        "contract": "contracts/NftfiHub.sol:NftfiHub",
        "label": "_owner",
        "offset": 0,
        "slot": "0",
        "type": "t_address"
      },
      {
        "astId": 25958,
        "contract": "contracts/NftfiHub.sol:NftfiHub",
        "label": "_ownerCandidate",
        "offset": 0,
        "slot": "1",
        "type": "t_address"
      },
      {
        "astId": 945,
        "contract": "contracts/NftfiHub.sol:NftfiHub",
        "label": "_status",
        "offset": 0,
        "slot": "2",
        "type": "t_uint256"
      },
      {
        "astId": 9443,
        "contract": "contracts/NftfiHub.sol:NftfiHub",
        "label": "contracts",
        "offset": 0,
        "slot": "3",
        "type": "t_mapping(t_bytes32,t_address)"
      }
    ],
    "types": {
      "t_address": {
        "encoding": "inplace",
        "label": "address",
        "numberOfBytes": "20"
      },
      "t_bytes32": {
        "encoding": "inplace",
        "label": "bytes32",
        "numberOfBytes": "32"
      },
      "t_mapping(t_bytes32,t_address)": {
        "encoding": "mapping",
        "key": "t_bytes32",
        "label": "mapping(bytes32 => address)",
        "numberOfBytes": "32",
        "value": "t_address"
      },
      "t_uint256": {
        "encoding": "inplace",
        "label": "uint256",
        "numberOfBytes": "32"
      }
    }
  }
}