{
  "address": "0xC4D7226265616Ad4d866033110C17144aCE1af6e",
  "abi": [
    {
      "inputs": [
        {
          "internalType": "address",
          "name": "_admin",
          "type": "address"
        },
        {
          "internalType": "string[]",
          "name": "_definedNftTypes",
          "type": "string[]"
        },
        {
          "internalType": "address[]",
          "name": "_definedNftWrappers",
          "type": "address[]"
        },
        {
          "internalType": "address[]",
          "name": "_permittedNftContracts",
          "type": "address[]"
        },
        {
          "internalType": "string[]",
          "name": "_permittedNftTypes",
          "type": "string[]"
        }
      ],
      "stateMutability": "nonpayable",
      "type": "constructor"
    },
    {
      "anonymous": false,
      "inputs": [
        {
          "indexed": true,
          "internalType": "address",
          "name": "nftContract",
          "type": "address"
        },
        {
          "indexed": true,
          "internalType": "bytes32",
          "name": "nftType",
          "type": "bytes32"
        }
      ],
      "name": "NFTPermit",
      "type": "event"
    },
    {
      "anonymous": false,
      "inputs": [
        {
          "indexed": true,
          "internalType": "address",
          "name": "previousOwner",
          "type": "address"
        },
        {
          "indexed": true,
          "internalType": "address",
          "name": "newOwner",
          "type": "address"
        }
      ],
      "name": "OwnershipTransferred",
      "type": "event"
    },
    {
      "anonymous": false,
      "inputs": [
        {
          "indexed": true,
          "internalType": "bytes32",
          "name": "nftType",
          "type": "bytes32"
        },
        {
          "indexed": true,
          "internalType": "address",
          "name": "nftWrapper",
          "type": "address"
        }
      ],
      "name": "TypeUpdated",
      "type": "event"
    },
    {
      "inputs": [],
      "name": "acceptTransferOwnership",
      "outputs": [],
      "stateMutability": "nonpayable",
      "type": "function"
    },
    {
      "inputs": [],
      "name": "cancelTransferOwnership",
      "outputs": [],
      "stateMutability": "nonpayable",
      "type": "function"
    },
    {
      "inputs": [
        {
          "internalType": "address",
          "name": "_nftContract",
          "type": "address"
        }
      ],
      "name": "getNFTPermit",
      "outputs": [
        {
          "internalType": "bytes32",
          "name": "",
          "type": "bytes32"
        }
      ],
      "stateMutability": "view",
      "type": "function"
    },
    {
      "inputs": [
        {
          "internalType": "address",
          "name": "_nftContract",
          "type": "address"
        }
      ],
      "name": "getNFTWrapper",
      "outputs": [
        {
          "internalType": "address",
          "name": "",
          "type": "address"
        }
      ],
      "stateMutability": "view",
      "type": "function"
    },
    {
      "inputs": [
        {
          "internalType": "bytes32",
          "name": "_nftType",
          "type": "bytes32"
        }
      ],
      "name": "getNftTypeWrapper",
      "outputs": [
        {
          "internalType": "address",
          "name": "",
          "type": "address"
        }
      ],
      "stateMutability": "view",
      "type": "function"
    },
    {
      "inputs": [],
      "name": "owner",
      "outputs": [
        {
          "internalType": "address",
          "name": "",
          "type": "address"
        }
      ],
      "stateMutability": "view",
      "type": "function"
    },
    {
      "inputs": [],
      "name": "rejectTransferOwnership",
      "outputs": [],
      "stateMutability": "nonpayable",
      "type": "function"
    },
    {
      "inputs": [
        {
          "internalType": "address",
          "name": "_newOwnerCandidate",
          "type": "address"
        }
      ],
      "name": "requestTransferOwnership",
      "outputs": [],
      "stateMutability": "nonpayable",
      "type": "function"
    },
    {
      "inputs": [
        {
          "internalType": "address",
          "name": "_nftContract",
          "type": "address"
        },
        {
          "internalType": "string",
          "name": "_nftType",
          "type": "string"
        }
      ],
      "name": "setNFTPermit",
      "outputs": [],
      "stateMutability": "nonpayable",
      "type": "function"
    },
    {
      "inputs": [
        {
          "internalType": "address[]",
          "name": "_nftContracts",
          "type": "address[]"
        },
        {
          "internalType": "string[]",
          "name": "_nftTypes",
          "type": "string[]"
        }
      ],
      "name": "setNFTPermits",
      "outputs": [],
      "stateMutability": "nonpayable",
      "type": "function"
    },
    {
      "inputs": [
        {
          "internalType": "string",
          "name": "_nftType",
          "type": "string"
        },
        {
          "internalType": "address",
          "name": "_nftWrapper",
          "type": "address"
        }
      ],
      "name": "setNftType",
      "outputs": [],
      "stateMutability": "nonpayable",
      "type": "function"
    },
    {
      "inputs": [
        {
          "internalType": "string[]",
          "name": "_nftTypes",
          "type": "string[]"
        },
        {
          "internalType": "address[]",
          "name": "_nftWrappers",
          "type": "address[]"
        }
      ],
      "name": "setNftTypes",
      "outputs": [],
      "stateMutability": "nonpayable",
      "type": "function"
    }
  ],
  "transactionHash": "0x7b21a879528882afb540488c51ff53ead613f7c68c92d8d24437b9295ceb3ad6",
  "args": [
    "0x04b6B89768eB5224C3A488EFD49953d09693578e",
    [
      "ERC721",
      "CryptoKitties",
      "ERC721_LEGACY",
      "ERC1155",
      "PUNKS",
      "SUPER_RARE_V1"
    ],
    [
      "0xf482890D6a27dA5e6a38E2aE4d6f4B7a0Dda7347",
      "0xF0c05b1aB9150664Bb09a79E7f29d025D4E3D369",
      "0xEdc4Df53cB9eDdD954dE94C0F1f33A7E065E5b12",
      "0x145DeCa785aC671b7F82DD5beA34E42790fa3263",
      "0x100dd9D062Ed34fba33141C5F901db7a30Aa3c86",
      "0x97B6ac36f2336b9780A12bFF3988D92744D7f22B"
    ],
    [
      "0xF87E31492Faf9A91B02Ee0dEAAd50d51d56D5d4d",
      "0x79986aF15539de2db9A5086382daEdA917A9CF0C",
      "0x913ae503153d9A335398D0785Ba60A2d63dDB4e2",
      "0x50f5474724e0Ee42D9a4e711ccFB275809Fd6d4a",
      "0xE15e9c0bf6B6B29d3b9e1c921AB2CB09C2194463",
      "0xF06059F01F6f08a603c939359a0A1186F7687685",
      "0xD35147BE6401dcb20811f2104c33dE8E97ED6818",
      "0x2A187453064356c898cAe034EAed119E1663ACb8",
      "0x595f279DE4b5DF1e47Ca55b65175D8a9A935A0fA",
      "0xb932a70A57673d89f4acfFBE830E8ed7f75Fb9e0",
      "0xFBeef911Dc5821886e1dda71586d90eD28174B7d",
      "0x06012c8cf97BEaD5deAe237070F9587f8E7A266d",
      "0x0E3A2A1f2146d86A604adc220b4967A898D7Fe07",
      "0x6Fa769EED284a94A73C15299e1D3719B29Ae2F52",
      "0x273f7F8E6489682Df756151F5525576E322d51A3",
      "0xF3E778F839934fC819cFA1040AabaCeCBA01e049",
      "0x6c7B6cc55d4098400aC787C8793205D3E86C37C9",
      "0xD1E5b0FF1287aA9f9A268759062E4Ab08b9Dacbe",
      "0xECf7EF42B57ee37A959BF507183C5dD6bf182081",
      "0x57f1887a8BF19b14fC0dF6Fd9B2acc9Af147eA85",
      "0xd508731686f2c933B849762F9A92539C666584DC",
      "0xE1fC74A4F7A303B6a7d16C73171734D11a271c1D",
      "0x2A46f2fFD99e19a89476E2f62270e0a35bBf0756",
      "0x22ADCAF1d6b5213A76bfDDaB6d4d38C25Ce7c029",
      "0x9255ED258DCBaFE165dccd93eA0A72f4ED88e24d",
      "0xd4e4078ca3495DE5B1d4dB434BEbc5a986197782",
      "0x60F3680350F65Beb2752788cB48aBFCE84a4759E",
      "0x1d963688FE2209A98dB35C67A041524822Cf04ff",
      "0x4d3814D4DA8083b41861dEC2F45B4840e8b72d68",
      "0x30a2fA3c93Fb9F93D1EFeFfd350c6A6BB62ba000",
      "0x91047Abf3cAb8da5A9515c8750Ab33B4f1560a7A",
      "0xB8B5fa9CCDDeB5e71AcB6864819a143A96E620A4",
      "0x1E1B3525388e8A63988F8455638AEe87f68EeaA7",
      "0xbc0E164eE423B7800e355b012c06446e28b1a29d",
      "0x9f5B1fa6ec33513b8a9F22ceA0ACdc9c3B2835B2",
      "0x8c9b261Faef3b3C2e64ab5E58e04615F8c788099",
      "0x22d31a97da148476AA2B76d63ef2f20b53F7Ab4e",
      "0x26e1311CA72e622EabeE7c02F6C48564726eAF0d",
      "0xB791E3190B6b0476fCe119762B87fe2a2CA36F93",
      "0xDb7E971d39367b20BCf4df5aE2da0fa4261BF0E8",
      "0x60e31A1a38213Ec3Ba1C7345EA49C8b57f7bA4D7",
      "0xe55c8732dE80cB474c756440082270e3B2AC7AF7",
      "0x989E1Fb123b67afd66e10574c8B409bC6e812D9A",
      "0xd23043ce917aC39309F49dbA82f264994d3AdE76",
      "0x3b94Eb47E44E397124C5e87103839c8eaC0c1F5b",
      "0x478059f577Cb739f0AF0f37A365DD069Ba5BD8Be",
      "0xb7F7F6C52F2e2fdb1963Eab30438024864c313F6",
      "0x65B9344d3d81F2C00Da30e303F8eC40110857495",
      "0x7c99dEDb1DD8B9c9B12a8043c569988C3f881550",
      "0x10548F7400A0452D5Ad816C3A63e198EC1bb0aFe",
      "0x1e1d4E6262787c8A8783a37FeE698Bd42aA42bec",
      "0xE7A64F6a239ED7f5bF18caa1CE2920d0c1278129",
      "0x102DAabD1e9d294d4436ec4c521DCe7B1F15499E",
      "0x36F379400DE6c6BCDF4408B282F8b685c56adc60",
      "0x6c424C25e9F1ffF9642cB5B7750b0Db7312c29ad",
      "0xb6dAe651468E9593E4581705a09c10A76AC1e0c8",
      "0xC2C747E0F7004F9E8817Db2ca4997657a7746928",
      "0x0574c34385B039C2BB8dB898f61b7767024a9449",
      "0x059EDD72Cd353dF5106D2B9cC5ab83a52287aC3a",
      "0xa7d8d9ef8D8Ce8992Df33D8b8CF4Aebabd5bD270",
      "0xE498ec1afF3C1460f6A818826443fD2a7817e775",
      "0x87ea935Aebe4B27f34dB79dBD184b7619a8e9c5f",
      "0x7885584a108E7996f415585a094E6914B169d87C",
      "0x20172dab13e0cF9465382b32fE46CD51247cAd71",
      "0x152242CD9dBA772c4E541B51C556772cAF47e985",
      "0xF4618abb5E8031454238696A0F013DcD1476dc33",
      "0xB5079593Acc530E09d552aCb2Ce4a67194F428F4",
      "0xD92e44Ac213b9EBda0178E1523cc0cE177b7fA96",
      "0xc77e89D380498B205fa9eB648C5a21054C5548cb",
      "0x4Ad4455aD5eF891695C221e8E683EfA65fabEDE0",
      "0xEAA4c58427C184413b04dB47889b28b5C98EBb7b",
      "0x4F41d10F7E67fD16bDe916b4A6DC3Dd101C57394",
      "0xCcDE9b6d9515e5d04879E62FC20b4551846281F7",
      "0xB55C5cAc5014C662fDBF21A2C59Cd45403C482Fd",
      "0xbcd4F1EcFf4318e7A0c791C7728f3830Db506C71",
      "0xfd385556EbF6B183380AFcd61efD8194D0D46520",
      "0x23cd7dA31501aa54F61384a3756Fb4A1329DbB2C",
      "0xBC4CA0EdA7647A8aB7C2061c2E118A18a936f13D",
      "0xd754937672300Ae6708a51229112dE4017810934",
      "0x7Bd29408f11D2bFC23c34f18275bBf23bB716Bc7",
      "0xa3AEe8BcE55BEeA1951EF834b99f3Ac60d1ABeeB",
      "0xba30E5F9Bb24caa003E9f2f0497Ad287FDF95623",
      "0x905B180268F2773022e1A10E204B0858B2e60DcF",
      "0xbC17cd7f1A58bdA5d6181618090813B3050416b5",
      "0xc3f733ca98E0daD0386979Eb96fb1722A1A05E69",
      "0xDbB163b22e839A26D2A5011841cb4430019020f9",
      "0xaaDc2D4261199ce24A4B0a57370c4FCf43BB60aa",
      "0x1A92f7381B9F03921564a437210bB9396471050C",
      "0x3bf2922f4520a8BA0c2eFC3D2a1539678DaD5e9D",
      "0x85f740958906b317de6ed79663012859067E745B",
      "0x3Fe1a4c1481c8351E91B64D5c398b159dE07cbc5",
      "0xF4ee95274741437636e748DdAc70818B4ED7d043",
      "0xCcc441ac31f02cD96C153DB6fd5Fe0a2F4e6A68d",
      "0xFF9C1b15B16263C61d017ee9F65C50e4AE0113D7",
      "0x60E4d786628Fea6478F785A6d7e704777c86a7c6",
      "0x57a204AA1042f6E66DD7730813f4024114d74f37",
      "0x7EA3Cca10668B8346aeC0bf1844A49e995527c8B",
      "0x6dc6001535e15b9def7b0f6A20a2111dFA9454E2",
      "0xbEA8123277142dE42571f1fAc045225a1D347977",
      "0x219B8aB790dECC32444a6600971c7C3718252539",
      "0x8442DD3e5529063B43C69212d64D5ad67B726Ea6",
      "0xf497253C2bB7644ebb99e4d9ECC104aE7a79187A",
      "0x521f9C7505005CFA19A8E5786a9c3c9c9F5e6f42",
      "0xc92cedDfb8dd984A89fb494c376f9A48b999aAFc",
      "0x9A534628B4062E123cE7Ee2222ec20B86e16Ca8F",
      "0xe785E82358879F061BC3dcAC6f0444462D4b5330",
      "0x1CB1A5e65610AEFF2551A50f76a87a7d3fB649C6",
      "0x74BB71a4210E33256885DEF483fD4227b7f9D88F",
      "0xD455550Af4a7558b0BEeC5eaEc2cc415C4Ff4039",
      "0x5ab21Ec0bfa0B29545230395e3Adaca7d552C948",
      "0xd0A07a76746707f6D6d36D9d5897B14a8e9ED493",
      "0x1B829B926a14634d36625e60165c0770C09D02b2",
      "0xDFAcD840f462C27b0127FC76b63e7925bEd0F9D5",
      "0x026224A2940bFE258D0dbE947919B62fE321F042",
      "0xB0cf7Da8dc482997525BE8488B9caD4F44315422",
      "0xBd3531dA5CF5857e7CfAA92426877b022e612cf8",
      "0x7AfEdA4c714e1C0A2a1248332c100924506aC8e6",
      "0x909899c5dBb5002610Dd8543b6F638Be56e3B17E",
      "0xC0cf5B82Ae2352303b2EA02c3bE88e23f2594171",
      "0x8a90CAb2b38dba80c64b7734e58Ee1dB38B8992e",
      "0x0427743DF720801825a5c82e0582B1E915E0F750",
      "0xFb10b1717C92e9cc2d634080c3c337808408D9E1",
      "0x30d5977e4C9B159C2d44461868Bdc7353C2e425b",
      "0x4426391e8d7D191d867Ae19842a74464c0F22afc",
      "0x8943C7bAC1914C9A7ABa750Bf2B6B09Fd21037E0",
      "0xdd012153e008346591153fFf28B0DD6724f0C256",
      "0x8A939fd297FAb7388d6e6C634eEe3C863626bE57",
      "0x0b4B2bA334f476C8F41bFe52A428D6891755554d",
      "0xD949a444f29edE73F517942eb4d8e3cCdab25d58",
      "0xad9Fd7cB4fC7A0fBCE08d64068f60CbDE22Ed34C",
      "0xEf0182dc0574cd5874494a120750FD222FdB909a",
      "0x49cF6f5d44E70224e2E23fDcdd2C053F30aDA28B",
      "0xd0F0C40FCD1598721567F140eBf8aF436e7b97cF",
      "0x9C8fF314C9Bc7F6e59A9d9225Fb22946427eDC03",
      "0x20C70BDFCc398C1f06bA81730c8B52ACE3af7cc3",
      "0x469823c7B84264D1BAfBcD6010e9cdf1cac305a3",
      "0x90cA8a3eb2574F937F514749ce619fDCCa187d45",
      "0x2acAb3DEa77832C09420663b0E1cB386031bA17B",
      "0x0c2E57EFddbA8c768147D1fdF9176a0A6EBd5d83",
      "0x3aBEDBA3052845CE3f57818032BFA747CDED3fca",
      "0xbD275ce24f32d6cE4e9d9519C55ABe9Bc0ed7fCf",
      "0x75E95ba5997Eb235F40eCF8347cDb11F18ff640B",
      "0xD0318da435DbcE0B347cc6faA330B5A9889e3585",
      "0x6632a9d63E142F17a668064D41A21193b49B41a0",
      "0x1a2F71468F656E97c2F86541E57189F59951efe7",
      "0xf76179bb0924BA7da8E7b7Fc2779495D7A7939d8",
      "0xA1D4657e0E6507D5a94d06DA93E94dC7C8c44b51",
      "0x8bb186371D019a190e4Fc01584DD164Ae10063a8",
      "0x46Ac8540d698167FCBb9e846511Beb8CF8af9BD8",
      "0xED5AF388653567Af2F388E6224dC7C4b3241C544",
      "0xe51Aac67b09EaEd6d3D43e794D6bAe679Cbe09D8",
      "0x123b30E25973FeCd8354dd5f41Cc45A3065eF88C",
      "0x960b7a6BCD451c9968473f7bbFd9Be826EFd549A",
      "0xc1Caf0C19A8AC28c41Fe59bA6c754e4b9bd54dE9",
      "0x35471f47c3C0BC5FC75025b97A19ECDDe00F78f8",
      "0x099689220846644F87D1137665CDED7BF3422747",
      "0x7F36182DeE28c45dE6072a34D29855BaE76DBe2f",
      "0x96bE46c50E882dbd373081d08E0CDE2B055Adf6c",
      "0x80F1Ed6A1Ac694317dC5719dB099a440627D1ea7",
      "0xfE8C6d19365453D26af321D0e8c910428c23873F",
      "0x2931B181Ae9Dc8F8109eC41C42480933F411ef94",
      "0xE3234e57ac38890a9136247EAdFE1860316Ff6ab",
      "0xD78b76Fcc33cd416dA9d3D42f72649a23D7AC647",
      "0xB5C747561a185A146f83cFff25BdfD2455b31fF4",
      "0x5CC5B05a8A13E3fBDB0BB9FcCd98D38e50F90c38",
      "0xd652d2633CDBfD5f27F50cdDb098e708fa8433f3",
      "0xfcB1315C4273954F74Cb16D5b663DBF479EEC62e",
      "0x177EF8787CEb5D4596b6f011df08C86eb84380dC",
      "0x6bE69b2A9B153737887CfcdCa7781eD1511C7e36",
      "0x09233d553058c2F42ba751C87816a8E9FaE7Ef10",
      "0xa5C0Bd78D1667c13BFB403E2a3336871396713c5",
      "0x364C828eE171616a39897688A831c2499aD972ec",
      "0x11450058d796B02EB53e65374be59cFf65d3FE7f",
      "0xE70Da20A2B10d60Ca620a4E494Fe2B37C9499E97",
      "0xF980759616a795b2D692A5c0A0f1bAd651984bC1",
      "0x2a378c8D96e7d994FB9bEc6adb7C6AF2fe772c3b",
      "0x97597002980134beA46250Aa0510C9B90d87A587",
      "0x59468516a8259058baD1cA5F8f4BFF190d30E066",
      "0x08D7C0242953446436F34b4C78Fe9da38c73668d",
      "0x79FCDEF22feeD20eDDacbB2587640e45491b757f",
      "0x2eFa07CaC3395599db83035D196F2A0e7263F766",
      "0xc9D8F15803c645e98B17710a0b6593F097064bEF",
      "0xd2F668a8461D6761115dAF8Aeb3cDf5F40C532C6",
      "0x892848074ddeA461A15f337250Da3ce55580CA85",
      "0x0e9d6552b85BE180d941f1cA73Ae3E318D2D4F1F",
      "0x42069ABFE407C60cf4ae4112bEDEaD391dBa1cdB",
      "0x86C10D10ECa1Fca9DAF87a279ABCcabe0063F247",
      "0x5180db8F5c931aaE63c74266b211F580155ecac8",
      "0xc143bbfcDBdBEd6d454803804752a064A622C1F3",
      "0x325A66096E2FEfd87a1EcDFa6a97471bFbE3DE67",
      "0x31fa04619e32266f8eFD62a53AAF089c7F48b411",
      "0x880644ddF208E471C6f2230d31f9027578FA6FcC",
      "0x8d4100897447d173289560BC85c5C432Be4f44E4",
      "0xf8CB0341563213BF33EaFFc7a6775Ed0Eb6c1401",
      "0x0616A2Ef54BAd0b37Dce41C8d8E35ccE17a926f3",
      "0x966731dFD9b9925DD105FF465687F5aA8f54Ee9f",
      "0x87E738a3d5E5345d6212D8982205A564289e6324",
      "0x509a050f573BE0D5E01a73C3726E17161729558B",
      "0x620b70123fB810F6C653DA7644b5dD0b6312e4D8",
      "0x282BDD42f4eb70e7A9D9F40c8fEA0825B7f68C5D",
      "0x496A2D17a89CBC4248e9B52C8003A50C648fBCA0",
      "0xCE17F8Ef13cf67dA6EAb86e31360102eEA8609Ff",
      "0x9df8Aa7C681f33E442A0d57B838555da863504f3",
      "0xfc4c87cAbfb6bF4d00e0d26D9E64B2343419db42",
      "0x3110EF5f612208724CA51F5761A69081809F03B7",
      "0xf61F24c2d93bF2dE187546B14425BF631F28d6dC",
      "0xd1169e5349d1cB9941F3DCbA135C8A4b9eACFDDE",
      "0x7feB477600a03fd6ab1fE451cB3c7836a420F4AD",
      "0x23581767a106ae21c074b2276D25e5C3e136a68b",
      "0x9c80777CAe192E5031c38A0d951C55730eCC3f5e",
      "0x306b1ea3ecdf94aB739F1910bbda052Ed4A9f949",
      "0x12F28E2106CE8Fd8464885B80EA865e98b465149",
      "0x34d85c9CDeB23FA97cb08333b511ac86E1C4E258",
      "0x9ada21A8bc6c33B49a089CFC1c24545d2a27cD81",
      "0x7D8820FA92EB1584636f4F5b8515B5476B75171a",
      "0xbeB1d3357cD525947b16A9f7a2b3d50B50b977BD",
      "0x160C404B2b49CBC3240055CEaEE026df1e8497A0",
      "0x55700cd2E91f39bc56F589B346daC12a7907eA08",
      "0xf54cC94f1F2f5De012B6Aa51F1E7eBdc43Ef5afC",
      "0xEDc3AD89f7b0963fe23D714B34185713706B815b",
      "0x90cfCE78f5ED32f9490fd265D16c77a8b5320Bd4",
      "0x614917F589593189ac27aC8B81064CBe450C35e3",
      "0x6E9DA81ce622fB65ABf6a8d8040e460fF2543Add",
      "0xe0176bA60efddb29Cac5b15338C9962dAee9de0c",
      "0xb92b8d7e45c0f197A8236c8345b86765250BAF7c",
      "0x7Eaa96D48380802A75ED6d74b91E2B30c3d474C1",
      "0x5bd815Fd6c096bAB38B4C6553cfce3585194dff9",
      "0xaaD35C2DadbE77f97301617D82e661776c891Fa9",
      "0x466CFcD0525189b573E794F554b8A751279213Ac",
      "0x1792a96E5668ad7C167ab804a100ce42395Ce54D",
      "0x80336Ad7A747236ef41F47ed2C7641828a480BAA",
      "0xFC2068C3D47b575A60F6A4a7Bf60DEA0Ac368e01",
      "0xeB3a9A839dFeEaf71db1B4eD6a8ae0cCB171b227",
      "0xD2A077Ec359D94E0A0b7E84435eaCB40A67a817c",
      "0x1eFf5ed809C994eE2f500F076cEF22Ef3fd9c25D",
      "0x3D9b128cE781A4a9C1057f785D97131A6357ca38",
      "0x78d61C684A992b0289Bbfe58Aaa2659F667907f8",
      "0x6B00de202e3Cd03c523CA05d8b47231DBdD9142b",
      "0xC9677Cd8e9652F1b1aaDd3429769b0Ef8D7A0425",
      "0x448f3219CF2A23b0527A7a0158e7264B87f635Db",
      "0xb6329bd2741c4E5e91e26C4e653dB643E74B2b19",
      "0x4ac3d17fD6C2db18ec619Fe2D68D2C22B18378fF",
      "0xcBd38d10511F0274e040085c0BC1F85CC96Fff82",
      "0x47CcAD36Ae77aB963746c8Db8aD301d48235cE81",
      "0x8d04a8c79cEB0889Bdd12acdF3Fa9D207eD3Ff63",
      "0x26437d312fB36BdD7AC9F322A6D4cCFe0c4FA313",
      "0x2250D7c238392f4B575Bb26c672aFe45F0ADcb75",
      "0x11595fFB2D3612d810612e34Bc1C2E6D6de55d26",
      "0x19b86299c21505cdf59cE63740B240A9C822b5E4",
      "0xC7CC3e8C6B69dc272ccf64cbfF4b7503Cbf7C1C5"
    ],
    [
      "ERC721",
      "ERC721_LEGACY",
      "ERC721",
      "ERC721",
      "ERC721_LEGACY",
      "ERC721",
      "ERC721",
      "ERC721",
      "ERC721",
      "ERC721",
      "ERC721",
      "ERC721_LEGACY",
      "ERC721",
      "ERC721",
      "ERC721",
      "ERC721",
      "ERC721",
      "ERC721",
      "ERC721",
      "ERC721",
      "ERC721",
      "ERC721",
      "ERC721_LEGACY",
      "ERC721",
      "ERC721",
      "ERC721",
      "ERC721",
      "ERC721",
      "ERC721_LEGACY",
      "ERC721",
      "ERC721",
      "ERC721",
      "ERC721",
      "ERC721",
      "ERC721",
      "ERC721",
      "ERC721",
      "ERC721",
      "ERC721",
      "ERC721",
      "ERC721",
      "ERC721",
      "ERC721",
      "ERC721_LEGACY",
      "ERC721",
      "ERC721",
      "ERC721",
      "ERC721",
      "ERC721",
      "ERC721",
      "ERC721",
      "ERC721",
      "ERC721",
      "ERC721",
      "ERC721",
      "ERC721",
      "ERC721",
      "ERC721",
      "ERC721",
      "ERC721",
      "ERC721",
      "ERC721",
      "ERC721",
      "ERC721",
      "ERC721",
      "ERC721",
      "ERC721",
      "ERC721",
      "ERC721",
      "ERC721",
      "ERC721",
      "ERC721",
      "ERC721",
      "ERC721",
      "ERC721",
      "ERC721",
      "ERC721_LEGACY",
      "ERC721",
      "ERC721",
      "ERC721",
      "ERC721",
      "ERC721",
      "ERC721",
      "ERC721",
      "ERC721",
      "ERC721",
      "ERC721",
      "ERC721",
      "ERC721",
      "ERC721",
      "ERC721",
      "ERC721",
      "ERC721",
      "ERC721",
      "ERC721",
      "ERC721",
      "ERC721",
      "ERC721",
      "ERC721",
      "ERC721",
      "ERC721",
      "ERC721",
      "ERC721",
      "ERC721",
      "ERC721",
      "ERC721",
      "ERC721",
      "ERC721",
      "ERC721",
      "ERC721",
      "ERC721",
      "ERC721",
      "ERC721",
      "ERC721",
      "ERC721",
      "ERC721",
      "ERC721",
      "ERC721",
      "ERC721",
      "ERC721",
      "ERC721",
      "ERC721",
      "ERC721",
      "ERC721",
      "ERC721",
      "ERC721",
      "ERC721",
      "ERC721",
      "ERC721",
      "ERC721",
      "ERC721",
      "ERC721",
      "ERC721",
      "ERC721",
      "ERC721",
      "ERC721",
      "ERC721",
      "ERC721",
      "ERC721",
      "ERC721",
      "ERC721",
      "ERC721",
      "ERC721",
      "ERC721",
      "ERC721",
      "ERC721",
      "ERC721",
      "ERC721",
      "ERC721",
      "ERC721",
      "ERC721",
      "ERC721",
      "ERC721",
      "ERC721",
      "ERC721",
      "ERC721",
      "ERC721",
      "ERC721",
      "ERC721",
      "ERC721",
      "ERC721",
      "ERC721",
      "ERC721",
      "ERC721",
      "ERC721",
      "ERC721",
      "ERC721",
      "ERC721",
      "ERC721",
      "ERC721",
      "ERC721",
      "ERC721",
      "ERC721",
      "ERC721",
      "ERC721",
      "ERC721",
      "ERC721",
      "ERC721",
      "ERC721",
      "ERC721",
      "ERC721",
      "ERC721",
      "ERC721",
      "ERC721",
      "ERC721",
      "ERC721",
      "ERC721",
      "ERC721",
      "ERC721",
      "ERC721",
      "ERC721",
      "ERC721",
      "ERC721",
      "ERC721",
      "ERC721",
      "ERC721",
      "ERC721",
      "ERC721",
      "ERC721",
      "ERC721",
      "ERC721",
      "ERC721",
      "ERC721",
      "ERC721",
      "ERC721",
      "ERC721",
      "ERC721",
      "ERC721",
      "ERC721",
      "ERC721",
      "ERC721",
      "ERC721",
      "ERC721",
      "ERC721",
      "ERC721",
      "ERC721",
      "ERC721",
      "ERC721",
      "ERC721",
      "ERC721",
      "ERC721",
      "ERC721",
      "ERC721",
      "ERC721",
      "ERC721",
      "ERC721",
      "ERC721",
      "ERC721",
      "ERC721",
      "ERC721",
      "ERC721",
      "ERC721",
      "ERC721",
      "ERC721",
      "ERC721",
      "ERC721",
      "ERC721",
      "ERC721",
      "ERC721",
      "ERC721",
      "ERC721",
      "ERC721",
      "ERC721",
      "ERC721",
      "ERC721",
      "ERC721",
      "ERC721",
      "ERC721",
      "ERC721",
      "ERC721"
    ]
  ],
  "numDeployments": 1,
  "solcInputHash": "bab281e5640fb4f8a58586b3f548739e",
  "bytecode": "0x60806040523480156200001157600080fd5b506040516200178e3803806200178e83398101604081905262000034916200073b565b84620000408162000064565b506200004d8484620000b4565b62000059828262000192565b505050505062000895565b600080546001600160a01b038381166001600160a01b0319831681178455604051919092169283917f8be0079c531659141344cd1fd0a4f28419497f9722a3daafe3b4186f6b6457e09190a35050565b8051825114620001235760405162461bcd60e51b815260206004820152602f60248201527f7365744e667454797065732066756e6374696f6e20696e666f726d6174696f6e60448201526e040c2e4d2e8f240dad2e6dac2e8c6d608b1b60648201526084015b60405180910390fd5b60005b81518110156200018d576200017a83828151811062000149576200014962000808565b602002602001015183838151811062000166576200016662000808565b60200260200101516200026960201b60201c565b62000185816200081e565b905062000126565b505050565b8051825114620001ff5760405162461bcd60e51b815260206004820152603160248201527f7365744e46545065726d6974732066756e6374696f6e20696e666f726d6174696044820152700dedc40c2e4d2e8f240dad2e6dac2e8c6d607b1b60648201526084016200011a565b60005b82518110156200018d576200025683828151811062000225576200022562000808565b602002602001015183838151811062000242576200024262000808565b60200260200101516200038a60201b60201c565b62000261816200081e565b905062000202565b8151600003620002af5760405162461bcd60e51b815260206004820152601060248201526f6e66745479706520697320656d70747960801b60448201526064016200011a565b60405163f99a8ffb60e01b81526000907343cD0b93B7cDF165643D362aC74CED9Ec303Ea339063f99a8ffb90620002eb90869060040162000846565b602060405180830381865af415801562000309573d6000803e3d6000fd5b505050506040513d601f19601f820116820180604052508101906200032f91906200087b565b60008181526002602052604080822080546001600160a01b0319166001600160a01b03871690811790915590519293509183917f22be69269c1f7d73e73dcb25b710dd88c7aa1cf374c16d945def98df2107c2f891a3505050565b6001600160a01b038216620003e25760405162461bcd60e51b815260206004820152601b60248201527f6e6674436f6e7472616374206973207a65726f2061646472657373000000000060448201526064016200011a565b60405163f99a8ffb60e01b81526000907343cD0b93B7cDF165643D362aC74CED9Ec303Ea339063f99a8ffb906200041e90859060040162000846565b602060405180830381865af41580156200043c573d6000803e3d6000fd5b505050506040513d601f19601f820116820180604052508101906200046291906200087b565b90508015620004d1576000818152600260205260409020546001600160a01b0316620004d15760405162461bcd60e51b815260206004820152601760248201527f4e46542074797065206e6f74207265676973746572656400000000000000000060448201526064016200011a565b6001600160a01b038316600081815260036020526040808220849055518392917f903a211c8bcdc0ab18afc116fc4776504a9aac5c0121be0fda712d399017bd2291a3505050565b80516001600160a01b03811681146200053157600080fd5b919050565b634e487b7160e01b600052604160045260246000fd5b604051601f8201601f191681016001600160401b038111828210171562000577576200057762000536565b604052919050565b60006001600160401b038211156200059b576200059b62000536565b5060051b60200190565b60005b83811015620005c2578181015183820152602001620005a8565b50506000910152565b6000601f8381840112620005de57600080fd5b82516020620005f7620005f1836200057f565b6200054c565b82815260059290921b850181019181810190878411156200061757600080fd5b8287015b84811015620006b95780516001600160401b03808211156200063d5760008081fd5b818a0191508a603f830112620006535760008081fd5b858201516040828211156200066c576200066c62000536565b6200067f828b01601f191689016200054c565b92508183528c81838601011115620006975760008081fd5b620006a882898501838701620005a5565b50508452509183019183016200061b565b50979650505050505050565b600082601f830112620006d757600080fd5b81516020620006ea620005f1836200057f565b82815260059290921b840181019181810190868411156200070a57600080fd5b8286015b848110156200073057620007228162000519565b83529183019183016200070e565b509695505050505050565b600080600080600060a086880312156200075457600080fd5b6200075f8662000519565b60208701519095506001600160401b03808211156200077d57600080fd5b6200078b89838a01620005cb565b95506040880151915080821115620007a257600080fd5b620007b089838a01620006c5565b94506060880151915080821115620007c757600080fd5b620007d589838a01620006c5565b93506080880151915080821115620007ec57600080fd5b50620007fb88828901620005cb565b9150509295509295909350565b634e487b7160e01b600052603260045260246000fd5b6000600182016200083f57634e487b7160e01b600052601160045260246000fd5b5060010190565b602081526000825180602084015262000867816040850160208701620005a5565b601f01601f19169190910160400192915050565b6000602082840312156200088e57600080fd5b5051919050565b610ee980620008a56000396000f3fe608060405234801561001057600080fd5b50600436106100d45760003560e01c806392fede0011610081578063b8c8aff81161005b578063b8c8aff8146101ba578063c88641a2146101cd578063d8e4e93e146101e057600080fd5b806392fede001461018c57806395244b94146101945780639d6fa618146101a757600080fd5b80636651f11d116100b25780636651f11d1461013c5780637b371107146101735780638da5cb5b1461017b57600080fd5b80630a21cc43146100d95780631a3dd0a5146100ee5780635f992fdd14610134575b600080fd5b6100ec6100e7366004610cb4565b6101f3565b005b6101176100fc366004610d18565b6000908152600260205260409020546001600160a01b031690565b6040516001600160a01b0390911681526020015b60405180910390f35b6100ec610260565b61016561014a366004610d31565b6001600160a01b031660009081526003602052604090205490565b60405190815260200161012b565b6100ec6102d9565b6000546001600160a01b0316610117565b6100ec610348565b6100ec6101a2366004610d4c565b6103a2565b6100ec6101b5366004610d31565b610406565b6101176101c8366004610d31565b61050b565b6100ec6101db366004610da6565b61054a565b6100ec6101ee366004610dea565b6105ae565b6000546001600160a01b031633146102525760405162461bcd60e51b815260206004820181905260248201527f4f776e61626c653a2063616c6c6572206973206e6f7420746865206f776e657260448201526064015b60405180910390fd5b61025c8282610612565b5050565b6001546001600160a01b031633146102ba5760405162461bcd60e51b815260206004820152601c60248201527f4f776e61626c653a206e6f74206f776e65722063616e646964617465000000006044820152606401610249565b6001805473ffffffffffffffffffffffffffffffffffffffff19169055565b6001546001600160a01b031633146103335760405162461bcd60e51b815260206004820152601c60248201527f4f776e61626c653a206e6f74206f776e65722063616e646964617465000000006044820152606401610249565b6001546102ba906001600160a01b03166106e6565b6000546001600160a01b031633146102ba5760405162461bcd60e51b815260206004820181905260248201527f4f776e61626c653a2063616c6c6572206973206e6f7420746865206f776e65726044820152606401610249565b6000546001600160a01b031633146103fc5760405162461bcd60e51b815260206004820181905260248201527f4f776e61626c653a2063616c6c6572206973206e6f7420746865206f776e65726044820152606401610249565b61025c8282610743565b6000546001600160a01b031633146104605760405162461bcd60e51b815260206004820181905260248201527f4f776e61626c653a2063616c6c6572206973206e6f7420746865206f776e65726044820152606401610249565b6001600160a01b0381166104dc5760405162461bcd60e51b815260206004820152602660248201527f4f776e61626c653a206e6577206f776e657220697320746865207a65726f206160448201527f64647265737300000000000000000000000000000000000000000000000000006064820152608401610249565b6001805473ffffffffffffffffffffffffffffffffffffffff19166001600160a01b0392909216919091179055565b6001600160a01b038116600090815260036020526040812054610543816000908152600260205260409020546001600160a01b031690565b9392505050565b6000546001600160a01b031633146105a45760405162461bcd60e51b815260206004820181905260248201527f4f776e61626c653a2063616c6c6572206973206e6f7420746865206f776e65726044820152606401610249565b61025c8282610812565b6000546001600160a01b031633146106085760405162461bcd60e51b815260206004820181905260248201527f4f776e61626c653a2063616c6c6572206973206e6f7420746865206f776e65726044820152606401610249565b61025c8282610997565b80518251146106895760405162461bcd60e51b815260206004820152602f60248201527f7365744e667454797065732066756e6374696f6e20696e666f726d6174696f6e60448201527f206172697479206d69736d6174636800000000000000000000000000000000006064820152608401610249565b60005b81518110156106e1576106d18382815181106106aa576106aa610e38565b60200260200101518383815181106106c4576106c4610e38565b6020026020010151610997565b6106da81610e4e565b905061068c565b505050565b600080546001600160a01b0383811673ffffffffffffffffffffffffffffffffffffffff19831681178455604051919092169283917f8be0079c531659141344cd1fd0a4f28419497f9722a3daafe3b4186f6b6457e09190a35050565b80518251146107ba5760405162461bcd60e51b815260206004820152603160248201527f7365744e46545065726d6974732066756e6374696f6e20696e666f726d61746960448201527f6f6e206172697479206d69736d617463680000000000000000000000000000006064820152608401610249565b60005b82518110156106e1576108028382815181106107db576107db610e38565b60200260200101518383815181106107f5576107f5610e38565b6020026020010151610812565b61080b81610e4e565b90506107bd565b6001600160a01b0382166108685760405162461bcd60e51b815260206004820152601b60248201527f6e6674436f6e7472616374206973207a65726f206164647265737300000000006044820152606401610249565b60405163f99a8ffb60e01b81526000907343cD0b93B7cDF165643D362aC74CED9Ec303Ea339063f99a8ffb906108a2908590600401610e75565b602060405180830381865af41580156108bf573d6000803e3d6000fd5b505050506040513d601f19601f820116820180604052508101906108e39190610ec3565b9050801561094f576000818152600260205260409020546001600160a01b031661094f5760405162461bcd60e51b815260206004820152601760248201527f4e46542074797065206e6f7420726567697374657265640000000000000000006044820152606401610249565b6001600160a01b038316600081815260036020526040808220849055518392917f903a211c8bcdc0ab18afc116fc4776504a9aac5c0121be0fda712d399017bd2291a3505050565b81516000036109e85760405162461bcd60e51b815260206004820152601060248201527f6e66745479706520697320656d707479000000000000000000000000000000006044820152606401610249565b60405163f99a8ffb60e01b81526000907343cD0b93B7cDF165643D362aC74CED9Ec303Ea339063f99a8ffb90610a22908690600401610e75565b602060405180830381865af4158015610a3f573d6000803e3d6000fd5b505050506040513d601f19601f82011682018060405250810190610a639190610ec3565b600081815260026020526040808220805473ffffffffffffffffffffffffffffffffffffffff19166001600160a01b03871690811790915590519293509183917f22be69269c1f7d73e73dcb25b710dd88c7aa1cf374c16d945def98df2107c2f891a3505050565b634e487b7160e01b600052604160045260246000fd5b604051601f8201601f1916810167ffffffffffffffff81118282101715610b0a57610b0a610acb565b604052919050565b600067ffffffffffffffff821115610b2c57610b2c610acb565b5060051b60200190565b600082601f830112610b4757600080fd5b813567ffffffffffffffff811115610b6157610b61610acb565b610b74601f8201601f1916602001610ae1565b818152846020838601011115610b8957600080fd5b816020850160208301376000918101602001919091529392505050565b600082601f830112610bb757600080fd5b81356020610bcc610bc783610b12565b610ae1565b82815260059290921b84018101918181019086841115610beb57600080fd5b8286015b84811015610c2b57803567ffffffffffffffff811115610c0f5760008081fd5b610c1d8986838b0101610b36565b845250918301918301610bef565b509695505050505050565b80356001600160a01b0381168114610c4d57600080fd5b919050565b600082601f830112610c6357600080fd5b81356020610c73610bc783610b12565b82815260059290921b84018101918181019086841115610c9257600080fd5b8286015b84811015610c2b57610ca781610c36565b8352918301918301610c96565b60008060408385031215610cc757600080fd5b823567ffffffffffffffff80821115610cdf57600080fd5b610ceb86838701610ba6565b93506020850135915080821115610d0157600080fd5b50610d0e85828601610c52565b9150509250929050565b600060208284031215610d2a57600080fd5b5035919050565b600060208284031215610d4357600080fd5b61054382610c36565b60008060408385031215610d5f57600080fd5b823567ffffffffffffffff80821115610d7757600080fd5b610d8386838701610c52565b93506020850135915080821115610d9957600080fd5b50610d0e85828601610ba6565b60008060408385031215610db957600080fd5b610dc283610c36565b9150602083013567ffffffffffffffff811115610dde57600080fd5b610d0e85828601610b36565b60008060408385031215610dfd57600080fd5b823567ffffffffffffffff811115610e1457600080fd5b610e2085828601610b36565b925050610e2f60208401610c36565b90509250929050565b634e487b7160e01b600052603260045260246000fd5b600060018201610e6e57634e487b7160e01b600052601160045260246000fd5b5060010190565b600060208083528351808285015260005b81811015610ea257858101830151858201604001528201610e86565b506000604082860101526040601f19601f8301168501019250505092915050565b600060208284031215610ed557600080fd5b505191905056fea164736f6c6343000813000a",
  "deployedBytecode": "0x608060405234801561001057600080fd5b50600436106100d45760003560e01c806392fede0011610081578063b8c8aff81161005b578063b8c8aff8146101ba578063c88641a2146101cd578063d8e4e93e146101e057600080fd5b806392fede001461018c57806395244b94146101945780639d6fa618146101a757600080fd5b80636651f11d116100b25780636651f11d1461013c5780637b371107146101735780638da5cb5b1461017b57600080fd5b80630a21cc43146100d95780631a3dd0a5146100ee5780635f992fdd14610134575b600080fd5b6100ec6100e7366004610cb4565b6101f3565b005b6101176100fc366004610d18565b6000908152600260205260409020546001600160a01b031690565b6040516001600160a01b0390911681526020015b60405180910390f35b6100ec610260565b61016561014a366004610d31565b6001600160a01b031660009081526003602052604090205490565b60405190815260200161012b565b6100ec6102d9565b6000546001600160a01b0316610117565b6100ec610348565b6100ec6101a2366004610d4c565b6103a2565b6100ec6101b5366004610d31565b610406565b6101176101c8366004610d31565b61050b565b6100ec6101db366004610da6565b61054a565b6100ec6101ee366004610dea565b6105ae565b6000546001600160a01b031633146102525760405162461bcd60e51b815260206004820181905260248201527f4f776e61626c653a2063616c6c6572206973206e6f7420746865206f776e657260448201526064015b60405180910390fd5b61025c8282610612565b5050565b6001546001600160a01b031633146102ba5760405162461bcd60e51b815260206004820152601c60248201527f4f776e61626c653a206e6f74206f776e65722063616e646964617465000000006044820152606401610249565b6001805473ffffffffffffffffffffffffffffffffffffffff19169055565b6001546001600160a01b031633146103335760405162461bcd60e51b815260206004820152601c60248201527f4f776e61626c653a206e6f74206f776e65722063616e646964617465000000006044820152606401610249565b6001546102ba906001600160a01b03166106e6565b6000546001600160a01b031633146102ba5760405162461bcd60e51b815260206004820181905260248201527f4f776e61626c653a2063616c6c6572206973206e6f7420746865206f776e65726044820152606401610249565b6000546001600160a01b031633146103fc5760405162461bcd60e51b815260206004820181905260248201527f4f776e61626c653a2063616c6c6572206973206e6f7420746865206f776e65726044820152606401610249565b61025c8282610743565b6000546001600160a01b031633146104605760405162461bcd60e51b815260206004820181905260248201527f4f776e61626c653a2063616c6c6572206973206e6f7420746865206f776e65726044820152606401610249565b6001600160a01b0381166104dc5760405162461bcd60e51b815260206004820152602660248201527f4f776e61626c653a206e6577206f776e657220697320746865207a65726f206160448201527f64647265737300000000000000000000000000000000000000000000000000006064820152608401610249565b6001805473ffffffffffffffffffffffffffffffffffffffff19166001600160a01b0392909216919091179055565b6001600160a01b038116600090815260036020526040812054610543816000908152600260205260409020546001600160a01b031690565b9392505050565b6000546001600160a01b031633146105a45760405162461bcd60e51b815260206004820181905260248201527f4f776e61626c653a2063616c6c6572206973206e6f7420746865206f776e65726044820152606401610249565b61025c8282610812565b6000546001600160a01b031633146106085760405162461bcd60e51b815260206004820181905260248201527f4f776e61626c653a2063616c6c6572206973206e6f7420746865206f776e65726044820152606401610249565b61025c8282610997565b80518251146106895760405162461bcd60e51b815260206004820152602f60248201527f7365744e667454797065732066756e6374696f6e20696e666f726d6174696f6e60448201527f206172697479206d69736d6174636800000000000000000000000000000000006064820152608401610249565b60005b81518110156106e1576106d18382815181106106aa576106aa610e38565b60200260200101518383815181106106c4576106c4610e38565b6020026020010151610997565b6106da81610e4e565b905061068c565b505050565b600080546001600160a01b0383811673ffffffffffffffffffffffffffffffffffffffff19831681178455604051919092169283917f8be0079c531659141344cd1fd0a4f28419497f9722a3daafe3b4186f6b6457e09190a35050565b80518251146107ba5760405162461bcd60e51b815260206004820152603160248201527f7365744e46545065726d6974732066756e6374696f6e20696e666f726d61746960448201527f6f6e206172697479206d69736d617463680000000000000000000000000000006064820152608401610249565b60005b82518110156106e1576108028382815181106107db576107db610e38565b60200260200101518383815181106107f5576107f5610e38565b6020026020010151610812565b61080b81610e4e565b90506107bd565b6001600160a01b0382166108685760405162461bcd60e51b815260206004820152601b60248201527f6e6674436f6e7472616374206973207a65726f206164647265737300000000006044820152606401610249565b60405163f99a8ffb60e01b815260009073__$b0ae3f603fa3e13f3b829da0b88d39db57$__9063f99a8ffb906108a2908590600401610e75565b602060405180830381865af41580156108bf573d6000803e3d6000fd5b505050506040513d601f19601f820116820180604052508101906108e39190610ec3565b9050801561094f576000818152600260205260409020546001600160a01b031661094f5760405162461bcd60e51b815260206004820152601760248201527f4e46542074797065206e6f7420726567697374657265640000000000000000006044820152606401610249565b6001600160a01b038316600081815260036020526040808220849055518392917f903a211c8bcdc0ab18afc116fc4776504a9aac5c0121be0fda712d399017bd2291a3505050565b81516000036109e85760405162461bcd60e51b815260206004820152601060248201527f6e66745479706520697320656d707479000000000000000000000000000000006044820152606401610249565b60405163f99a8ffb60e01b815260009073__$b0ae3f603fa3e13f3b829da0b88d39db57$__9063f99a8ffb90610a22908690600401610e75565b602060405180830381865af4158015610a3f573d6000803e3d6000fd5b505050506040513d601f19601f82011682018060405250810190610a639190610ec3565b600081815260026020526040808220805473ffffffffffffffffffffffffffffffffffffffff19166001600160a01b03871690811790915590519293509183917f22be69269c1f7d73e73dcb25b710dd88c7aa1cf374c16d945def98df2107c2f891a3505050565b634e487b7160e01b600052604160045260246000fd5b604051601f8201601f1916810167ffffffffffffffff81118282101715610b0a57610b0a610acb565b604052919050565b600067ffffffffffffffff821115610b2c57610b2c610acb565b5060051b60200190565b600082601f830112610b4757600080fd5b813567ffffffffffffffff811115610b6157610b61610acb565b610b74601f8201601f1916602001610ae1565b818152846020838601011115610b8957600080fd5b816020850160208301376000918101602001919091529392505050565b600082601f830112610bb757600080fd5b81356020610bcc610bc783610b12565b610ae1565b82815260059290921b84018101918181019086841115610beb57600080fd5b8286015b84811015610c2b57803567ffffffffffffffff811115610c0f5760008081fd5b610c1d8986838b0101610b36565b845250918301918301610bef565b509695505050505050565b80356001600160a01b0381168114610c4d57600080fd5b919050565b600082601f830112610c6357600080fd5b81356020610c73610bc783610b12565b82815260059290921b84018101918181019086841115610c9257600080fd5b8286015b84811015610c2b57610ca781610c36565b8352918301918301610c96565b60008060408385031215610cc757600080fd5b823567ffffffffffffffff80821115610cdf57600080fd5b610ceb86838701610ba6565b93506020850135915080821115610d0157600080fd5b50610d0e85828601610c52565b9150509250929050565b600060208284031215610d2a57600080fd5b5035919050565b600060208284031215610d4357600080fd5b61054382610c36565b60008060408385031215610d5f57600080fd5b823567ffffffffffffffff80821115610d7757600080fd5b610d8386838701610c52565b93506020850135915080821115610d9957600080fd5b50610d0e85828601610ba6565b60008060408385031215610db957600080fd5b610dc283610c36565b9150602083013567ffffffffffffffff811115610dde57600080fd5b610d0e85828601610b36565b60008060408385031215610dfd57600080fd5b823567ffffffffffffffff811115610e1457600080fd5b610e2085828601610b36565b925050610e2f60208401610c36565b90509250929050565b634e487b7160e01b600052603260045260246000fd5b600060018201610e6e57634e487b7160e01b600052601160045260246000fd5b5060010190565b600060208083528351808285015260005b81811015610ea257858101830151858201604001528201610e86565b506000604082860101526040601f19601f8301168501019250505092915050565b600060208284031215610ed557600080fd5b505191905056fea164736f6c6343000813000a",
  "libraries": {
    "ContractKeyUtils": "0x43cD0b93B7cDF165643D362aC74CED9Ec303Ea33"
  },
  "devdoc": {
    "author": "NFTfi",
    "details": "Registry for NFT contracts supported by NFTfi. Each NFT is associated with an NFT Type.",
    "events": {
      "NFTPermit(address,bytes32)": {
        "params": {
          "nftContract": "- Address of the NFT contract.",
          "nftType": "- NTF type e.g. bytes32(\"CRYPTO_KITTIES\")"
        }
      },
      "TypeUpdated(bytes32,address)": {
        "params": {
          "nftType": "- Nft type represented by keccak256('nft type').",
          "nftWrapper": "- Address of the wrapper contract."
        }
      }
    },
    "kind": "dev",
    "methods": {
      "constructor": {
        "details": "Sets `nftTypeRegistry` Initialize `nftPermits` with a batch of permitted NFTs",
        "params": {
          "_admin": "- Initial admin of this contract.",
          "_definedNftTypes": "- All the ossible nft types",
          "_definedNftWrappers": "- All the possible wrappers for the types",
          "_permittedNftContracts": "- The addresses of the NFT contracts.",
          "_permittedNftTypes": "- The NFT Types. e.g. \"CRYPTO_KITTIES\" - \"\" means \"disable this permit\" - != \"\" means \"enable permit with the given NFT Type\""
        }
      },
      "getNFTPermit(address)": {
        "params": {
          "_nftContract": "- The address of the NFT contract."
        }
      },
      "getNFTWrapper(address)": {
        "params": {
          "_nftContract": "- The address of the NFT contract."
        }
      },
      "getNftTypeWrapper(bytes32)": {
        "params": {
          "_nftType": "- The nft type, e.g. bytes32(\"ERC721\"), or bytes32(\"ERC1155\")."
        }
      },
      "owner()": {
        "details": "Returns the address of the current owner."
      },
      "requestTransferOwnership(address)": {
        "details": "Requests transferring ownership of the contract to a new account (`_newOwnerCandidate`). Can only be called by the current owner."
      },
      "setNFTPermit(address,string)": {
        "params": {
          "_nftContract": "- The address of the NFT contract.",
          "_nftType": "- The NFT Type. e.g. \"CRYPTO_KITTIES\" - \"\" means \"disable this permit\" - != \"\" means \"enable permit with the given NFT Type\""
        }
      },
      "setNFTPermits(address[],string[])": {
        "params": {
          "_nftContracts": "- The addresses of the NFT contracts.",
          "_nftTypes": "- The NFT Types. e.g. \"CRYPTO_KITTIES\" - \"\" means \"disable this permit\" - != \"\" means \"enable permit with the given NFT Type\""
        }
      },
      "setNftType(string,address)": {
        "params": {
          "_nftType": "- The nft type, e.g. \"ERC721\", or \"ERC1155\".",
          "_nftWrapper": "- The address of the wrapper contract that implements INftWrapper behaviour for dealing with NFTs."
        }
      },
      "setNftTypes(string[],address[])": {
        "params": {
          "_nftTypes": "- The nft types, e.g. \"ERC721\", or \"ERC1155\".",
          "_nftWrappers": "- The addresses of the wrapper contract that implements INftWrapper behaviour for dealing with NFTs."
        }
      }
    },
    "title": "PermittedNFTsAndTypeRegistry",
    "version": 1
  },
  "userdoc": {
    "events": {
      "NFTPermit(address,bytes32)": {
        "notice": "This event is fired whenever the admin sets a NFT's permit."
      },
      "TypeUpdated(bytes32,address)": {
        "notice": "This event is fired whenever the admins register a ntf type."
      }
    },
    "kind": "user",
    "methods": {
      "getNFTPermit(address)": {
        "notice": "This function can be called by anyone to lookup the Nft Type associated with the contract.Returns the NFT Type: - bytes32(\"\") means \"not permitted\" - != bytes32(\"\") means \"permitted with the given NFT Type\""
      },
      "getNFTWrapper(address)": {
        "notice": "This function can be called by anyone to lookup the address of the NftWrapper associated to the `_nftContract` type."
      },
      "getNftTypeWrapper(bytes32)": {
        "notice": "This function can be called by anyone to get the contract address that implements the given nft type."
      },
      "setNFTPermit(address,string)": {
        "notice": "This function can be called by admins to change the permitted list status of an NFT contract. This includes both adding an NFT contract to the permitted list and removing it. `_nftContract` can not be zero address."
      },
      "setNFTPermits(address[],string[])": {
        "notice": "This function can be called by admins to change the permitted list status of a batch NFT contracts. This includes both adding an NFT contract to the permitted list and removing it. `_nftContract` can not be zero address."
      },
      "setNftType(string,address)": {
        "notice": "Set or update the wrapper contract address for the given NFT Type. Set address(0) for a nft type for un-register such type."
      },
      "setNftTypes(string[],address[])": {
        "notice": "Batch set or update the wrappers contract address for the given batch of NFT Types. Set address(0) for a nft type for un-register such type."
      }
    },
    "version": 1
  },
  "storageLayout": {
    "storage": [
      {
        "astId": 25956,
        "contract": "contracts/permittedLists/PermittedNFTsAndTypeRegistry.sol:PermittedNFTsAndTypeRegistry",
        "label": "_owner",
        "offset": 0,
        "slot": "0",
        "type": "t_address"
      },
      {
        "astId": 25958,
        "contract": "contracts/permittedLists/PermittedNFTsAndTypeRegistry.sol:PermittedNFTsAndTypeRegistry",
        "label": "_ownerCandidate",
        "offset": 0,
        "slot": "1",
        "type": "t_address"
      },
      {
        "astId": 17625,
        "contract": "contracts/permittedLists/PermittedNFTsAndTypeRegistry.sol:PermittedNFTsAndTypeRegistry",
        "label": "nftTypes",
        "offset": 0,
        "slot": "2",
        "type": "t_mapping(t_bytes32,t_address)"
      },
      {
        "astId": 17630,
        "contract": "contracts/permittedLists/PermittedNFTsAndTypeRegistry.sol:PermittedNFTsAndTypeRegistry",
        "label": "nftPermits",
        "offset": 0,
        "slot": "3",
        "type": "t_mapping(t_address,t_bytes32)"
      }
    ],
    "types": {
      "t_address": {
        "encoding": "inplace",
        "label": "address",
        "numberOfBytes": "20"
      },
      "t_bytes32": {
        "encoding": "inplace",
        "label": "bytes32",
        "numberOfBytes": "32"
      },
      "t_mapping(t_address,t_bytes32)": {
        "encoding": "mapping",
        "key": "t_address",
        "label": "mapping(address => bytes32)",
        "numberOfBytes": "32",
        "value": "t_bytes32"
      },
      "t_mapping(t_bytes32,t_address)": {
        "encoding": "mapping",
        "key": "t_bytes32",
        "label": "mapping(bytes32 => address)",
        "numberOfBytes": "32",
        "value": "t_address"
      }
    }
  }
}