{
  "address": "0xdF981800FdDE41e19d7F5d47030CBC0F988e17a6",
  "abi": [
    {
      "inputs": [
        {
          "internalType": "address",
          "name": "_nftfiHub",
          "type": "address"
        },
        {
          "internalType": "address",
          "name": "_admin",
          "type": "address"
        },
        {
          "internalType": "string[]",
          "name": "_offerTypes",
          "type": "string[]"
        },
        {
          "internalType": "address[]",
          "name": "_loanContracts",
          "type": "address[]"
        }
      ],
      "stateMutability": "nonpayable",
      "type": "constructor"
    },
    {
      "inputs": [],
      "name": "AlreadyInitialized",
      "type": "error"
    },
    {
      "inputs": [],
      "name": "CallerNotLoanCreatorContract",
      "type": "error"
    },
    {
      "inputs": [],
      "name": "DisabledLoanContract",
      "type": "error"
    },
    {
      "inputs": [],
      "name": "FunctionInformationArityMismatch",
      "type": "error"
    },
    {
      "inputs": [],
      "name": "InvalidNonce",
      "type": "error"
    },
    {
      "inputs": [],
      "name": "LoanContractAlreadyRegistered",
      "type": "error"
    },
    {
      "inputs": [],
      "name": "LoanStatusMustBeNEW",
      "type": "error"
    },
    {
      "inputs": [],
      "name": "NotInitialized",
      "type": "error"
    },
    {
      "inputs": [],
      "name": "NotRegisteredLoanContract",
      "type": "error"
    },
    {
      "inputs": [],
      "name": "ObligationReceiptAlreadyExists",
      "type": "error"
    },
    {
      "inputs": [],
      "name": "ObligationReceiptZeroAddress",
      "type": "error"
    },
    {
      "inputs": [],
      "name": "OfferTypeIsEmpty",
      "type": "error"
    },
    {
      "inputs": [],
      "name": "OnlyDeployer",
      "type": "error"
    },
    {
      "inputs": [],
      "name": "PromissoryNoteAlreadyExists",
      "type": "error"
    },
    {
      "inputs": [],
      "name": "PromissoryNoteDoesntExist",
      "type": "error"
    },
    {
      "inputs": [],
      "name": "PromissoryNoteZeroAddress",
      "type": "error"
    },
    {
      "anonymous": false,
      "inputs": [
        {
          "indexed": true,
          "internalType": "address",
          "name": "previousOwner",
          "type": "address"
        },
        {
          "indexed": true,
          "internalType": "address",
          "name": "newOwner",
          "type": "address"
        }
      ],
      "name": "OwnershipTransferred",
      "type": "event"
    },
    {
      "anonymous": false,
      "inputs": [
        {
          "indexed": true,
          "internalType": "bytes32",
          "name": "offerType",
          "type": "bytes32"
        },
        {
          "indexed": true,
          "internalType": "address",
          "name": "loanContract",
          "type": "address"
        }
      ],
      "name": "TypeUpdated",
      "type": "event"
    },
    {
      "anonymous": false,
      "inputs": [
        {
          "indexed": true,
          "internalType": "uint32",
          "name": "loanId",
          "type": "uint32"
        },
        {
          "indexed": true,
          "internalType": "address",
          "name": "loanContract",
          "type": "address"
        },
        {
          "indexed": false,
          "internalType": "enum ILoanCoordinator.StatusType",
          "name": "newStatus",
          "type": "uint8"
        }
      ],
      "name": "UpdateStatus",
      "type": "event"
    },
    {
      "inputs": [],
      "name": "acceptTransferOwnership",
      "outputs": [],
      "stateMutability": "nonpayable",
      "type": "function"
    },
    {
      "inputs": [
        {
          "internalType": "bytes32",
          "name": "_offerType",
          "type": "bytes32"
        },
        {
          "internalType": "uint256",
          "name": "_nonce",
          "type": "uint256"
        }
      ],
      "name": "cancelLoanCommitment",
      "outputs": [],
      "stateMutability": "nonpayable",
      "type": "function"
    },
    {
      "inputs": [],
      "name": "cancelTransferOwnership",
      "outputs": [],
      "stateMutability": "nonpayable",
      "type": "function"
    },
    {
      "inputs": [
        {
          "internalType": "address",
          "name": "_user",
          "type": "address"
        },
        {
          "internalType": "uint256",
          "name": "_nonce",
          "type": "uint256"
        }
      ],
      "name": "checkAndInvalidateNonce",
      "outputs": [],
      "stateMutability": "nonpayable",
      "type": "function"
    },
    {
      "inputs": [
        {
          "internalType": "address",
          "name": "_user",
          "type": "address"
        },
        {
          "internalType": "uint256",
          "name": "_nonce",
          "type": "uint256"
        }
      ],
      "name": "checkNonce",
      "outputs": [],
      "stateMutability": "view",
      "type": "function"
    },
    {
      "inputs": [
        {
          "internalType": "string",
          "name": "_offerType",
          "type": "string"
        },
        {
          "internalType": "address",
          "name": "_loanContract",
          "type": "address"
        }
      ],
      "name": "deleteOfferType",
      "outputs": [],
      "stateMutability": "nonpayable",
      "type": "function"
    },
    {
      "inputs": [
        {
          "internalType": "address",
          "name": "_loanContract",
          "type": "address"
        }
      ],
      "name": "disableLoanContract",
      "outputs": [],
      "stateMutability": "nonpayable",
      "type": "function"
    },
    {
      "inputs": [
        {
          "internalType": "address",
          "name": "_loanContract",
          "type": "address"
        }
      ],
      "name": "enableLoanContract",
      "outputs": [],
      "stateMutability": "nonpayable",
      "type": "function"
    },
    {
      "inputs": [
        {
          "internalType": "bytes32",
          "name": "_offerType",
          "type": "bytes32"
        }
      ],
      "name": "getDefaultLoanContractForOfferType",
      "outputs": [
        {
          "internalType": "address",
          "name": "",
          "type": "address"
        }
      ],
      "stateMutability": "view",
      "type": "function"
    },
    {
      "inputs": [
        {
          "internalType": "uint32",
          "name": "_loanId",
          "type": "uint32"
        }
      ],
      "name": "getLoanData",
      "outputs": [
        {
          "components": [
            {
              "internalType": "address",
              "name": "loanContract",
              "type": "address"
            },
            {
              "internalType": "uint64",
              "name": "smartNftId",
              "type": "uint64"
            },
            {
              "internalType": "enum ILoanCoordinator.StatusType",
              "name": "status",
              "type": "uint8"
            }
          ],
          "internalType": "struct ILoanCoordinator.Loan",
          "name": "",
          "type": "tuple"
        }
      ],
      "stateMutability": "view",
      "type": "function"
    },
    {
      "inputs": [
        {
          "internalType": "uint32",
          "name": "_loanId",
          "type": "uint32"
        }
      ],
      "name": "getLoanDataAndOfferType",
      "outputs": [
        {
          "components": [
            {
              "internalType": "address",
              "name": "loanContract",
              "type": "address"
            },
            {
              "internalType": "uint64",
              "name": "smartNftId",
              "type": "uint64"
            },
            {
              "internalType": "enum ILoanCoordinator.StatusType",
              "name": "status",
              "type": "uint8"
            }
          ],
          "internalType": "struct ILoanCoordinator.Loan",
          "name": "",
          "type": "tuple"
        },
        {
          "internalType": "bytes32",
          "name": "",
          "type": "bytes32"
        }
      ],
      "stateMutability": "view",
      "type": "function"
    },
    {
      "inputs": [
        {
          "internalType": "address",
          "name": "_loanContract",
          "type": "address"
        }
      ],
      "name": "getTypeOfLoanContract",
      "outputs": [
        {
          "internalType": "bytes32",
          "name": "",
          "type": "bytes32"
        }
      ],
      "stateMutability": "view",
      "type": "function"
    },
    {
      "inputs": [
        {
          "internalType": "bytes32",
          "name": "_offerType",
          "type": "bytes32"
        },
        {
          "internalType": "address",
          "name": "_user",
          "type": "address"
        },
        {
          "internalType": "uint256",
          "name": "_nonce",
          "type": "uint256"
        }
      ],
      "name": "getWhetherNonceHasBeenUsedForUser",
      "outputs": [
        {
          "internalType": "bool",
          "name": "",
          "type": "bool"
        }
      ],
      "stateMutability": "view",
      "type": "function"
    },
    {
      "inputs": [],
      "name": "hub",
      "outputs": [
        {
          "internalType": "contract INftfiHub",
          "name": "",
          "type": "address"
        }
      ],
      "stateMutability": "view",
      "type": "function"
    },
    {
      "inputs": [
        {
          "internalType": "address",
          "name": "_promissoryNoteToken",
          "type": "address"
        },
        {
          "internalType": "address",
          "name": "_obligationReceiptToken",
          "type": "address"
        }
      ],
      "name": "initialize",
      "outputs": [],
      "stateMutability": "nonpayable",
      "type": "function"
    },
    {
      "inputs": [
        {
          "internalType": "address",
          "name": "_loanContract",
          "type": "address"
        }
      ],
      "name": "isLoanContractDisabled",
      "outputs": [
        {
          "internalType": "bool",
          "name": "",
          "type": "bool"
        }
      ],
      "stateMutability": "view",
      "type": "function"
    },
    {
      "inputs": [
        {
          "internalType": "uint32",
          "name": "_loanId",
          "type": "uint32"
        },
        {
          "internalType": "address",
          "name": "_loanContract",
          "type": "address"
        }
      ],
      "name": "isValidLoanId",
      "outputs": [
        {
          "internalType": "bool",
          "name": "validity",
          "type": "bool"
        }
      ],
      "stateMutability": "view",
      "type": "function"
    },
    {
      "inputs": [
        {
          "internalType": "uint32",
          "name": "_loanId",
          "type": "uint32"
        },
        {
          "internalType": "address",
          "name": "_borrower",
          "type": "address"
        }
      ],
      "name": "mintObligationReceipt",
      "outputs": [],
      "stateMutability": "nonpayable",
      "type": "function"
    },
    {
      "inputs": [
        {
          "internalType": "uint32",
          "name": "_loanId",
          "type": "uint32"
        },
        {
          "internalType": "address",
          "name": "_lender",
          "type": "address"
        }
      ],
      "name": "mintPromissoryNote",
      "outputs": [],
      "stateMutability": "nonpayable",
      "type": "function"
    },
    {
      "inputs": [],
      "name": "obligationReceiptToken",
      "outputs": [
        {
          "internalType": "address",
          "name": "",
          "type": "address"
        }
      ],
      "stateMutability": "view",
      "type": "function"
    },
    {
      "inputs": [],
      "name": "owner",
      "outputs": [
        {
          "internalType": "address",
          "name": "",
          "type": "address"
        }
      ],
      "stateMutability": "view",
      "type": "function"
    },
    {
      "inputs": [],
      "name": "promissoryNoteToken",
      "outputs": [
        {
          "internalType": "address",
          "name": "",
          "type": "address"
        }
      ],
      "stateMutability": "view",
      "type": "function"
    },
    {
      "inputs": [],
      "name": "registerLoan",
      "outputs": [
        {
          "internalType": "uint32",
          "name": "",
          "type": "uint32"
        }
      ],
      "stateMutability": "nonpayable",
      "type": "function"
    },
    {
      "inputs": [
        {
          "internalType": "string",
          "name": "_offerType",
          "type": "string"
        },
        {
          "internalType": "address",
          "name": "_loanContract",
          "type": "address"
        }
      ],
      "name": "registerOfferType",
      "outputs": [],
      "stateMutability": "nonpayable",
      "type": "function"
    },
    {
      "inputs": [
        {
          "internalType": "string[]",
          "name": "_offerTypes",
          "type": "string[]"
        },
        {
          "internalType": "address[]",
          "name": "_loanContracts",
          "type": "address[]"
        }
      ],
      "name": "registerOfferTypes",
      "outputs": [],
      "stateMutability": "nonpayable",
      "type": "function"
    },
    {
      "inputs": [],
      "name": "rejectTransferOwnership",
      "outputs": [],
      "stateMutability": "nonpayable",
      "type": "function"
    },
    {
      "inputs": [
        {
          "internalType": "address",
          "name": "_newOwnerCandidate",
          "type": "address"
        }
      ],
      "name": "requestTransferOwnership",
      "outputs": [],
      "stateMutability": "nonpayable",
      "type": "function"
    },
    {
      "inputs": [
        {
          "internalType": "uint32",
          "name": "_loanId",
          "type": "uint32"
        }
      ],
      "name": "resetSmartNfts",
      "outputs": [],
      "stateMutability": "nonpayable",
      "type": "function"
    },
    {
      "inputs": [
        {
          "internalType": "uint32",
          "name": "_loanId",
          "type": "uint32"
        },
        {
          "internalType": "bool",
          "name": "_repaid",
          "type": "bool"
        }
      ],
      "name": "resolveLoan",
      "outputs": [],
      "stateMutability": "nonpayable",
      "type": "function"
    },
    {
      "inputs": [],
      "name": "smartNftIdCounter",
      "outputs": [
        {
          "internalType": "uint32",
          "name": "",
          "type": "uint32"
        }
      ],
      "stateMutability": "view",
      "type": "function"
    },
    {
      "inputs": [],
      "name": "totalNumLoans",
      "outputs": [
        {
          "internalType": "uint32",
          "name": "",
          "type": "uint32"
        }
      ],
      "stateMutability": "view",
      "type": "function"
    }
  ],
  "transactionHash": "0x8b4fe7b5ff3d12e6cda15cfd672b1d19e0154f0896cec6fa4949d44dbeafd025",
  "args": [
    "0x7e4Dbdb623fBD48b01aF813aC324228575D04834",
    "0x02e037F56728E947e92Af2c05baF7FeF387Ddd06",
    [
      "ASSET_OFFER_LOAN",
      "COLLECTION_OFFER_LOAN"
    ],
    [
      "0xc458E095F8B38CfE0a17A1870B9B65336017709D",
      "0xab5f43a1c16126a93a44A49dB593CA4aD1721b65"
    ]
  ],
  "numDeployments": 2,
  "solcInputHash": "bab281e5640fb4f8a58586b3f548739e",
  "bytecode": "0x60c0604052600580546001600160481b03191690553480156200002157600080fd5b5060405162002a1538038062002a158339810160408190526200004491620003ce565b82620000508162000078565b506001600160a01b0384166080523360a0526200006e8282620000c8565b50505050620005be565b600080546001600160a01b038381166001600160a01b0319831681178455604051919092169283917f8be0079c531659141344cd1fd0a4f28419497f9722a3daafe3b4186f6b6457e09190a35050565b8051825114620000ea57604051621dbe8b60e81b815260040160405180910390fd5b60005b825181101562000154576200014183828151811062000110576200011062000531565b60200260200101518383815181106200012d576200012d62000531565b60200260200101516200015960201b60201c565b6200014c8162000547565b9050620000ed565b505050565b81516000036200017c57604051632b22879560e01b815260040160405180910390fd5b60405163f99a8ffb60e01b8152600090732ffF031e525a20fcF8944aC7Cf3Bdcc3b19a6D779063f99a8ffb90620001b89086906004016200056f565b602060405180830381865af4158015620001d6573d6000803e3d6000fd5b505050506040513d601f19601f82011682018060405250810190620001fc9190620005a4565b6001600160a01b038316600090815260036020526040902054909150156200023757604051633844387360e11b815260040160405180910390fd5b600081815260026020908152604080832080546001600160a01b0319166001600160a01b038716908117909155808452600390925280832084905551909183917f22be69269c1f7d73e73dcb25b710dd88c7aa1cf374c16d945def98df2107c2f89190a3505050565b80516001600160a01b0381168114620002b857600080fd5b919050565b634e487b7160e01b600052604160045260246000fd5b604051601f8201601f191681016001600160401b0381118282101715620002fe57620002fe620002bd565b604052919050565b60006001600160401b03821115620003225762000322620002bd565b5060051b60200190565b60005b83811015620003495781810151838201526020016200032f565b50506000910152565b600082601f8301126200036457600080fd5b815160206200037d620003778362000306565b620002d3565b82815260059290921b840181019181810190868411156200039d57600080fd5b8286015b84811015620003c357620003b581620002a0565b8352918301918301620003a1565b509695505050505050565b60008060008060808587031215620003e557600080fd5b620003f085620002a0565b9350602062000401818701620002a0565b60408701519094506001600160401b03808211156200041f57600080fd5b818801915088601f8301126200043457600080fd5b815162000445620003778262000306565b81815260059190911b8301840190848101908b8311156200046557600080fd5b8585015b83811015620004fa57805185811115620004835760008081fd5b8601603f81018e13620004965760008081fd5b8781015186811115620004ad57620004ad620002bd565b620004c1601f8201601f19168a01620002d3565b8181528f6040838501011115620004d85760008081fd5b620004ea828b8301604086016200032c565b8552505091860191860162000469565b5060608b015190975094505050808311156200051557600080fd5b5050620005258782880162000352565b91505092959194509250565b634e487b7160e01b600052603260045260246000fd5b6000600182016200056857634e487b7160e01b600052601160045260246000fd5b5060010190565b6020815260008251806020840152620005908160408501602087016200032c565b601f01601f19169190910160400192915050565b600060208284031215620005b757600080fd5b5051919050565b60805160a051612431620005e460003960006109f90152600061023d01526124316000f3fe608060405234801561001057600080fd5b50600436106101e55760003560e01c80637b3711071161010f578063a4d0845d116100a2578063c5d50bdb11610071578063c5d50bdb146104c8578063e6c5a541146104db578063f74ad799146104fb578063fc0309151461050e57600080fd5b8063a4d0845d1461045a578063a591bbb31461046d578063aaf5f564146104ad578063ae734629146104b557600080fd5b80638da5cb5b116100de5780638da5cb5b1461040557806392fede00146104165780639d6fa6181461041e578063a06c62b01461043157600080fd5b80637b371107146103b65780637ccb6d99146103be5780638208e76c146103d157806388e5d918146103e457600080fd5b80634cd93354116101875780635794fefc116101565780635794fefc1461033b5780635f992fdd1461034b57806368bc155d1461035357806378a7fa671461037f57600080fd5b80634cd93354146102a25780634fbe68a0146102b557806352a067e5146102c85780635509a9e91461030e57600080fd5b80631ef3c4fc116101c35780631ef3c4fc14610225578063365a86fc1461023857806338b193a41461027c578063485cc9551461028f57600080fd5b80631000daee146101ea57806318e5a251146101ff5780631b982cf114610212575b600080fd5b6101fd6101f8366004611f18565b610521565b005b6101fd61020d366004611f66565b61058e565b6101fd610220366004611f9c565b6105ff565b6101fd61023336600461205c565b6108f8565b61025f7f000000000000000000000000000000000000000000000000000000000000000081565b6040516001600160a01b0390911681526020015b60405180910390f35b6101fd61028a366004612130565b61095c565b6101fd61029d36600461215a565b6109ee565b6101fd6102b0366004611f18565b610b5a565b60075461025f906001600160a01b031681565b6102fe6102d6366004611f9c565b63ffffffff9091166000908152600660205260409020546001600160a01b0390811691161490565b6040519015158152602001610273565b60055461032690640100000000900463ffffffff1681565b60405163ffffffff9091168152602001610273565b6005546103269063ffffffff1681565b6101fd610c85565b6102fe610361366004612176565b6001600160a01b031660009081526004602052604090205460ff1690565b6103a861038d366004612176565b6001600160a01b031660009081526003602052604090205490565b604051908152602001610273565b6101fd610cf1565b6101fd6103cc366004612198565b610d60565b60085461025f906001600160a01b031681565b6103f76103f2366004612198565b610fe5565b60405161027392919061221e565b6000546001600160a01b031661025f565b6101fd6110a7565b6101fd61042c366004612176565b611101565b61025f61043f366004612239565b6000908152600260205260409020546001600160a01b031690565b6101fd610468366004612263565b6111f9565b6102fe61047b36600461229a565b60009283526009602090815260408085206001600160a01b039490941685529281528284209184525290205460ff1690565b610326611555565b6101fd6104c3366004612130565b611762565b6101fd6104d6366004612176565b6117bb565b6104ee6104e9366004612198565b611836565b60405161027391906122cf565b6101fd610509366004612176565b6118da565b6101fd61051c366004611f9c565b611958565b6000546001600160a01b031633146105805760405162461bcd60e51b815260206004820181905260248201527f4f776e61626c653a2063616c6c6572206973206e6f7420746865206f776e657260448201526064015b60405180910390fd5b61058a8282611bf0565b5050565b6000828152600960209081526040808320338452825280832084845290915290205460ff16156105d157604051633ab3447f60e11b815260040160405180910390fd5b600091825260096020908152604080842033855282528084209284529190529020805460ff19166001179055565b600554600160401b900460ff16610629576040516321c4e35760e21b815260040160405180910390fd5b33600081815260036020526040902054610656576040516383b1311f60e01b815260040160405180910390fd5b63ffffffff8316600090815260066020526040812054600160a01b900467ffffffffffffffff1690819003610720576001600560048282829054906101000a900463ffffffff166106a791906122f9565b82546101009290920a63ffffffff818102199093169190921691909102179055506005546040513060601b6bffffffffffffffffffffffff1916602082015264010000000090910460e01b6001600160e01b03191660348201526038016040516020818303038152906040528051906020012060001c90505b600163ffffffff8516600090815260066020526040902054600160e01b900460ff166003811115610753576107536121b3565b146107715760405163764d926f60e11b815260040160405180910390fd5b600854604051634f558e7960e01b815267ffffffffffffffff831660048201526001600160a01b0390911690634f558e7990602401602060405180830381865afa1580156107c3573d6000803e3d6000fd5b505050506040513d601f19601f820116820180604052508101906107e7919061231d565b1561081e576040517f0e36e12d00000000000000000000000000000000000000000000000000000000815260040160405180910390fd5b63ffffffff841660008181526006602090815260409182902080547fffffffff0000000000000000ffffffffffffffffffffffffffffffffffffffff16600160a01b67ffffffffffffffff8716021790556008548251918201939093526001600160a01b03909216916394d008ef9186918591015b6040516020818303038152906040526040518463ffffffff1660e01b81526004016108c093929190612380565b600060405180830381600087803b1580156108da57600080fd5b505af11580156108ee573d6000803e3d6000fd5b5050505050505050565b6000546001600160a01b031633146109525760405162461bcd60e51b815260206004820181905260248201527f4f776e61626c653a2063616c6c6572206973206e6f7420746865206f776e65726044820152606401610577565b61058a8282611d62565b33600090815260036020908152604080832054808452600983528184206001600160a01b038716855283528184208585529092529091205460ff16156109b557604051633ab3447f60e11b815260040160405180910390fd5b60009081526009602090815260408083206001600160a01b0390951683529381528382209282529190915220805460ff19166001179055565b336001600160a01b037f00000000000000000000000000000000000000000000000000000000000000001614610a50576040517f618bbdd500000000000000000000000000000000000000000000000000000000815260040160405180910390fd5b600554600160401b900460ff1615610a94576040517f0dc149f000000000000000000000000000000000000000000000000000000000815260040160405180910390fd5b6001600160a01b038216610ad4576040517f9b40fba500000000000000000000000000000000000000000000000000000000815260040160405180910390fd5b6001600160a01b038116610b14576040517f5e4f163300000000000000000000000000000000000000000000000000000000815260040160405180910390fd5b6005805468ff00000000000000001916600160401b179055600780546001600160a01b039384166001600160a01b03199182161790915560088054929093169116179055565b6000546001600160a01b03163314610bb45760405162461bcd60e51b815260206004820181905260248201527f4f776e61626c653a2063616c6c6572206973206e6f7420746865206f776e65726044820152606401610577565b60405163f99a8ffb60e01b8152600090732ffF031e525a20fcF8944aC7Cf3Bdcc3b19a6D779063f99a8ffb90610bee9086906004016123bb565b602060405180830381865af4158015610c0b573d6000803e3d6000fd5b505050506040513d601f19601f82011682018060405250810190610c2f91906123ce565b6001600160a01b0380841660008181526003602090815260408083208390558583526002909152902054929350911603610c8057600081815260026020526040902080546001600160a01b03191690555b505050565b6001546001600160a01b03163314610cdf5760405162461bcd60e51b815260206004820152601c60248201527f4f776e61626c653a206e6f74206f776e65722063616e646964617465000000006044820152606401610577565b600180546001600160a01b0319169055565b6001546001600160a01b03163314610d4b5760405162461bcd60e51b815260206004820152601c60248201527f4f776e61626c653a206e6f74206f776e65722063616e646964617465000000006044820152606401610577565b600154610cdf906001600160a01b0316611df5565b600554600160401b900460ff16610d8a576040516321c4e35760e21b815260040160405180910390fd5b33600081815260036020526040902054610db7576040516383b1311f60e01b815260040160405180910390fd5b63ffffffff8216600090815260066020526040902054600160a01b810467ffffffffffffffff1690600190600160e01b900460ff166003811115610dfd57610dfd6121b3565b14610e1b5760405163764d926f60e11b815260040160405180910390fd5b600754604051634f558e7960e01b815267ffffffffffffffff831660048201526001600160a01b0390911690634f558e7990602401602060405180830381865afa158015610e6d573d6000803e3d6000fd5b505050506040513d601f19601f82011682018060405250810190610e91919061231d565b15610efe57600754604051630852cd8d60e31b815267ffffffffffffffff831660048201526001600160a01b03909116906342966c6890602401600060405180830381600087803b158015610ee557600080fd5b505af1158015610ef9573d6000803e3d6000fd5b505050505b600854604051634f558e7960e01b815267ffffffffffffffff831660048201526001600160a01b0390911690634f558e7990602401602060405180830381865afa158015610f50573d6000803e3d6000fd5b505050506040513d601f19601f82011682018060405250810190610f74919061231d565b15610c8057600854604051630852cd8d60e31b815267ffffffffffffffff831660048201526001600160a01b03909116906342966c6890602401600060405180830381600087803b158015610fc857600080fd5b505af1158015610fdc573d6000803e3d6000fd5b50505050505050565b61100660408051606081018252600080825260208201819052909182015290565b63ffffffff82166000908152600660209081526040808320815160608101835281546001600160a01b0381168252600160a01b810467ffffffffffffffff169482019490945284939092830190600160e01b900460ff16600381111561106e5761106e6121b3565b600381111561107f5761107f6121b3565b90525080516001600160a01b0316600090815260036020526040902054909590945092505050565b6000546001600160a01b03163314610cdf5760405162461bcd60e51b815260206004820181905260248201527f4f776e61626c653a2063616c6c6572206973206e6f7420746865206f776e65726044820152606401610577565b6000546001600160a01b0316331461115b5760405162461bcd60e51b815260206004820181905260248201527f4f776e61626c653a2063616c6c6572206973206e6f7420746865206f776e65726044820152606401610577565b6001600160a01b0381166111d75760405162461bcd60e51b815260206004820152602660248201527f4f776e61626c653a206e6577206f776e657220697320746865207a65726f206160448201527f64647265737300000000000000000000000000000000000000000000000000006064820152608401610577565b600180546001600160a01b0319166001600160a01b0392909216919091179055565b600554600160401b900460ff16611223576040516321c4e35760e21b815260040160405180910390fd5b63ffffffff8216600090815260066020526040902060018154600160e01b900460ff166003811115611257576112576121b3565b146112755760405163764d926f60e11b815260040160405180910390fd5b80546001600160a01b031633146112b8576040517f7718cadf00000000000000000000000000000000000000000000000000000000815260040160405180910390fd5b81156112ed57805460ff60e01b19167c0200000000000000000000000000000000000000000000000000000000178155611318565b805460ff60e01b19167c03000000000000000000000000000000000000000000000000000000001781555b6007548154604051634f558e7960e01b8152600160a01b90910467ffffffffffffffff1660048201526001600160a01b0390911690634f558e7990602401602060405180830381865afa158015611373573d6000803e3d6000fd5b505050506040513d601f19601f82011682018060405250810190611397919061231d565b1561140d576007548154604051630852cd8d60e31b8152600160a01b90910467ffffffffffffffff1660048201526001600160a01b03909116906342966c6890602401600060405180830381600087803b1580156113f457600080fd5b505af1158015611408573d6000803e3d6000fd5b505050505b6008548154604051634f558e7960e01b8152600160a01b90910467ffffffffffffffff1660048201526001600160a01b0390911690634f558e7990602401602060405180830381865afa158015611468573d6000803e3d6000fd5b505050506040513d601f19601f8201168201806040525081019061148c919061231d565b15611502576008548154604051630852cd8d60e31b8152600160a01b90910467ffffffffffffffff1660048201526001600160a01b03909116906342966c6890602401600060405180830381600087803b1580156114e957600080fd5b505af11580156114fd573d6000803e3d6000fd5b505050505b8054604051339163ffffffff8616917f869c0be982e7a0ff20e10bdd64fa0b55c3bbf67e8d11b38863d947a77e7e0cca9161154891600160e01b90910460ff16906123e7565b60405180910390a3505050565b600554600090600160401b900460ff16611582576040516321c4e35760e21b815260040160405180910390fd5b336000818152600360205260409020546115af576040516383b1311f60e01b815260040160405180910390fd5b6001600160a01b03811660009081526004602052604090205460ff1615611602576040517f0b6b43c800000000000000000000000000000000000000000000000000000000815260040160405180910390fd5b600580546001919060009061161e90849063ffffffff166122f9565b92506101000a81548163ffffffff021916908363ffffffff16021790555060006040518060600160405280836001600160a01b03168152602001600067ffffffffffffffff1681526020016001600381111561167c5761167c6121b3565b905260055463ffffffff16600090815260066020908152604091829020835181549285015167ffffffffffffffff16600160a01b026001600160e01b03199093166001600160a01b0390911617919091178082559183015192935083929091829060ff60e01b1916600160e01b8360038111156116fb576116fb6121b3565b0217905550506005546040516001600160a01b038516925063ffffffff909116907f869c0be982e7a0ff20e10bdd64fa0b55c3bbf67e8d11b38863d947a77e7e0cca9061174a906001906123e7565b60405180910390a3505060055463ffffffff16905090565b33600090815260036020908152604080832054808452600983528184206001600160a01b038716855283528184208585529092529091205460ff1615610c8057604051633ab3447f60e11b815260040160405180910390fd5b6000546001600160a01b031633146118155760405162461bcd60e51b815260206004820181905260248201527f4f776e61626c653a2063616c6c6572206973206e6f7420746865206f776e65726044820152606401610577565b6001600160a01b03166000908152600460205260409020805460ff19169055565b61185760408051606081018252600080825260208201819052909182015290565b63ffffffff8216600090815260066020908152604091829020825160608101845281546001600160a01b0381168252600160a01b810467ffffffffffffffff169382019390935292909190830190600160e01b900460ff1660038111156118c0576118c06121b3565b60038111156118d1576118d16121b3565b90525092915050565b6000546001600160a01b031633146119345760405162461bcd60e51b815260206004820181905260248201527f4f776e61626c653a2063616c6c6572206973206e6f7420746865206f776e65726044820152606401610577565b6001600160a01b03166000908152600460205260409020805460ff19166001179055565b600554600160401b900460ff16611982576040516321c4e35760e21b815260040160405180910390fd5b336000818152600360205260409020546119af576040516383b1311f60e01b815260040160405180910390fd5b63ffffffff8316600090815260066020526040812054600160a01b900467ffffffffffffffff1690819003611a79576001600560048282829054906101000a900463ffffffff16611a0091906122f9565b82546101009290920a63ffffffff818102199093169190921691909102179055506005546040513060601b6bffffffffffffffffffffffff1916602082015264010000000090910460e01b6001600160e01b03191660348201526038016040516020818303038152906040528051906020012060001c90505b600163ffffffff8516600090815260066020526040902054600160e01b900460ff166003811115611aac57611aac6121b3565b14611aca5760405163764d926f60e11b815260040160405180910390fd5b600754604051634f558e7960e01b815267ffffffffffffffff831660048201526001600160a01b0390911690634f558e7990602401602060405180830381865afa158015611b1c573d6000803e3d6000fd5b505050506040513d601f19601f82011682018060405250810190611b40919061231d565b15611b77576040517f8d4ebf0500000000000000000000000000000000000000000000000000000000815260040160405180910390fd5b63ffffffff841660008181526006602090815260409182902080547fffffffff0000000000000000ffffffffffffffffffffffffffffffffffffffff16600160a01b67ffffffffffffffff8716021790556007548251918201939093526001600160a01b03909216916394d008ef918691859101610893565b8151600003611c2b576040517f2b22879500000000000000000000000000000000000000000000000000000000815260040160405180910390fd5b60405163f99a8ffb60e01b8152600090732ffF031e525a20fcF8944aC7Cf3Bdcc3b19a6D779063f99a8ffb90611c659086906004016123bb565b602060405180830381865af4158015611c82573d6000803e3d6000fd5b505050506040513d601f19601f82011682018060405250810190611ca691906123ce565b6001600160a01b03831660009081526003602052604090205490915015611cf9576040517f708870e600000000000000000000000000000000000000000000000000000000815260040160405180910390fd5b600081815260026020908152604080832080546001600160a01b0319166001600160a01b038716908117909155808452600390925280832084905551909183917f22be69269c1f7d73e73dcb25b710dd88c7aa1cf374c16d945def98df2107c2f89190a3505050565b8051825114611d9d576040517f1dbe8b0000000000000000000000000000000000000000000000000000000000815260040160405180910390fd5b60005b8251811015610c8057611de5838281518110611dbe57611dbe6123f5565b6020026020010151838381518110611dd857611dd86123f5565b6020026020010151611bf0565b611dee8161240b565b9050611da0565b600080546001600160a01b038381166001600160a01b0319831681178455604051919092169283917f8be0079c531659141344cd1fd0a4f28419497f9722a3daafe3b4186f6b6457e09190a35050565b634e487b7160e01b600052604160045260246000fd5b604051601f8201601f1916810167ffffffffffffffff81118282101715611e8457611e84611e45565b604052919050565b600082601f830112611e9d57600080fd5b813567ffffffffffffffff811115611eb757611eb7611e45565b611eca601f8201601f1916602001611e5b565b818152846020838601011115611edf57600080fd5b816020850160208301376000918101602001919091529392505050565b80356001600160a01b0381168114611f1357600080fd5b919050565b60008060408385031215611f2b57600080fd5b823567ffffffffffffffff811115611f4257600080fd5b611f4e85828601611e8c565b925050611f5d60208401611efc565b90509250929050565b60008060408385031215611f7957600080fd5b50508035926020909101359150565b803563ffffffff81168114611f1357600080fd5b60008060408385031215611faf57600080fd5b611fb883611f88565b9150611f5d60208401611efc565b600067ffffffffffffffff821115611fe057611fe0611e45565b5060051b60200190565b600082601f830112611ffb57600080fd5b8135602061201061200b83611fc6565b611e5b565b82815260059290921b8401810191818101908684111561202f57600080fd5b8286015b848110156120515761204481611efc565b8352918301918301612033565b509695505050505050565b6000806040838503121561206f57600080fd5b823567ffffffffffffffff8082111561208757600080fd5b818501915085601f83011261209b57600080fd5b813560206120ab61200b83611fc6565b82815260059290921b840181019181810190898411156120ca57600080fd5b8286015b84811015612102578035868111156120e65760008081fd5b6120f48c86838b0101611e8c565b8452509183019183016120ce565b509650508601359250508082111561211957600080fd5b5061212685828601611fea565b9150509250929050565b6000806040838503121561214357600080fd5b61214c83611efc565b946020939093013593505050565b6000806040838503121561216d57600080fd5b611fb883611efc565b60006020828403121561218857600080fd5b61219182611efc565b9392505050565b6000602082840312156121aa57600080fd5b61219182611f88565b634e487b7160e01b600052602160045260246000fd5b600481106121e757634e487b7160e01b600052602160045260246000fd5b9052565b6001600160a01b03815116825267ffffffffffffffff60208201511660208301526040810151610c8060408401826121c9565b6080810161222c82856121eb565b8260608301529392505050565b60006020828403121561224b57600080fd5b5035919050565b801515811461226057600080fd5b50565b6000806040838503121561227657600080fd5b61227f83611f88565b9150602083013561228f81612252565b809150509250929050565b6000806000606084860312156122af57600080fd5b833592506122bf60208501611efc565b9150604084013590509250925092565b606081016122dd82846121eb565b92915050565b634e487b7160e01b600052601160045260246000fd5b63ffffffff818116838216019080821115612316576123166122e3565b5092915050565b60006020828403121561232f57600080fd5b815161219181612252565b6000815180845260005b8181101561236057602081850181015186830182015201612344565b506000602082860101526020601f19601f83011685010191505092915050565b6001600160a01b038416815267ffffffffffffffff831660208201526060604082015260006123b2606083018461233a565b95945050505050565b602081526000612191602083018461233a565b6000602082840312156123e057600080fd5b5051919050565b602081016122dd82846121c9565b634e487b7160e01b600052603260045260246000fd5b60006001820161241d5761241d6122e3565b506001019056fea164736f6c6343000813000a",
  "deployedBytecode": "0x608060405234801561001057600080fd5b50600436106101e55760003560e01c80637b3711071161010f578063a4d0845d116100a2578063c5d50bdb11610071578063c5d50bdb146104c8578063e6c5a541146104db578063f74ad799146104fb578063fc0309151461050e57600080fd5b8063a4d0845d1461045a578063a591bbb31461046d578063aaf5f564146104ad578063ae734629146104b557600080fd5b80638da5cb5b116100de5780638da5cb5b1461040557806392fede00146104165780639d6fa6181461041e578063a06c62b01461043157600080fd5b80637b371107146103b65780637ccb6d99146103be5780638208e76c146103d157806388e5d918146103e457600080fd5b80634cd93354116101875780635794fefc116101565780635794fefc1461033b5780635f992fdd1461034b57806368bc155d1461035357806378a7fa671461037f57600080fd5b80634cd93354146102a25780634fbe68a0146102b557806352a067e5146102c85780635509a9e91461030e57600080fd5b80631ef3c4fc116101c35780631ef3c4fc14610225578063365a86fc1461023857806338b193a41461027c578063485cc9551461028f57600080fd5b80631000daee146101ea57806318e5a251146101ff5780631b982cf114610212575b600080fd5b6101fd6101f8366004611f18565b610521565b005b6101fd61020d366004611f66565b61058e565b6101fd610220366004611f9c565b6105ff565b6101fd61023336600461205c565b6108f8565b61025f7f000000000000000000000000000000000000000000000000000000000000000081565b6040516001600160a01b0390911681526020015b60405180910390f35b6101fd61028a366004612130565b61095c565b6101fd61029d36600461215a565b6109ee565b6101fd6102b0366004611f18565b610b5a565b60075461025f906001600160a01b031681565b6102fe6102d6366004611f9c565b63ffffffff9091166000908152600660205260409020546001600160a01b0390811691161490565b6040519015158152602001610273565b60055461032690640100000000900463ffffffff1681565b60405163ffffffff9091168152602001610273565b6005546103269063ffffffff1681565b6101fd610c85565b6102fe610361366004612176565b6001600160a01b031660009081526004602052604090205460ff1690565b6103a861038d366004612176565b6001600160a01b031660009081526003602052604090205490565b604051908152602001610273565b6101fd610cf1565b6101fd6103cc366004612198565b610d60565b60085461025f906001600160a01b031681565b6103f76103f2366004612198565b610fe5565b60405161027392919061221e565b6000546001600160a01b031661025f565b6101fd6110a7565b6101fd61042c366004612176565b611101565b61025f61043f366004612239565b6000908152600260205260409020546001600160a01b031690565b6101fd610468366004612263565b6111f9565b6102fe61047b36600461229a565b60009283526009602090815260408085206001600160a01b039490941685529281528284209184525290205460ff1690565b610326611555565b6101fd6104c3366004612130565b611762565b6101fd6104d6366004612176565b6117bb565b6104ee6104e9366004612198565b611836565b60405161027391906122cf565b6101fd610509366004612176565b6118da565b6101fd61051c366004611f9c565b611958565b6000546001600160a01b031633146105805760405162461bcd60e51b815260206004820181905260248201527f4f776e61626c653a2063616c6c6572206973206e6f7420746865206f776e657260448201526064015b60405180910390fd5b61058a8282611bf0565b5050565b6000828152600960209081526040808320338452825280832084845290915290205460ff16156105d157604051633ab3447f60e11b815260040160405180910390fd5b600091825260096020908152604080842033855282528084209284529190529020805460ff19166001179055565b600554600160401b900460ff16610629576040516321c4e35760e21b815260040160405180910390fd5b33600081815260036020526040902054610656576040516383b1311f60e01b815260040160405180910390fd5b63ffffffff8316600090815260066020526040812054600160a01b900467ffffffffffffffff1690819003610720576001600560048282829054906101000a900463ffffffff166106a791906122f9565b82546101009290920a63ffffffff818102199093169190921691909102179055506005546040513060601b6bffffffffffffffffffffffff1916602082015264010000000090910460e01b6001600160e01b03191660348201526038016040516020818303038152906040528051906020012060001c90505b600163ffffffff8516600090815260066020526040902054600160e01b900460ff166003811115610753576107536121b3565b146107715760405163764d926f60e11b815260040160405180910390fd5b600854604051634f558e7960e01b815267ffffffffffffffff831660048201526001600160a01b0390911690634f558e7990602401602060405180830381865afa1580156107c3573d6000803e3d6000fd5b505050506040513d601f19601f820116820180604052508101906107e7919061231d565b1561081e576040517f0e36e12d00000000000000000000000000000000000000000000000000000000815260040160405180910390fd5b63ffffffff841660008181526006602090815260409182902080547fffffffff0000000000000000ffffffffffffffffffffffffffffffffffffffff16600160a01b67ffffffffffffffff8716021790556008548251918201939093526001600160a01b03909216916394d008ef9186918591015b6040516020818303038152906040526040518463ffffffff1660e01b81526004016108c093929190612380565b600060405180830381600087803b1580156108da57600080fd5b505af11580156108ee573d6000803e3d6000fd5b5050505050505050565b6000546001600160a01b031633146109525760405162461bcd60e51b815260206004820181905260248201527f4f776e61626c653a2063616c6c6572206973206e6f7420746865206f776e65726044820152606401610577565b61058a8282611d62565b33600090815260036020908152604080832054808452600983528184206001600160a01b038716855283528184208585529092529091205460ff16156109b557604051633ab3447f60e11b815260040160405180910390fd5b60009081526009602090815260408083206001600160a01b0390951683529381528382209282529190915220805460ff19166001179055565b336001600160a01b037f00000000000000000000000000000000000000000000000000000000000000001614610a50576040517f618bbdd500000000000000000000000000000000000000000000000000000000815260040160405180910390fd5b600554600160401b900460ff1615610a94576040517f0dc149f000000000000000000000000000000000000000000000000000000000815260040160405180910390fd5b6001600160a01b038216610ad4576040517f9b40fba500000000000000000000000000000000000000000000000000000000815260040160405180910390fd5b6001600160a01b038116610b14576040517f5e4f163300000000000000000000000000000000000000000000000000000000815260040160405180910390fd5b6005805468ff00000000000000001916600160401b179055600780546001600160a01b039384166001600160a01b03199182161790915560088054929093169116179055565b6000546001600160a01b03163314610bb45760405162461bcd60e51b815260206004820181905260248201527f4f776e61626c653a2063616c6c6572206973206e6f7420746865206f776e65726044820152606401610577565b60405163f99a8ffb60e01b815260009073__$b0ae3f603fa3e13f3b829da0b88d39db57$__9063f99a8ffb90610bee9086906004016123bb565b602060405180830381865af4158015610c0b573d6000803e3d6000fd5b505050506040513d601f19601f82011682018060405250810190610c2f91906123ce565b6001600160a01b0380841660008181526003602090815260408083208390558583526002909152902054929350911603610c8057600081815260026020526040902080546001600160a01b03191690555b505050565b6001546001600160a01b03163314610cdf5760405162461bcd60e51b815260206004820152601c60248201527f4f776e61626c653a206e6f74206f776e65722063616e646964617465000000006044820152606401610577565b600180546001600160a01b0319169055565b6001546001600160a01b03163314610d4b5760405162461bcd60e51b815260206004820152601c60248201527f4f776e61626c653a206e6f74206f776e65722063616e646964617465000000006044820152606401610577565b600154610cdf906001600160a01b0316611df5565b600554600160401b900460ff16610d8a576040516321c4e35760e21b815260040160405180910390fd5b33600081815260036020526040902054610db7576040516383b1311f60e01b815260040160405180910390fd5b63ffffffff8216600090815260066020526040902054600160a01b810467ffffffffffffffff1690600190600160e01b900460ff166003811115610dfd57610dfd6121b3565b14610e1b5760405163764d926f60e11b815260040160405180910390fd5b600754604051634f558e7960e01b815267ffffffffffffffff831660048201526001600160a01b0390911690634f558e7990602401602060405180830381865afa158015610e6d573d6000803e3d6000fd5b505050506040513d601f19601f82011682018060405250810190610e91919061231d565b15610efe57600754604051630852cd8d60e31b815267ffffffffffffffff831660048201526001600160a01b03909116906342966c6890602401600060405180830381600087803b158015610ee557600080fd5b505af1158015610ef9573d6000803e3d6000fd5b505050505b600854604051634f558e7960e01b815267ffffffffffffffff831660048201526001600160a01b0390911690634f558e7990602401602060405180830381865afa158015610f50573d6000803e3d6000fd5b505050506040513d601f19601f82011682018060405250810190610f74919061231d565b15610c8057600854604051630852cd8d60e31b815267ffffffffffffffff831660048201526001600160a01b03909116906342966c6890602401600060405180830381600087803b158015610fc857600080fd5b505af1158015610fdc573d6000803e3d6000fd5b50505050505050565b61100660408051606081018252600080825260208201819052909182015290565b63ffffffff82166000908152600660209081526040808320815160608101835281546001600160a01b0381168252600160a01b810467ffffffffffffffff169482019490945284939092830190600160e01b900460ff16600381111561106e5761106e6121b3565b600381111561107f5761107f6121b3565b90525080516001600160a01b0316600090815260036020526040902054909590945092505050565b6000546001600160a01b03163314610cdf5760405162461bcd60e51b815260206004820181905260248201527f4f776e61626c653a2063616c6c6572206973206e6f7420746865206f776e65726044820152606401610577565b6000546001600160a01b0316331461115b5760405162461bcd60e51b815260206004820181905260248201527f4f776e61626c653a2063616c6c6572206973206e6f7420746865206f776e65726044820152606401610577565b6001600160a01b0381166111d75760405162461bcd60e51b815260206004820152602660248201527f4f776e61626c653a206e6577206f776e657220697320746865207a65726f206160448201527f64647265737300000000000000000000000000000000000000000000000000006064820152608401610577565b600180546001600160a01b0319166001600160a01b0392909216919091179055565b600554600160401b900460ff16611223576040516321c4e35760e21b815260040160405180910390fd5b63ffffffff8216600090815260066020526040902060018154600160e01b900460ff166003811115611257576112576121b3565b146112755760405163764d926f60e11b815260040160405180910390fd5b80546001600160a01b031633146112b8576040517f7718cadf00000000000000000000000000000000000000000000000000000000815260040160405180910390fd5b81156112ed57805460ff60e01b19167c0200000000000000000000000000000000000000000000000000000000178155611318565b805460ff60e01b19167c03000000000000000000000000000000000000000000000000000000001781555b6007548154604051634f558e7960e01b8152600160a01b90910467ffffffffffffffff1660048201526001600160a01b0390911690634f558e7990602401602060405180830381865afa158015611373573d6000803e3d6000fd5b505050506040513d601f19601f82011682018060405250810190611397919061231d565b1561140d576007548154604051630852cd8d60e31b8152600160a01b90910467ffffffffffffffff1660048201526001600160a01b03909116906342966c6890602401600060405180830381600087803b1580156113f457600080fd5b505af1158015611408573d6000803e3d6000fd5b505050505b6008548154604051634f558e7960e01b8152600160a01b90910467ffffffffffffffff1660048201526001600160a01b0390911690634f558e7990602401602060405180830381865afa158015611468573d6000803e3d6000fd5b505050506040513d601f19601f8201168201806040525081019061148c919061231d565b15611502576008548154604051630852cd8d60e31b8152600160a01b90910467ffffffffffffffff1660048201526001600160a01b03909116906342966c6890602401600060405180830381600087803b1580156114e957600080fd5b505af11580156114fd573d6000803e3d6000fd5b505050505b8054604051339163ffffffff8616917f869c0be982e7a0ff20e10bdd64fa0b55c3bbf67e8d11b38863d947a77e7e0cca9161154891600160e01b90910460ff16906123e7565b60405180910390a3505050565b600554600090600160401b900460ff16611582576040516321c4e35760e21b815260040160405180910390fd5b336000818152600360205260409020546115af576040516383b1311f60e01b815260040160405180910390fd5b6001600160a01b03811660009081526004602052604090205460ff1615611602576040517f0b6b43c800000000000000000000000000000000000000000000000000000000815260040160405180910390fd5b600580546001919060009061161e90849063ffffffff166122f9565b92506101000a81548163ffffffff021916908363ffffffff16021790555060006040518060600160405280836001600160a01b03168152602001600067ffffffffffffffff1681526020016001600381111561167c5761167c6121b3565b905260055463ffffffff16600090815260066020908152604091829020835181549285015167ffffffffffffffff16600160a01b026001600160e01b03199093166001600160a01b0390911617919091178082559183015192935083929091829060ff60e01b1916600160e01b8360038111156116fb576116fb6121b3565b0217905550506005546040516001600160a01b038516925063ffffffff909116907f869c0be982e7a0ff20e10bdd64fa0b55c3bbf67e8d11b38863d947a77e7e0cca9061174a906001906123e7565b60405180910390a3505060055463ffffffff16905090565b33600090815260036020908152604080832054808452600983528184206001600160a01b038716855283528184208585529092529091205460ff1615610c8057604051633ab3447f60e11b815260040160405180910390fd5b6000546001600160a01b031633146118155760405162461bcd60e51b815260206004820181905260248201527f4f776e61626c653a2063616c6c6572206973206e6f7420746865206f776e65726044820152606401610577565b6001600160a01b03166000908152600460205260409020805460ff19169055565b61185760408051606081018252600080825260208201819052909182015290565b63ffffffff8216600090815260066020908152604091829020825160608101845281546001600160a01b0381168252600160a01b810467ffffffffffffffff169382019390935292909190830190600160e01b900460ff1660038111156118c0576118c06121b3565b60038111156118d1576118d16121b3565b90525092915050565b6000546001600160a01b031633146119345760405162461bcd60e51b815260206004820181905260248201527f4f776e61626c653a2063616c6c6572206973206e6f7420746865206f776e65726044820152606401610577565b6001600160a01b03166000908152600460205260409020805460ff19166001179055565b600554600160401b900460ff16611982576040516321c4e35760e21b815260040160405180910390fd5b336000818152600360205260409020546119af576040516383b1311f60e01b815260040160405180910390fd5b63ffffffff8316600090815260066020526040812054600160a01b900467ffffffffffffffff1690819003611a79576001600560048282829054906101000a900463ffffffff16611a0091906122f9565b82546101009290920a63ffffffff818102199093169190921691909102179055506005546040513060601b6bffffffffffffffffffffffff1916602082015264010000000090910460e01b6001600160e01b03191660348201526038016040516020818303038152906040528051906020012060001c90505b600163ffffffff8516600090815260066020526040902054600160e01b900460ff166003811115611aac57611aac6121b3565b14611aca5760405163764d926f60e11b815260040160405180910390fd5b600754604051634f558e7960e01b815267ffffffffffffffff831660048201526001600160a01b0390911690634f558e7990602401602060405180830381865afa158015611b1c573d6000803e3d6000fd5b505050506040513d601f19601f82011682018060405250810190611b40919061231d565b15611b77576040517f8d4ebf0500000000000000000000000000000000000000000000000000000000815260040160405180910390fd5b63ffffffff841660008181526006602090815260409182902080547fffffffff0000000000000000ffffffffffffffffffffffffffffffffffffffff16600160a01b67ffffffffffffffff8716021790556007548251918201939093526001600160a01b03909216916394d008ef918691859101610893565b8151600003611c2b576040517f2b22879500000000000000000000000000000000000000000000000000000000815260040160405180910390fd5b60405163f99a8ffb60e01b815260009073__$b0ae3f603fa3e13f3b829da0b88d39db57$__9063f99a8ffb90611c659086906004016123bb565b602060405180830381865af4158015611c82573d6000803e3d6000fd5b505050506040513d601f19601f82011682018060405250810190611ca691906123ce565b6001600160a01b03831660009081526003602052604090205490915015611cf9576040517f708870e600000000000000000000000000000000000000000000000000000000815260040160405180910390fd5b600081815260026020908152604080832080546001600160a01b0319166001600160a01b038716908117909155808452600390925280832084905551909183917f22be69269c1f7d73e73dcb25b710dd88c7aa1cf374c16d945def98df2107c2f89190a3505050565b8051825114611d9d576040517f1dbe8b0000000000000000000000000000000000000000000000000000000000815260040160405180910390fd5b60005b8251811015610c8057611de5838281518110611dbe57611dbe6123f5565b6020026020010151838381518110611dd857611dd86123f5565b6020026020010151611bf0565b611dee8161240b565b9050611da0565b600080546001600160a01b038381166001600160a01b0319831681178455604051919092169283917f8be0079c531659141344cd1fd0a4f28419497f9722a3daafe3b4186f6b6457e09190a35050565b634e487b7160e01b600052604160045260246000fd5b604051601f8201601f1916810167ffffffffffffffff81118282101715611e8457611e84611e45565b604052919050565b600082601f830112611e9d57600080fd5b813567ffffffffffffffff811115611eb757611eb7611e45565b611eca601f8201601f1916602001611e5b565b818152846020838601011115611edf57600080fd5b816020850160208301376000918101602001919091529392505050565b80356001600160a01b0381168114611f1357600080fd5b919050565b60008060408385031215611f2b57600080fd5b823567ffffffffffffffff811115611f4257600080fd5b611f4e85828601611e8c565b925050611f5d60208401611efc565b90509250929050565b60008060408385031215611f7957600080fd5b50508035926020909101359150565b803563ffffffff81168114611f1357600080fd5b60008060408385031215611faf57600080fd5b611fb883611f88565b9150611f5d60208401611efc565b600067ffffffffffffffff821115611fe057611fe0611e45565b5060051b60200190565b600082601f830112611ffb57600080fd5b8135602061201061200b83611fc6565b611e5b565b82815260059290921b8401810191818101908684111561202f57600080fd5b8286015b848110156120515761204481611efc565b8352918301918301612033565b509695505050505050565b6000806040838503121561206f57600080fd5b823567ffffffffffffffff8082111561208757600080fd5b818501915085601f83011261209b57600080fd5b813560206120ab61200b83611fc6565b82815260059290921b840181019181810190898411156120ca57600080fd5b8286015b84811015612102578035868111156120e65760008081fd5b6120f48c86838b0101611e8c565b8452509183019183016120ce565b509650508601359250508082111561211957600080fd5b5061212685828601611fea565b9150509250929050565b6000806040838503121561214357600080fd5b61214c83611efc565b946020939093013593505050565b6000806040838503121561216d57600080fd5b611fb883611efc565b60006020828403121561218857600080fd5b61219182611efc565b9392505050565b6000602082840312156121aa57600080fd5b61219182611f88565b634e487b7160e01b600052602160045260246000fd5b600481106121e757634e487b7160e01b600052602160045260246000fd5b9052565b6001600160a01b03815116825267ffffffffffffffff60208201511660208301526040810151610c8060408401826121c9565b6080810161222c82856121eb565b8260608301529392505050565b60006020828403121561224b57600080fd5b5035919050565b801515811461226057600080fd5b50565b6000806040838503121561227657600080fd5b61227f83611f88565b9150602083013561228f81612252565b809150509250929050565b6000806000606084860312156122af57600080fd5b833592506122bf60208501611efc565b9150604084013590509250925092565b606081016122dd82846121eb565b92915050565b634e487b7160e01b600052601160045260246000fd5b63ffffffff818116838216019080821115612316576123166122e3565b5092915050565b60006020828403121561232f57600080fd5b815161219181612252565b6000815180845260005b8181101561236057602081850181015186830182015201612344565b506000602082860101526020601f19601f83011685010191505092915050565b6001600160a01b038416815267ffffffffffffffff831660208201526060604082015260006123b2606083018461233a565b95945050505050565b602081526000612191602083018461233a565b6000602082840312156123e057600080fd5b5051919050565b602081016122dd82846121c9565b634e487b7160e01b600052603260045260246000fd5b60006001820161241d5761241d6122e3565b506001019056fea164736f6c6343000813000a",
  "libraries": {
    "ContractKeyUtils": "0x2ffF031e525a20fcF8944aC7Cf3Bdcc3b19a6D77"
  },
  "devdoc": {
    "author": "NFTfi",
    "events": {
      "TypeUpdated(bytes32,address)": {
        "params": {
          "loanContract": "- Address of the loan type contract.",
          "offerType": "- offer type represented by keccak256('offer type')."
        }
      }
    },
    "kind": "dev",
    "methods": {
      "cancelLoanCommitment(bytes32,uint256)": {
        "params": {
          "_nonce": "- User nonce"
        }
      },
      "checkAndInvalidateNonce(address,uint256)": {
        "params": {
          "_nonce": "- The nonce to be checked and invalidated.",
          "_user": "- The address of the user."
        }
      },
      "checkNonce(address,uint256)": {
        "params": {
          "_nonce": "- The nonce to be checked.",
          "_user": "- The address of the user."
        }
      },
      "constructor": {
        "params": {
          "_admin": "- Initial admin of this contract.",
          "_loanContracts": "- The addresses of each wrapper contract that implements the loan type's behaviour.",
          "_nftfiHub": "- Address of the NftfiHub contract",
          "_offerTypes": "- offer types represented by keccak256('offer type')."
        }
      },
      "deleteOfferType(string,address)": {
        "params": {
          "_loanContract": "- The address of the wrapper contract to be deleted.",
          "_offerType": "- Loan type represented by 'loan type'."
        }
      },
      "disableLoanContract(address)": {
        "params": {
          "_loanContract": "- The address of the loan contract to be disabled."
        }
      },
      "enableLoanContract(address)": {
        "params": {
          "_loanContract": "- The address of the loan contract to be enabled."
        }
      },
      "getDefaultLoanContractForOfferType(bytes32)": {
        "params": {
          "_offerType": "- The loan type, e.g. bytes32(\"ASSET_OFFER_LOAN\")"
        }
      },
      "getLoanData(uint32)": {
        "details": "Returns loan's data for a given id.",
        "params": {
          "_loanId": "- Id of the loan"
        }
      },
      "getLoanDataAndOfferType(uint32)": {
        "details": "Returns loan's data and offerType for a given loan id.",
        "params": {
          "_loanId": "- Id of the loan"
        }
      },
      "getTypeOfLoanContract(address)": {
        "params": {
          "_loanContract": "- The loan contract"
        }
      },
      "getWhetherNonceHasBeenUsedForUser(bytes32,address,uint256)": {
        "params": {
          "_nonce": "- The nonce referred to here is not the same as an Ethereum account's nonce. We are referring instead to nonces that are used by both the lender and the borrower when they are first signing off-chain NFTfi orders. These nonces can be any uint256 value that the user has not previously used to sign an off-chain order. Each nonce can be used at most once per user within NFTfi, regardless of whether they are the lender or the borrower in that situation. This serves two purposes: - First, it prevents replay attacks where an attacker would submit a user's off-chain order more than once. - Second, it allows a user to cancel an off-chain order by calling NFTfi.cancelLoanCommitment() , which marks the nonce as used and prevents any future loan from using the user's off-chain order that contains that nonce.",
          "_user": "- The address of the user. This function works for both lenders and borrowers alike."
        },
        "returns": {
          "_0": "A bool representing whether or not this nonce has been used for this user."
        }
      },
      "initialize(address,address)": {
        "details": "Sets `promissoryNoteToken` and `obligationReceiptToken`. It can be executed once by the deployer.",
        "params": {
          "_obligationReceiptToken": "- Obligaiton Recipt Token address",
          "_promissoryNoteToken": "- Promissory Note Token address"
        }
      },
      "isLoanContractDisabled(address)": {
        "params": {
          "_loanContract": "- The loan contract address."
        },
        "returns": {
          "_0": "bool - True if disabled, false otherwise."
        }
      },
      "isValidLoanId(uint32,address)": {
        "details": "checks if the given id is valid for the given loan contract address",
        "params": {
          "_loanContract": "- address og the loan contract",
          "_loanId": "- Id of the loan"
        }
      },
      "mintObligationReceipt(uint32,address)": {
        "params": {
          "_borrower": "- The address of the borrower.",
          "_loanId": "- The ID of the loan."
        }
      },
      "mintPromissoryNote(uint32,address)": {
        "params": {
          "_lender": "- The address of the lender.",
          "_loanId": "- The ID of the loan."
        }
      },
      "owner()": {
        "details": "Returns the address of the current owner."
      },
      "registerLoan()": {
        "details": "This is called by the OfferType beginning the new loan. It initialize the new loan data, and returns the new loan id."
      },
      "registerOfferType(string,address)": {
        "params": {
          "_loanContract": "- The address of the wrapper contract that implements the loan type's behaviour.",
          "_offerType": "- Loan type represented by 'loan type'."
        }
      },
      "registerOfferTypes(string[],address[])": {
        "params": {
          "_loanContracts": "- The addresses of each wrapper contract that implements the loan type's behaviour.",
          "_offerTypes": "- Loan types represented by 'loan type'."
        }
      },
      "requestTransferOwnership(address)": {
        "details": "Requests transferring ownership of the contract to a new account (`_newOwnerCandidate`). Can only be called by the current owner."
      },
      "resetSmartNfts(uint32)": {
        "params": {
          "_loanId": "- The ID of the loan."
        }
      },
      "resolveLoan(uint32,bool)": {
        "details": "This is called by the OfferType who created the loan, when a loan is resolved whether by paying back or liquidating the loan. It sets the loan as `RESOLVED` and burns both PromossoryNote and ObligationReceipt SmartNft's.",
        "params": {
          "_loanId": "- Id of the loan"
        }
      }
    },
    "stateVariables": {
      "_defaultLoanContractForOfferType": {
        "details": "For each loan type, records the address of the contract that implements the type"
      },
      "_typeOfLoanContract": {
        "details": "reverse mapping of offerTypes - for each contract address, records the associated loan type"
      }
    },
    "title": "LoanCoordinator",
    "version": 1
  },
  "userdoc": {
    "events": {
      "TypeUpdated(bytes32,address)": {
        "notice": "This event is fired whenever the admins register a loan type."
      }
    },
    "kind": "user",
    "methods": {
      "cancelLoanCommitment(bytes32,uint256)": {
        "notice": "This function can be called by either a lender or a borrower to cancel all off-chain orders that they have signed that contain this nonce. If the off-chain orders were created correctly, there should only be one off-chain order that contains this nonce at all. The nonce referred to here is not the same as an Ethereum account's nonce. We are referring instead to nonces that are used by both the lender and the borrower when they are first signing off-chain NFTfi orders. These nonces can be any uint256 value that the user has not previously used to sign an off-chain order. Each nonce can be used at most once per user within NFTfi, regardless of whether they are the lender or the borrower in that situation. This serves two purposes. First, it prevents replay attacks where an attacker would submit a user's off-chain order more than once. Second, it allows a user to cancel an off-chain order by calling NFTfi.cancelLoanCommitment(), which marks the nonce as used and prevents any future loan from using the user's off-chain order that contains that nonce."
      },
      "checkAndInvalidateNonce(address,uint256)": {
        "notice": "Checks and invalidates a nonce for a user."
      },
      "checkNonce(address,uint256)": {
        "notice": "Checks if a nonce is valid."
      },
      "constructor": {
        "notice": "Sets the admin of the contract. Initializes `contractTypes` with a batch of loan types. Sets `NftfiHub`."
      },
      "deleteOfferType(string,address)": {
        "notice": "Deletes the contract address associated with a given Loan Type."
      },
      "disableLoanContract(address)": {
        "notice": "Disables a loan contract. Makes it impossible for a loan contract to register a new loan, altough renegotiations of their existing loans and repayment/liquidations are still possible"
      },
      "enableLoanContract(address)": {
        "notice": "Enables a loan contract."
      },
      "getDefaultLoanContractForOfferType(bytes32)": {
        "notice": "This function can be called by anyone to get the latest contract address that implements the given loan type."
      },
      "getTypeOfLoanContract(address)": {
        "notice": "This function can be called by anyone to get the loan type of the given contract address."
      },
      "getWhetherNonceHasBeenUsedForUser(bytes32,address,uint256)": {
        "notice": "This function can be used to view whether a particular nonce for a particular user has already been used, either from a successful loan or a cancelled off-chain order."
      },
      "isLoanContractDisabled(address)": {
        "notice": "Checks if a loan contract is disabled."
      },
      "mintObligationReceipt(uint32,address)": {
        "notice": "Mints an Obligation Receipt SmartNFT for the borrower. Must be called by corresponding loan type"
      },
      "mintPromissoryNote(uint32,address)": {
        "notice": "Mints a Promissory Note SmartNFT for the lender. Must be called by corresponding loan type"
      },
      "registerOfferType(string,address)": {
        "notice": "Set or update the contract address that implements the given Loan Type. Set address(0) for a loan type for un-register such type."
      },
      "registerOfferTypes(string[],address[])": {
        "notice": "Batch set or update the contract addresses that implement the given batch Loan Type. Set address(0) for a loan type for un-register such type."
      },
      "resetSmartNfts(uint32)": {
        "notice": "Resets the SmartNFTs associated with a loan."
      },
      "totalNumLoans()": {
        "notice": "A continuously increasing counter that simultaneously allows every loan to have a unique ID and provides a running count of how many loans have been started by this contract."
      }
    },
    "notice": "This contract is in charge of coordinating the creation, distribution and desctruction of the SmartNfts related to a loan, the Promossory Note and Obligaiton Receipt.",
    "version": 1
  },
  "storageLayout": {
    "storage": [
      {
        "astId": 25956,
        "contract": "contracts/loans/LoanCoordinator.sol:LoanCoordinator",
        "label": "_owner",
        "offset": 0,
        "slot": "0",
        "type": "t_address"
      },
      {
        "astId": 25958,
        "contract": "contracts/loans/LoanCoordinator.sol:LoanCoordinator",
        "label": "_ownerCandidate",
        "offset": 0,
        "slot": "1",
        "type": "t_address"
      },
      {
        "astId": 12504,
        "contract": "contracts/loans/LoanCoordinator.sol:LoanCoordinator",
        "label": "_defaultLoanContractForOfferType",
        "offset": 0,
        "slot": "2",
        "type": "t_mapping(t_bytes32,t_address)"
      },
      {
        "astId": 12509,
        "contract": "contracts/loans/LoanCoordinator.sol:LoanCoordinator",
        "label": "_typeOfLoanContract",
        "offset": 0,
        "slot": "3",
        "type": "t_mapping(t_address,t_bytes32)"
      },
      {
        "astId": 12513,
        "contract": "contracts/loans/LoanCoordinator.sol:LoanCoordinator",
        "label": "_isLoanContractDisabled",
        "offset": 0,
        "slot": "4",
        "type": "t_mapping(t_address,t_bool)"
      },
      {
        "astId": 12517,
        "contract": "contracts/loans/LoanCoordinator.sol:LoanCoordinator",
        "label": "totalNumLoans",
        "offset": 0,
        "slot": "5",
        "type": "t_uint32"
      },
      {
        "astId": 12520,
        "contract": "contracts/loans/LoanCoordinator.sol:LoanCoordinator",
        "label": "smartNftIdCounter",
        "offset": 4,
        "slot": "5",
        "type": "t_uint32"
      },
      {
        "astId": 12525,
        "contract": "contracts/loans/LoanCoordinator.sol:LoanCoordinator",
        "label": "_initialized",
        "offset": 8,
        "slot": "5",
        "type": "t_bool"
      },
      {
        "astId": 12530,
        "contract": "contracts/loans/LoanCoordinator.sol:LoanCoordinator",
        "label": "loans",
        "offset": 0,
        "slot": "6",
        "type": "t_mapping(t_uint32,t_struct(Loan)12099_storage)"
      },
      {
        "astId": 12533,
        "contract": "contracts/loans/LoanCoordinator.sol:LoanCoordinator",
        "label": "promissoryNoteToken",
        "offset": 0,
        "slot": "7",
        "type": "t_address"
      },
      {
        "astId": 12536,
        "contract": "contracts/loans/LoanCoordinator.sol:LoanCoordinator",
        "label": "obligationReceiptToken",
        "offset": 0,
        "slot": "8",
        "type": "t_address"
      },
      {
        "astId": 12545,
        "contract": "contracts/loans/LoanCoordinator.sol:LoanCoordinator",
        "label": "_nonceHasBeenUsedForUserByOfferType",
        "offset": 0,
        "slot": "9",
        "type": "t_mapping(t_bytes32,t_mapping(t_address,t_mapping(t_uint256,t_bool)))"
      }
    ],
    "types": {
      "t_address": {
        "encoding": "inplace",
        "label": "address",
        "numberOfBytes": "20"
      },
      "t_bool": {
        "encoding": "inplace",
        "label": "bool",
        "numberOfBytes": "1"
      },
      "t_bytes32": {
        "encoding": "inplace",
        "label": "bytes32",
        "numberOfBytes": "32"
      },
      "t_enum(StatusType)12091": {
        "encoding": "inplace",
        "label": "enum ILoanCoordinator.StatusType",
        "numberOfBytes": "1"
      },
      "t_mapping(t_address,t_bool)": {
        "encoding": "mapping",
        "key": "t_address",
        "label": "mapping(address => bool)",
        "numberOfBytes": "32",
        "value": "t_bool"
      },
      "t_mapping(t_address,t_bytes32)": {
        "encoding": "mapping",
        "key": "t_address",
        "label": "mapping(address => bytes32)",
        "numberOfBytes": "32",
        "value": "t_bytes32"
      },
      "t_mapping(t_address,t_mapping(t_uint256,t_bool))": {
        "encoding": "mapping",
        "key": "t_address",
        "label": "mapping(address => mapping(uint256 => bool))",
        "numberOfBytes": "32",
        "value": "t_mapping(t_uint256,t_bool)"
      },
      "t_mapping(t_bytes32,t_address)": {
        "encoding": "mapping",
        "key": "t_bytes32",
        "label": "mapping(bytes32 => address)",
        "numberOfBytes": "32",
        "value": "t_address"
      },
      "t_mapping(t_bytes32,t_mapping(t_address,t_mapping(t_uint256,t_bool)))": {
        "encoding": "mapping",
        "key": "t_bytes32",
        "label": "mapping(bytes32 => mapping(address => mapping(uint256 => bool)))",
        "numberOfBytes": "32",
        "value": "t_mapping(t_address,t_mapping(t_uint256,t_bool))"
      },
      "t_mapping(t_uint256,t_bool)": {
        "encoding": "mapping",
        "key": "t_uint256",
        "label": "mapping(uint256 => bool)",
        "numberOfBytes": "32",
        "value": "t_bool"
      },
      "t_mapping(t_uint32,t_struct(Loan)12099_storage)": {
        "encoding": "mapping",
        "key": "t_uint32",
        "label": "mapping(uint32 => struct ILoanCoordinator.Loan)",
        "numberOfBytes": "32",
        "value": "t_struct(Loan)12099_storage"
      },
      "t_struct(Loan)12099_storage": {
        "encoding": "inplace",
        "label": "struct ILoanCoordinator.Loan",
        "members": [
          {
            "astId": 12093,
            "contract": "contracts/loans/LoanCoordinator.sol:LoanCoordinator",
            "label": "loanContract",
            "offset": 0,
            "slot": "0",
            "type": "t_address"
          },
          {
            "astId": 12095,
            "contract": "contracts/loans/LoanCoordinator.sol:LoanCoordinator",
            "label": "smartNftId",
            "offset": 20,
            "slot": "0",
            "type": "t_uint64"
          },
          {
            "astId": 12098,
            "contract": "contracts/loans/LoanCoordinator.sol:LoanCoordinator",
            "label": "status",
            "offset": 28,
            "slot": "0",
            "type": "t_enum(StatusType)12091"
          }
        ],
        "numberOfBytes": "32"
      },
      "t_uint256": {
        "encoding": "inplace",
        "label": "uint256",
        "numberOfBytes": "32"
      },
      "t_uint32": {
        "encoding": "inplace",
        "label": "uint32",
        "numberOfBytes": "4"
      },
      "t_uint64": {
        "encoding": "inplace",
        "label": "uint64",
        "numberOfBytes": "8"
      }
    }
  }
}