{
  "address": "0x3A7898F8F90B9fAD94231b9b92ab9C00CCf4b647",
  "abi": [
    {
      "inputs": [
        {
          "internalType": "address",
          "name": "_admin",
          "type": "address"
        },
        {
          "internalType": "string[]",
          "name": "_definedNftTypes",
          "type": "string[]"
        },
        {
          "internalType": "address[]",
          "name": "_definedNftWrappers",
          "type": "address[]"
        },
        {
          "internalType": "address[]",
          "name": "_permittedNftContracts",
          "type": "address[]"
        },
        {
          "internalType": "string[]",
          "name": "_permittedNftTypes",
          "type": "string[]"
        }
      ],
      "stateMutability": "nonpayable",
      "type": "constructor"
    },
    {
      "anonymous": false,
      "inputs": [
        {
          "indexed": true,
          "internalType": "address",
          "name": "nftContract",
          "type": "address"
        },
        {
          "indexed": true,
          "internalType": "bytes32",
          "name": "nftType",
          "type": "bytes32"
        }
      ],
      "name": "NFTPermit",
      "type": "event"
    },
    {
      "anonymous": false,
      "inputs": [
        {
          "indexed": true,
          "internalType": "address",
          "name": "previousOwner",
          "type": "address"
        },
        {
          "indexed": true,
          "internalType": "address",
          "name": "newOwner",
          "type": "address"
        }
      ],
      "name": "OwnershipTransferred",
      "type": "event"
    },
    {
      "anonymous": false,
      "inputs": [
        {
          "indexed": true,
          "internalType": "bytes32",
          "name": "nftType",
          "type": "bytes32"
        },
        {
          "indexed": true,
          "internalType": "address",
          "name": "nftWrapper",
          "type": "address"
        }
      ],
      "name": "TypeUpdated",
      "type": "event"
    },
    {
      "inputs": [],
      "name": "acceptTransferOwnership",
      "outputs": [],
      "stateMutability": "nonpayable",
      "type": "function"
    },
    {
      "inputs": [],
      "name": "cancelTransferOwnership",
      "outputs": [],
      "stateMutability": "nonpayable",
      "type": "function"
    },
    {
      "inputs": [
        {
          "internalType": "address",
          "name": "_nftContract",
          "type": "address"
        }
      ],
      "name": "getNFTPermit",
      "outputs": [
        {
          "internalType": "bytes32",
          "name": "",
          "type": "bytes32"
        }
      ],
      "stateMutability": "view",
      "type": "function"
    },
    {
      "inputs": [
        {
          "internalType": "address",
          "name": "_nftContract",
          "type": "address"
        }
      ],
      "name": "getNFTWrapper",
      "outputs": [
        {
          "internalType": "address",
          "name": "",
          "type": "address"
        }
      ],
      "stateMutability": "view",
      "type": "function"
    },
    {
      "inputs": [
        {
          "internalType": "bytes32",
          "name": "_nftType",
          "type": "bytes32"
        }
      ],
      "name": "getNftTypeWrapper",
      "outputs": [
        {
          "internalType": "address",
          "name": "",
          "type": "address"
        }
      ],
      "stateMutability": "view",
      "type": "function"
    },
    {
      "inputs": [],
      "name": "owner",
      "outputs": [
        {
          "internalType": "address",
          "name": "",
          "type": "address"
        }
      ],
      "stateMutability": "view",
      "type": "function"
    },
    {
      "inputs": [],
      "name": "rejectTransferOwnership",
      "outputs": [],
      "stateMutability": "nonpayable",
      "type": "function"
    },
    {
      "inputs": [
        {
          "internalType": "address",
          "name": "_newOwnerCandidate",
          "type": "address"
        }
      ],
      "name": "requestTransferOwnership",
      "outputs": [],
      "stateMutability": "nonpayable",
      "type": "function"
    },
    {
      "inputs": [
        {
          "internalType": "address",
          "name": "_nftContract",
          "type": "address"
        },
        {
          "internalType": "string",
          "name": "_nftType",
          "type": "string"
        }
      ],
      "name": "setNFTPermit",
      "outputs": [],
      "stateMutability": "nonpayable",
      "type": "function"
    },
    {
      "inputs": [
        {
          "internalType": "address[]",
          "name": "_nftContracts",
          "type": "address[]"
        },
        {
          "internalType": "string[]",
          "name": "_nftTypes",
          "type": "string[]"
        }
      ],
      "name": "setNFTPermits",
      "outputs": [],
      "stateMutability": "nonpayable",
      "type": "function"
    },
    {
      "inputs": [
        {
          "internalType": "string",
          "name": "_nftType",
          "type": "string"
        },
        {
          "internalType": "address",
          "name": "_nftWrapper",
          "type": "address"
        }
      ],
      "name": "setNftType",
      "outputs": [],
      "stateMutability": "nonpayable",
      "type": "function"
    },
    {
      "inputs": [
        {
          "internalType": "string[]",
          "name": "_nftTypes",
          "type": "string[]"
        },
        {
          "internalType": "address[]",
          "name": "_nftWrappers",
          "type": "address[]"
        }
      ],
      "name": "setNftTypes",
      "outputs": [],
      "stateMutability": "nonpayable",
      "type": "function"
    }
  ],
  "transactionHash": "0x234bdd312b11a6fdb504cc3216004b710bcc861fa1e3dcca886c6d3e4b5a2bd3",
  "args": [
    "0x02e037F56728E947e92Af2c05baF7FeF387Ddd06",
    [
      "ERC721",
      "CryptoKitties",
      "ERC721_LEGACY",
      "ERC1155",
      "PUNKS",
      "SUPER_RARE_V1"
    ],
    [
      "0x78A911794A51A65cA9be8F94032331F3e8b4F1C2",
      "0x501016570D7aeaC9A35420EaF856a87DDCec4b16",
      "0x97B55Db860CfB0E25F74d415aC23FA4dd1495C86",
      "0x1918080Fddb4cA7148b2BBb14638C3454ACAe037",
      "0x88BfFD4154ecF7545741bF6f3EC9F7E2e11602DB",
      "0x3a44cc29C019865Aa71C2352AbC5700403296D58"
    ],
    [],
    []
  ],
  "numDeployments": 2,
  "solcInputHash": "bab281e5640fb4f8a58586b3f548739e",
  "bytecode": "0x60806040523480156200001157600080fd5b506040516200178e3803806200178e83398101604081905262000034916200073b565b84620000408162000064565b506200004d8484620000b4565b62000059828262000192565b505050505062000895565b600080546001600160a01b038381166001600160a01b0319831681178455604051919092169283917f8be0079c531659141344cd1fd0a4f28419497f9722a3daafe3b4186f6b6457e09190a35050565b8051825114620001235760405162461bcd60e51b815260206004820152602f60248201527f7365744e667454797065732066756e6374696f6e20696e666f726d6174696f6e60448201526e040c2e4d2e8f240dad2e6dac2e8c6d608b1b60648201526084015b60405180910390fd5b60005b81518110156200018d576200017a83828151811062000149576200014962000808565b602002602001015183838151811062000166576200016662000808565b60200260200101516200026960201b60201c565b62000185816200081e565b905062000126565b505050565b8051825114620001ff5760405162461bcd60e51b815260206004820152603160248201527f7365744e46545065726d6974732066756e6374696f6e20696e666f726d6174696044820152700dedc40c2e4d2e8f240dad2e6dac2e8c6d607b1b60648201526084016200011a565b60005b82518110156200018d576200025683828151811062000225576200022562000808565b602002602001015183838151811062000242576200024262000808565b60200260200101516200038a60201b60201c565b62000261816200081e565b905062000202565b8151600003620002af5760405162461bcd60e51b815260206004820152601060248201526f6e66745479706520697320656d70747960801b60448201526064016200011a565b60405163f99a8ffb60e01b8152600090732ffF031e525a20fcF8944aC7Cf3Bdcc3b19a6D779063f99a8ffb90620002eb90869060040162000846565b602060405180830381865af415801562000309573d6000803e3d6000fd5b505050506040513d601f19601f820116820180604052508101906200032f91906200087b565b60008181526002602052604080822080546001600160a01b0319166001600160a01b03871690811790915590519293509183917f22be69269c1f7d73e73dcb25b710dd88c7aa1cf374c16d945def98df2107c2f891a3505050565b6001600160a01b038216620003e25760405162461bcd60e51b815260206004820152601b60248201527f6e6674436f6e7472616374206973207a65726f2061646472657373000000000060448201526064016200011a565b60405163f99a8ffb60e01b8152600090732ffF031e525a20fcF8944aC7Cf3Bdcc3b19a6D779063f99a8ffb906200041e90859060040162000846565b602060405180830381865af41580156200043c573d6000803e3d6000fd5b505050506040513d601f19601f820116820180604052508101906200046291906200087b565b90508015620004d1576000818152600260205260409020546001600160a01b0316620004d15760405162461bcd60e51b815260206004820152601760248201527f4e46542074797065206e6f74207265676973746572656400000000000000000060448201526064016200011a565b6001600160a01b038316600081815260036020526040808220849055518392917f903a211c8bcdc0ab18afc116fc4776504a9aac5c0121be0fda712d399017bd2291a3505050565b80516001600160a01b03811681146200053157600080fd5b919050565b634e487b7160e01b600052604160045260246000fd5b604051601f8201601f191681016001600160401b038111828210171562000577576200057762000536565b604052919050565b60006001600160401b038211156200059b576200059b62000536565b5060051b60200190565b60005b83811015620005c2578181015183820152602001620005a8565b50506000910152565b6000601f8381840112620005de57600080fd5b82516020620005f7620005f1836200057f565b6200054c565b82815260059290921b850181019181810190878411156200061757600080fd5b8287015b84811015620006b95780516001600160401b03808211156200063d5760008081fd5b818a0191508a603f830112620006535760008081fd5b858201516040828211156200066c576200066c62000536565b6200067f828b01601f191689016200054c565b92508183528c81838601011115620006975760008081fd5b620006a882898501838701620005a5565b50508452509183019183016200061b565b50979650505050505050565b600082601f830112620006d757600080fd5b81516020620006ea620005f1836200057f565b82815260059290921b840181019181810190868411156200070a57600080fd5b8286015b848110156200073057620007228162000519565b83529183019183016200070e565b509695505050505050565b600080600080600060a086880312156200075457600080fd5b6200075f8662000519565b60208701519095506001600160401b03808211156200077d57600080fd5b6200078b89838a01620005cb565b95506040880151915080821115620007a257600080fd5b620007b089838a01620006c5565b94506060880151915080821115620007c757600080fd5b620007d589838a01620006c5565b93506080880151915080821115620007ec57600080fd5b50620007fb88828901620005cb565b9150509295509295909350565b634e487b7160e01b600052603260045260246000fd5b6000600182016200083f57634e487b7160e01b600052601160045260246000fd5b5060010190565b602081526000825180602084015262000867816040850160208701620005a5565b601f01601f19169190910160400192915050565b6000602082840312156200088e57600080fd5b5051919050565b610ee980620008a56000396000f3fe608060405234801561001057600080fd5b50600436106100d45760003560e01c806392fede0011610081578063b8c8aff81161005b578063b8c8aff8146101ba578063c88641a2146101cd578063d8e4e93e146101e057600080fd5b806392fede001461018c57806395244b94146101945780639d6fa618146101a757600080fd5b80636651f11d116100b25780636651f11d1461013c5780637b371107146101735780638da5cb5b1461017b57600080fd5b80630a21cc43146100d95780631a3dd0a5146100ee5780635f992fdd14610134575b600080fd5b6100ec6100e7366004610cb4565b6101f3565b005b6101176100fc366004610d18565b6000908152600260205260409020546001600160a01b031690565b6040516001600160a01b0390911681526020015b60405180910390f35b6100ec610260565b61016561014a366004610d31565b6001600160a01b031660009081526003602052604090205490565b60405190815260200161012b565b6100ec6102d9565b6000546001600160a01b0316610117565b6100ec610348565b6100ec6101a2366004610d4c565b6103a2565b6100ec6101b5366004610d31565b610406565b6101176101c8366004610d31565b61050b565b6100ec6101db366004610da6565b61054a565b6100ec6101ee366004610dea565b6105ae565b6000546001600160a01b031633146102525760405162461bcd60e51b815260206004820181905260248201527f4f776e61626c653a2063616c6c6572206973206e6f7420746865206f776e657260448201526064015b60405180910390fd5b61025c8282610612565b5050565b6001546001600160a01b031633146102ba5760405162461bcd60e51b815260206004820152601c60248201527f4f776e61626c653a206e6f74206f776e65722063616e646964617465000000006044820152606401610249565b6001805473ffffffffffffffffffffffffffffffffffffffff19169055565b6001546001600160a01b031633146103335760405162461bcd60e51b815260206004820152601c60248201527f4f776e61626c653a206e6f74206f776e65722063616e646964617465000000006044820152606401610249565b6001546102ba906001600160a01b03166106e6565b6000546001600160a01b031633146102ba5760405162461bcd60e51b815260206004820181905260248201527f4f776e61626c653a2063616c6c6572206973206e6f7420746865206f776e65726044820152606401610249565b6000546001600160a01b031633146103fc5760405162461bcd60e51b815260206004820181905260248201527f4f776e61626c653a2063616c6c6572206973206e6f7420746865206f776e65726044820152606401610249565b61025c8282610743565b6000546001600160a01b031633146104605760405162461bcd60e51b815260206004820181905260248201527f4f776e61626c653a2063616c6c6572206973206e6f7420746865206f776e65726044820152606401610249565b6001600160a01b0381166104dc5760405162461bcd60e51b815260206004820152602660248201527f4f776e61626c653a206e6577206f776e657220697320746865207a65726f206160448201527f64647265737300000000000000000000000000000000000000000000000000006064820152608401610249565b6001805473ffffffffffffffffffffffffffffffffffffffff19166001600160a01b0392909216919091179055565b6001600160a01b038116600090815260036020526040812054610543816000908152600260205260409020546001600160a01b031690565b9392505050565b6000546001600160a01b031633146105a45760405162461bcd60e51b815260206004820181905260248201527f4f776e61626c653a2063616c6c6572206973206e6f7420746865206f776e65726044820152606401610249565b61025c8282610812565b6000546001600160a01b031633146106085760405162461bcd60e51b815260206004820181905260248201527f4f776e61626c653a2063616c6c6572206973206e6f7420746865206f776e65726044820152606401610249565b61025c8282610997565b80518251146106895760405162461bcd60e51b815260206004820152602f60248201527f7365744e667454797065732066756e6374696f6e20696e666f726d6174696f6e60448201527f206172697479206d69736d6174636800000000000000000000000000000000006064820152608401610249565b60005b81518110156106e1576106d18382815181106106aa576106aa610e38565b60200260200101518383815181106106c4576106c4610e38565b6020026020010151610997565b6106da81610e4e565b905061068c565b505050565b600080546001600160a01b0383811673ffffffffffffffffffffffffffffffffffffffff19831681178455604051919092169283917f8be0079c531659141344cd1fd0a4f28419497f9722a3daafe3b4186f6b6457e09190a35050565b80518251146107ba5760405162461bcd60e51b815260206004820152603160248201527f7365744e46545065726d6974732066756e6374696f6e20696e666f726d61746960448201527f6f6e206172697479206d69736d617463680000000000000000000000000000006064820152608401610249565b60005b82518110156106e1576108028382815181106107db576107db610e38565b60200260200101518383815181106107f5576107f5610e38565b6020026020010151610812565b61080b81610e4e565b90506107bd565b6001600160a01b0382166108685760405162461bcd60e51b815260206004820152601b60248201527f6e6674436f6e7472616374206973207a65726f206164647265737300000000006044820152606401610249565b60405163f99a8ffb60e01b8152600090732ffF031e525a20fcF8944aC7Cf3Bdcc3b19a6D779063f99a8ffb906108a2908590600401610e75565b602060405180830381865af41580156108bf573d6000803e3d6000fd5b505050506040513d601f19601f820116820180604052508101906108e39190610ec3565b9050801561094f576000818152600260205260409020546001600160a01b031661094f5760405162461bcd60e51b815260206004820152601760248201527f4e46542074797065206e6f7420726567697374657265640000000000000000006044820152606401610249565b6001600160a01b038316600081815260036020526040808220849055518392917f903a211c8bcdc0ab18afc116fc4776504a9aac5c0121be0fda712d399017bd2291a3505050565b81516000036109e85760405162461bcd60e51b815260206004820152601060248201527f6e66745479706520697320656d707479000000000000000000000000000000006044820152606401610249565b60405163f99a8ffb60e01b8152600090732ffF031e525a20fcF8944aC7Cf3Bdcc3b19a6D779063f99a8ffb90610a22908690600401610e75565b602060405180830381865af4158015610a3f573d6000803e3d6000fd5b505050506040513d601f19601f82011682018060405250810190610a639190610ec3565b600081815260026020526040808220805473ffffffffffffffffffffffffffffffffffffffff19166001600160a01b03871690811790915590519293509183917f22be69269c1f7d73e73dcb25b710dd88c7aa1cf374c16d945def98df2107c2f891a3505050565b634e487b7160e01b600052604160045260246000fd5b604051601f8201601f1916810167ffffffffffffffff81118282101715610b0a57610b0a610acb565b604052919050565b600067ffffffffffffffff821115610b2c57610b2c610acb565b5060051b60200190565b600082601f830112610b4757600080fd5b813567ffffffffffffffff811115610b6157610b61610acb565b610b74601f8201601f1916602001610ae1565b818152846020838601011115610b8957600080fd5b816020850160208301376000918101602001919091529392505050565b600082601f830112610bb757600080fd5b81356020610bcc610bc783610b12565b610ae1565b82815260059290921b84018101918181019086841115610beb57600080fd5b8286015b84811015610c2b57803567ffffffffffffffff811115610c0f5760008081fd5b610c1d8986838b0101610b36565b845250918301918301610bef565b509695505050505050565b80356001600160a01b0381168114610c4d57600080fd5b919050565b600082601f830112610c6357600080fd5b81356020610c73610bc783610b12565b82815260059290921b84018101918181019086841115610c9257600080fd5b8286015b84811015610c2b57610ca781610c36565b8352918301918301610c96565b60008060408385031215610cc757600080fd5b823567ffffffffffffffff80821115610cdf57600080fd5b610ceb86838701610ba6565b93506020850135915080821115610d0157600080fd5b50610d0e85828601610c52565b9150509250929050565b600060208284031215610d2a57600080fd5b5035919050565b600060208284031215610d4357600080fd5b61054382610c36565b60008060408385031215610d5f57600080fd5b823567ffffffffffffffff80821115610d7757600080fd5b610d8386838701610c52565b93506020850135915080821115610d9957600080fd5b50610d0e85828601610ba6565b60008060408385031215610db957600080fd5b610dc283610c36565b9150602083013567ffffffffffffffff811115610dde57600080fd5b610d0e85828601610b36565b60008060408385031215610dfd57600080fd5b823567ffffffffffffffff811115610e1457600080fd5b610e2085828601610b36565b925050610e2f60208401610c36565b90509250929050565b634e487b7160e01b600052603260045260246000fd5b600060018201610e6e57634e487b7160e01b600052601160045260246000fd5b5060010190565b600060208083528351808285015260005b81811015610ea257858101830151858201604001528201610e86565b506000604082860101526040601f19601f8301168501019250505092915050565b600060208284031215610ed557600080fd5b505191905056fea164736f6c6343000813000a",
  "deployedBytecode": "0x608060405234801561001057600080fd5b50600436106100d45760003560e01c806392fede0011610081578063b8c8aff81161005b578063b8c8aff8146101ba578063c88641a2146101cd578063d8e4e93e146101e057600080fd5b806392fede001461018c57806395244b94146101945780639d6fa618146101a757600080fd5b80636651f11d116100b25780636651f11d1461013c5780637b371107146101735780638da5cb5b1461017b57600080fd5b80630a21cc43146100d95780631a3dd0a5146100ee5780635f992fdd14610134575b600080fd5b6100ec6100e7366004610cb4565b6101f3565b005b6101176100fc366004610d18565b6000908152600260205260409020546001600160a01b031690565b6040516001600160a01b0390911681526020015b60405180910390f35b6100ec610260565b61016561014a366004610d31565b6001600160a01b031660009081526003602052604090205490565b60405190815260200161012b565b6100ec6102d9565b6000546001600160a01b0316610117565b6100ec610348565b6100ec6101a2366004610d4c565b6103a2565b6100ec6101b5366004610d31565b610406565b6101176101c8366004610d31565b61050b565b6100ec6101db366004610da6565b61054a565b6100ec6101ee366004610dea565b6105ae565b6000546001600160a01b031633146102525760405162461bcd60e51b815260206004820181905260248201527f4f776e61626c653a2063616c6c6572206973206e6f7420746865206f776e657260448201526064015b60405180910390fd5b61025c8282610612565b5050565b6001546001600160a01b031633146102ba5760405162461bcd60e51b815260206004820152601c60248201527f4f776e61626c653a206e6f74206f776e65722063616e646964617465000000006044820152606401610249565b6001805473ffffffffffffffffffffffffffffffffffffffff19169055565b6001546001600160a01b031633146103335760405162461bcd60e51b815260206004820152601c60248201527f4f776e61626c653a206e6f74206f776e65722063616e646964617465000000006044820152606401610249565b6001546102ba906001600160a01b03166106e6565b6000546001600160a01b031633146102ba5760405162461bcd60e51b815260206004820181905260248201527f4f776e61626c653a2063616c6c6572206973206e6f7420746865206f776e65726044820152606401610249565b6000546001600160a01b031633146103fc5760405162461bcd60e51b815260206004820181905260248201527f4f776e61626c653a2063616c6c6572206973206e6f7420746865206f776e65726044820152606401610249565b61025c8282610743565b6000546001600160a01b031633146104605760405162461bcd60e51b815260206004820181905260248201527f4f776e61626c653a2063616c6c6572206973206e6f7420746865206f776e65726044820152606401610249565b6001600160a01b0381166104dc5760405162461bcd60e51b815260206004820152602660248201527f4f776e61626c653a206e6577206f776e657220697320746865207a65726f206160448201527f64647265737300000000000000000000000000000000000000000000000000006064820152608401610249565b6001805473ffffffffffffffffffffffffffffffffffffffff19166001600160a01b0392909216919091179055565b6001600160a01b038116600090815260036020526040812054610543816000908152600260205260409020546001600160a01b031690565b9392505050565b6000546001600160a01b031633146105a45760405162461bcd60e51b815260206004820181905260248201527f4f776e61626c653a2063616c6c6572206973206e6f7420746865206f776e65726044820152606401610249565b61025c8282610812565b6000546001600160a01b031633146106085760405162461bcd60e51b815260206004820181905260248201527f4f776e61626c653a2063616c6c6572206973206e6f7420746865206f776e65726044820152606401610249565b61025c8282610997565b80518251146106895760405162461bcd60e51b815260206004820152602f60248201527f7365744e667454797065732066756e6374696f6e20696e666f726d6174696f6e60448201527f206172697479206d69736d6174636800000000000000000000000000000000006064820152608401610249565b60005b81518110156106e1576106d18382815181106106aa576106aa610e38565b60200260200101518383815181106106c4576106c4610e38565b6020026020010151610997565b6106da81610e4e565b905061068c565b505050565b600080546001600160a01b0383811673ffffffffffffffffffffffffffffffffffffffff19831681178455604051919092169283917f8be0079c531659141344cd1fd0a4f28419497f9722a3daafe3b4186f6b6457e09190a35050565b80518251146107ba5760405162461bcd60e51b815260206004820152603160248201527f7365744e46545065726d6974732066756e6374696f6e20696e666f726d61746960448201527f6f6e206172697479206d69736d617463680000000000000000000000000000006064820152608401610249565b60005b82518110156106e1576108028382815181106107db576107db610e38565b60200260200101518383815181106107f5576107f5610e38565b6020026020010151610812565b61080b81610e4e565b90506107bd565b6001600160a01b0382166108685760405162461bcd60e51b815260206004820152601b60248201527f6e6674436f6e7472616374206973207a65726f206164647265737300000000006044820152606401610249565b60405163f99a8ffb60e01b815260009073__$b0ae3f603fa3e13f3b829da0b88d39db57$__9063f99a8ffb906108a2908590600401610e75565b602060405180830381865af41580156108bf573d6000803e3d6000fd5b505050506040513d601f19601f820116820180604052508101906108e39190610ec3565b9050801561094f576000818152600260205260409020546001600160a01b031661094f5760405162461bcd60e51b815260206004820152601760248201527f4e46542074797065206e6f7420726567697374657265640000000000000000006044820152606401610249565b6001600160a01b038316600081815260036020526040808220849055518392917f903a211c8bcdc0ab18afc116fc4776504a9aac5c0121be0fda712d399017bd2291a3505050565b81516000036109e85760405162461bcd60e51b815260206004820152601060248201527f6e66745479706520697320656d707479000000000000000000000000000000006044820152606401610249565b60405163f99a8ffb60e01b815260009073__$b0ae3f603fa3e13f3b829da0b88d39db57$__9063f99a8ffb90610a22908690600401610e75565b602060405180830381865af4158015610a3f573d6000803e3d6000fd5b505050506040513d601f19601f82011682018060405250810190610a639190610ec3565b600081815260026020526040808220805473ffffffffffffffffffffffffffffffffffffffff19166001600160a01b03871690811790915590519293509183917f22be69269c1f7d73e73dcb25b710dd88c7aa1cf374c16d945def98df2107c2f891a3505050565b634e487b7160e01b600052604160045260246000fd5b604051601f8201601f1916810167ffffffffffffffff81118282101715610b0a57610b0a610acb565b604052919050565b600067ffffffffffffffff821115610b2c57610b2c610acb565b5060051b60200190565b600082601f830112610b4757600080fd5b813567ffffffffffffffff811115610b6157610b61610acb565b610b74601f8201601f1916602001610ae1565b818152846020838601011115610b8957600080fd5b816020850160208301376000918101602001919091529392505050565b600082601f830112610bb757600080fd5b81356020610bcc610bc783610b12565b610ae1565b82815260059290921b84018101918181019086841115610beb57600080fd5b8286015b84811015610c2b57803567ffffffffffffffff811115610c0f5760008081fd5b610c1d8986838b0101610b36565b845250918301918301610bef565b509695505050505050565b80356001600160a01b0381168114610c4d57600080fd5b919050565b600082601f830112610c6357600080fd5b81356020610c73610bc783610b12565b82815260059290921b84018101918181019086841115610c9257600080fd5b8286015b84811015610c2b57610ca781610c36565b8352918301918301610c96565b60008060408385031215610cc757600080fd5b823567ffffffffffffffff80821115610cdf57600080fd5b610ceb86838701610ba6565b93506020850135915080821115610d0157600080fd5b50610d0e85828601610c52565b9150509250929050565b600060208284031215610d2a57600080fd5b5035919050565b600060208284031215610d4357600080fd5b61054382610c36565b60008060408385031215610d5f57600080fd5b823567ffffffffffffffff80821115610d7757600080fd5b610d8386838701610c52565b93506020850135915080821115610d9957600080fd5b50610d0e85828601610ba6565b60008060408385031215610db957600080fd5b610dc283610c36565b9150602083013567ffffffffffffffff811115610dde57600080fd5b610d0e85828601610b36565b60008060408385031215610dfd57600080fd5b823567ffffffffffffffff811115610e1457600080fd5b610e2085828601610b36565b925050610e2f60208401610c36565b90509250929050565b634e487b7160e01b600052603260045260246000fd5b600060018201610e6e57634e487b7160e01b600052601160045260246000fd5b5060010190565b600060208083528351808285015260005b81811015610ea257858101830151858201604001528201610e86565b506000604082860101526040601f19601f8301168501019250505092915050565b600060208284031215610ed557600080fd5b505191905056fea164736f6c6343000813000a",
  "libraries": {
    "ContractKeyUtils": "0x2ffF031e525a20fcF8944aC7Cf3Bdcc3b19a6D77"
  },
  "devdoc": {
    "author": "NFTfi",
    "details": "Registry for NFT contracts supported by NFTfi. Each NFT is associated with an NFT Type.",
    "events": {
      "NFTPermit(address,bytes32)": {
        "params": {
          "nftContract": "- Address of the NFT contract.",
          "nftType": "- NTF type e.g. bytes32(\"CRYPTO_KITTIES\")"
        }
      },
      "TypeUpdated(bytes32,address)": {
        "params": {
          "nftType": "- Nft type represented by keccak256('nft type').",
          "nftWrapper": "- Address of the wrapper contract."
        }
      }
    },
    "kind": "dev",
    "methods": {
      "constructor": {
        "details": "Sets `nftTypeRegistry` Initialize `nftPermits` with a batch of permitted NFTs",
        "params": {
          "_admin": "- Initial admin of this contract.",
          "_definedNftTypes": "- All the ossible nft types",
          "_definedNftWrappers": "- All the possible wrappers for the types",
          "_permittedNftContracts": "- The addresses of the NFT contracts.",
          "_permittedNftTypes": "- The NFT Types. e.g. \"CRYPTO_KITTIES\" - \"\" means \"disable this permit\" - != \"\" means \"enable permit with the given NFT Type\""
        }
      },
      "getNFTPermit(address)": {
        "params": {
          "_nftContract": "- The address of the NFT contract."
        }
      },
      "getNFTWrapper(address)": {
        "params": {
          "_nftContract": "- The address of the NFT contract."
        }
      },
      "getNftTypeWrapper(bytes32)": {
        "params": {
          "_nftType": "- The nft type, e.g. bytes32(\"ERC721\"), or bytes32(\"ERC1155\")."
        }
      },
      "owner()": {
        "details": "Returns the address of the current owner."
      },
      "requestTransferOwnership(address)": {
        "details": "Requests transferring ownership of the contract to a new account (`_newOwnerCandidate`). Can only be called by the current owner."
      },
      "setNFTPermit(address,string)": {
        "params": {
          "_nftContract": "- The address of the NFT contract.",
          "_nftType": "- The NFT Type. e.g. \"CRYPTO_KITTIES\" - \"\" means \"disable this permit\" - != \"\" means \"enable permit with the given NFT Type\""
        }
      },
      "setNFTPermits(address[],string[])": {
        "params": {
          "_nftContracts": "- The addresses of the NFT contracts.",
          "_nftTypes": "- The NFT Types. e.g. \"CRYPTO_KITTIES\" - \"\" means \"disable this permit\" - != \"\" means \"enable permit with the given NFT Type\""
        }
      },
      "setNftType(string,address)": {
        "params": {
          "_nftType": "- The nft type, e.g. \"ERC721\", or \"ERC1155\".",
          "_nftWrapper": "- The address of the wrapper contract that implements INftWrapper behaviour for dealing with NFTs."
        }
      },
      "setNftTypes(string[],address[])": {
        "params": {
          "_nftTypes": "- The nft types, e.g. \"ERC721\", or \"ERC1155\".",
          "_nftWrappers": "- The addresses of the wrapper contract that implements INftWrapper behaviour for dealing with NFTs."
        }
      }
    },
    "title": "PermittedNFTsAndTypeRegistry",
    "version": 1
  },
  "userdoc": {
    "events": {
      "NFTPermit(address,bytes32)": {
        "notice": "This event is fired whenever the admin sets a NFT's permit."
      },
      "TypeUpdated(bytes32,address)": {
        "notice": "This event is fired whenever the admins register a ntf type."
      }
    },
    "kind": "user",
    "methods": {
      "getNFTPermit(address)": {
        "notice": "This function can be called by anyone to lookup the Nft Type associated with the contract.Returns the NFT Type: - bytes32(\"\") means \"not permitted\" - != bytes32(\"\") means \"permitted with the given NFT Type\""
      },
      "getNFTWrapper(address)": {
        "notice": "This function can be called by anyone to lookup the address of the NftWrapper associated to the `_nftContract` type."
      },
      "getNftTypeWrapper(bytes32)": {
        "notice": "This function can be called by anyone to get the contract address that implements the given nft type."
      },
      "setNFTPermit(address,string)": {
        "notice": "This function can be called by admins to change the permitted list status of an NFT contract. This includes both adding an NFT contract to the permitted list and removing it. `_nftContract` can not be zero address."
      },
      "setNFTPermits(address[],string[])": {
        "notice": "This function can be called by admins to change the permitted list status of a batch NFT contracts. This includes both adding an NFT contract to the permitted list and removing it. `_nftContract` can not be zero address."
      },
      "setNftType(string,address)": {
        "notice": "Set or update the wrapper contract address for the given NFT Type. Set address(0) for a nft type for un-register such type."
      },
      "setNftTypes(string[],address[])": {
        "notice": "Batch set or update the wrappers contract address for the given batch of NFT Types. Set address(0) for a nft type for un-register such type."
      }
    },
    "version": 1
  },
  "storageLayout": {
    "storage": [
      {
        "astId": 25956,
        "contract": "contracts/permittedLists/PermittedNFTsAndTypeRegistry.sol:PermittedNFTsAndTypeRegistry",
        "label": "_owner",
        "offset": 0,
        "slot": "0",
        "type": "t_address"
      },
      {
        "astId": 25958,
        "contract": "contracts/permittedLists/PermittedNFTsAndTypeRegistry.sol:PermittedNFTsAndTypeRegistry",
        "label": "_ownerCandidate",
        "offset": 0,
        "slot": "1",
        "type": "t_address"
      },
      {
        "astId": 17625,
        "contract": "contracts/permittedLists/PermittedNFTsAndTypeRegistry.sol:PermittedNFTsAndTypeRegistry",
        "label": "nftTypes",
        "offset": 0,
        "slot": "2",
        "type": "t_mapping(t_bytes32,t_address)"
      },
      {
        "astId": 17630,
        "contract": "contracts/permittedLists/PermittedNFTsAndTypeRegistry.sol:PermittedNFTsAndTypeRegistry",
        "label": "nftPermits",
        "offset": 0,
        "slot": "3",
        "type": "t_mapping(t_address,t_bytes32)"
      }
    ],
    "types": {
      "t_address": {
        "encoding": "inplace",
        "label": "address",
        "numberOfBytes": "20"
      },
      "t_bytes32": {
        "encoding": "inplace",
        "label": "bytes32",
        "numberOfBytes": "32"
      },
      "t_mapping(t_address,t_bytes32)": {
        "encoding": "mapping",
        "key": "t_address",
        "label": "mapping(address => bytes32)",
        "numberOfBytes": "32",
        "value": "t_bytes32"
      },
      "t_mapping(t_bytes32,t_address)": {
        "encoding": "mapping",
        "key": "t_bytes32",
        "label": "mapping(bytes32 => address)",
        "numberOfBytes": "32",
        "value": "t_address"
      }
    }
  }
}