{
  "address": "0x88BfFD4154ecF7545741bF6f3EC9F7E2e11602DB",
  "abi": [
    {
      "inputs": [
        {
          "internalType": "address",
          "name": "to",
          "type": "address"
        },
        {
          "internalType": "address",
          "name": "nftContract",
          "type": "address"
        },
        {
          "internalType": "uint256",
          "name": "tokenId",
          "type": "uint256"
        }
      ],
      "name": "approveNFT",
      "outputs": [
        {
          "internalType": "bool",
          "name": "",
          "type": "bool"
        }
      ],
      "stateMutability": "nonpayable",
      "type": "function"
    },
    {
      "inputs": [
        {
          "internalType": "address",
          "name": "_owner",
          "type": "address"
        },
        {
          "internalType": "address",
          "name": "_nftContract",
          "type": "address"
        },
        {
          "internalType": "uint256",
          "name": "_tokenId",
          "type": "uint256"
        }
      ],
      "name": "balanceOf",
      "outputs": [
        {
          "internalType": "uint256",
          "name": "",
          "type": "uint256"
        }
      ],
      "stateMutability": "view",
      "type": "function"
    },
    {
      "inputs": [
        {
          "internalType": "address",
          "name": "_owner",
          "type": "address"
        },
        {
          "internalType": "address",
          "name": "_nftContract",
          "type": "address"
        },
        {
          "internalType": "uint256",
          "name": "_tokenId",
          "type": "uint256"
        }
      ],
      "name": "isOwner",
      "outputs": [
        {
          "internalType": "bool",
          "name": "",
          "type": "bool"
        }
      ],
      "stateMutability": "view",
      "type": "function"
    },
    {
      "inputs": [
        {
          "internalType": "address",
          "name": "_sender",
          "type": "address"
        },
        {
          "internalType": "address",
          "name": "_recipient",
          "type": "address"
        },
        {
          "internalType": "address",
          "name": "_nftContract",
          "type": "address"
        },
        {
          "internalType": "uint256",
          "name": "_nftId",
          "type": "uint256"
        }
      ],
      "name": "transferNFT",
      "outputs": [
        {
          "internalType": "bool",
          "name": "",
          "type": "bool"
        }
      ],
      "stateMutability": "nonpayable",
      "type": "function"
    }
  ],
  "transactionHash": "0x2f6f8658b76775562a068caf5b6bff1477fbed87520ec51cb11614eb82acaa79",
  "args": [],
  "numDeployments": 2,
  "solcInputHash": "bab281e5640fb4f8a58586b3f548739e",
  "bytecode": "0x608060405234801561001057600080fd5b5061045c806100206000396000f3fe608060405234801561001057600080fd5b506004361061004c5760003560e01c80637336aaf014610051578063b030667114610079578063e93119d91461008c578063f370e8c5146100ad575b600080fd5b61006461005f3660046103a0565b6100c0565b60405190151581526020015b60405180910390f35b6100646100873660046103e1565b610153565b61009f61009a3660046103a0565b6102d9565b604051908152602001610070565b6100646100bb3660046103a0565b6102fb565b6040517fbf31196f000000000000000000000000000000000000000000000000000000008152600481018290526000602482018190526001600160a01b03858116604484015290919084169063bf31196f90606401600060405180830381600087803b15801561012f57600080fd5b505af1158015610143573d6000803e3d6000fd5b50505050600190505b9392505050565b60006001600160a01b03851630036101e5576040517f8b72a2ec0000000000000000000000000000000000000000000000000000000081526001600160a01b03858116600483015260248201849052841690638b72a2ec90604401600060405180830381600087803b1580156101c857600080fd5b505af11580156101dc573d6000803e3d6000fd5b505050506102ce565b6101f08584846102fb565b61025a576040517f08c379a000000000000000000000000000000000000000000000000000000000815260206004820181905260248201527f50756e6b577261707065723a73656e646572206d757374206265206f776e6572604482015260640160405180910390fd5b6040517f8264fe98000000000000000000000000000000000000000000000000000000008152600481018390526001600160a01b03841690638264fe9890602401600060405180830381600087803b1580156102b557600080fd5b505af11580156102c9573d6000803e3d6000fd5b505050505b506001949350505050565b60006102e68484846102fb565b156102f35750600161014c565b50600061014c565b6000836001600160a01b0316836001600160a01b03166358178168846040518263ffffffff1660e01b815260040161033591815260200190565b602060405180830381865afa158015610352573d6000803e3d6000fd5b505050506040513d601f19601f820116820180604052508101906103769190610432565b6001600160a01b031614949350505050565b6001600160a01b038116811461039d57600080fd5b50565b6000806000606084860312156103b557600080fd5b83356103c081610388565b925060208401356103d081610388565b929592945050506040919091013590565b600080600080608085870312156103f757600080fd5b843561040281610388565b9350602085013561041281610388565b9250604085013561042281610388565b9396929550929360600135925050565b60006020828403121561044457600080fd5b815161014c8161038856fea164736f6c6343000813000a",
  "devdoc": {
    "author": "NFTfi",
    "details": "Provides logic to transfer Punks",
    "kind": "dev",
    "methods": {
      "transferNFT(address,address,address,uint256)": {
        "details": "Transfers Punk `_nftId` handled by the contract `_nftContract` from `_sender` to `_recipient`",
        "params": {
          "_nftContract": "- Punk contract",
          "_nftId": "- Punk id",
          "_recipient": "- The new owner of the Punk",
          "_sender": "- The current owner of the Punk"
        },
        "returns": {
          "_0": "true if successfully transferred, false otherwise"
        }
      }
    },
    "title": "PunkWrapper",
    "version": 1
  },
  "userdoc": {
    "kind": "user",
    "methods": {},
    "version": 1
  },
  "storageLayout": {
    "storage": [],
    "types": null
  }
}